{
	"contracts/FundMe.sol": {
		"FundMe": {
			"abi": [
				{
					"inputs": [],
					"name": "fund",
					"outputs": [],
					"stateMutability": "payable",
					"type": "function"
				},
				{
					"inputs": [],
					"name": "getPrice",
					"outputs": [],
					"stateMutability": "view",
					"type": "function"
				},
				{
					"inputs": [],
					"name": "withdraw",
					"outputs": [],
					"stateMutability": "nonpayable",
					"type": "function"
				}
			],
			"devdoc": {
				"kind": "dev",
				"methods": {},
				"version": 1
			},
			"evm": {
				"assembly": "    /* \"contracts/FundMe.sol\":341:963  contract FundMe {... */\n  mstore(0x40, 0x80)\n  callvalue\n  dup1\n  iszero\n  tag_1\n  jumpi\n  revert(0x00, 0x00)\ntag_1:\n  pop\n  dataSize(sub_0)\n  dup1\n  dataOffset(sub_0)\n  0x00\n  codecopy\n  0x00\n  return\nstop\n\nsub_0: assembly {\n        /* \"contracts/FundMe.sol\":341:963  contract FundMe {... */\n      mstore(0x40, 0x80)\n      jumpi(tag_1, lt(calldatasize, 0x04))\n      shr(0xe0, calldataload(0x00))\n      dup1\n      0x3ccfd60b\n      eq\n      tag_2\n      jumpi\n      dup1\n      0x98d5fdca\n      eq\n      tag_3\n      jumpi\n      dup1\n      0xb60d4288\n      eq\n      tag_4\n      jumpi\n    tag_1:\n      revert(0x00, 0x00)\n        /* \"contracts/FundMe.sol\":929:958  function withdraw() public {} */\n    tag_2:\n      callvalue\n      dup1\n      iszero\n      tag_5\n      jumpi\n      revert(0x00, 0x00)\n    tag_5:\n      pop\n    tag_6:\n      stop\n        /* \"contracts/FundMe.sol\":644:864  function getPrice() public view {... */\n    tag_3:\n      callvalue\n      dup1\n      iszero\n      tag_8\n      jumpi\n      revert(0x00, 0x00)\n    tag_8:\n      pop\n      tag_6\n      tag_10\n      jump\t// in\n        /* \"contracts/FundMe.sol\":539:642  function fund() public payable {... */\n    tag_4:\n      tag_6\n      tag_12\n      jump\t// in\n        /* \"contracts/FundMe.sol\":929:958  function withdraw() public {} */\n    tag_7:\n      jump\t// out\n        /* \"contracts/FundMe.sol\":644:864  function getPrice() public view {... */\n    tag_10:\n        /* \"contracts/FundMe.sol\":683:714  AggregatorV3Interface priceFeed */\n      0x00\n        /* \"contracts/FundMe.sol\":739:781  0x694AA1769357215DE4FAC081bf1f309aDC325306 */\n      0x694aa1769357215de4fac081bf1f309adc325306\n        /* \"contracts/FundMe.sol\":683:782  AggregatorV3Interface priceFeed = AggregatorV3Interface(0x694AA1769357215DE4FAC081bf1f309aDC325306) */\n      swap1\n      pop\n        /* \"contracts/FundMe.sol\":791:803  int256 price */\n      0x00\n        /* \"contracts/FundMe.sol\":810:819  priceFeed */\n      dup2\n      sub(shl(0xa0, 0x01), 0x01)\n        /* \"contracts/FundMe.sol\":810:835  priceFeed.latestRoundData */\n      and\n      0xfeaf968c\n        /* \"contracts/FundMe.sol\":810:837  priceFeed.latestRoundData() */\n      mload(0x40)\n      dup2\n      0xffffffff\n      and\n      0xe0\n      shl\n      dup2\n      mstore\n      0x04\n      add\n      0xa0\n      mload(0x40)\n      dup1\n      dup4\n      sub\n      dup2\n      dup7\n      gas\n      staticcall\n      iszero\n      dup1\n      iszero\n      tag_16\n      jumpi\n      returndatacopy(0x00, 0x00, returndatasize)\n      revert(0x00, returndatasize)\n    tag_16:\n      pop\n      pop\n      pop\n      pop\n      mload(0x40)\n      returndatasize\n      not(0x1f)\n      0x1f\n      dup3\n      add\n      and\n      dup3\n      add\n      dup1\n      0x40\n      mstore\n      pop\n      dup2\n      add\n      swap1\n      tag_17\n      swap2\n      swap1\n      tag_18\n      jump\t// in\n    tag_17:\n      pop\n      pop\n      pop\n      pop\n      pop\n      pop\n      pop\n        /* \"contracts/FundMe.sol\":644:864  function getPrice() public view {... */\n      jump\t// out\n        /* \"contracts/FundMe.sol\":539:642  function fund() public payable {... */\n    tag_12:\n        /* \"contracts/FundMe.sol\":602:605  1e2 */\n      0x64\n        /* \"contracts/FundMe.sol\":589:598  msg.value */\n      callvalue\n        /* \"contracts/FundMe.sol\":589:605  msg.value >= 1e2 */\n      lt\n      iszero\n        /* \"contracts/FundMe.sol\":581:634  require(msg.value >= 1e2, \"didn't send enough ether\") */\n      tag_7\n      jumpi\n      mload(0x40)\n      shl(0xe5, 0x461bcd)\n      dup2\n      mstore\n        /* \"#utility.yul\":976:978   */\n      0x20\n        /* \"contracts/FundMe.sol\":581:634  require(msg.value >= 1e2, \"didn't send enough ether\") */\n      0x04\n      dup3\n      add\n        /* \"#utility.yul\":958:979   */\n      mstore\n        /* \"#utility.yul\":1015:1017   */\n      0x18\n        /* \"#utility.yul\":995:1013   */\n      0x24\n      dup3\n      add\n        /* \"#utility.yul\":988:1018   */\n      mstore\n        /* \"#utility.yul\":1054:1080   */\n      0x6469646e27742073656e6420656e6f7567682065746865720000000000000000\n        /* \"#utility.yul\":1034:1052   */\n      0x44\n      dup3\n      add\n        /* \"#utility.yul\":1027:1081   */\n      mstore\n        /* \"#utility.yul\":1098:1116   */\n      0x64\n      add\n        /* \"contracts/FundMe.sol\":581:634  require(msg.value >= 1e2, \"didn't send enough ether\") */\n      mload(0x40)\n      dup1\n      swap2\n      sub\n      swap1\n      revert\n        /* \"#utility.yul\":14:193   */\n    tag_23:\n        /* \"#utility.yul\":92:105   */\n      dup1\n      mload\n        /* \"#utility.yul\":145:167   */\n      0xffffffffffffffffffff\n        /* \"#utility.yul\":134:168   */\n      dup2\n      and\n        /* \"#utility.yul\":124:169   */\n      dup2\n      eq\n        /* \"#utility.yul\":114:187   */\n      tag_26\n      jumpi\n        /* \"#utility.yul\":183:184   */\n      0x00\n        /* \"#utility.yul\":180:181   */\n      0x00\n        /* \"#utility.yul\":173:185   */\n      revert\n        /* \"#utility.yul\":114:187   */\n    tag_26:\n        /* \"#utility.yul\":14:193   */\n      swap2\n      swap1\n      pop\n      jump\t// out\n        /* \"#utility.yul\":198:769   */\n    tag_18:\n        /* \"#utility.yul\":301:307   */\n      0x00\n        /* \"#utility.yul\":309:315   */\n      0x00\n        /* \"#utility.yul\":317:323   */\n      0x00\n        /* \"#utility.yul\":325:331   */\n      0x00\n        /* \"#utility.yul\":333:339   */\n      0x00\n        /* \"#utility.yul\":386:389   */\n      0xa0\n        /* \"#utility.yul\":374:383   */\n      dup7\n        /* \"#utility.yul\":365:372   */\n      dup9\n        /* \"#utility.yul\":361:384   */\n      sub\n        /* \"#utility.yul\":357:390   */\n      slt\n        /* \"#utility.yul\":354:407   */\n      iszero\n      tag_28\n      jumpi\n        /* \"#utility.yul\":403:404   */\n      0x00\n        /* \"#utility.yul\":400:401   */\n      0x00\n        /* \"#utility.yul\":393:405   */\n      revert\n        /* \"#utility.yul\":354:407   */\n    tag_28:\n        /* \"#utility.yul\":426:465   */\n      tag_29\n        /* \"#utility.yul\":455:464   */\n      dup7\n        /* \"#utility.yul\":426:465   */\n      tag_23\n      jump\t// in\n    tag_29:\n        /* \"#utility.yul\":505:507   */\n      0x20\n        /* \"#utility.yul\":490:508   */\n      dup8\n      add\n        /* \"#utility.yul\":484:509   */\n      mload\n        /* \"#utility.yul\":571:573   */\n      0x40\n        /* \"#utility.yul\":556:574   */\n      dup9\n      add\n        /* \"#utility.yul\":550:575   */\n      mload\n        /* \"#utility.yul\":665:667   */\n      0x60\n        /* \"#utility.yul\":650:668   */\n      dup10\n      add\n        /* \"#utility.yul\":644:669   */\n      mload\n        /* \"#utility.yul\":416:465   */\n      swap3\n      swap8\n      pop\n        /* \"#utility.yul\":484:509   */\n      swap1\n      swap6\n      pop\n        /* \"#utility.yul\":550:575   */\n      swap4\n      pop\n        /* \"#utility.yul\":644:669   */\n      swap2\n      pop\n        /* \"#utility.yul\":714:763   */\n      tag_30\n        /* \"#utility.yul\":758:761   */\n      0x80\n        /* \"#utility.yul\":743:762   */\n      dup8\n      add\n        /* \"#utility.yul\":714:763   */\n      tag_23\n      jump\t// in\n    tag_30:\n        /* \"#utility.yul\":704:763   */\n      swap1\n      pop\n        /* \"#utility.yul\":198:769   */\n      swap3\n      swap6\n      pop\n      swap3\n      swap6\n      swap1\n      swap4\n      pop\n      jump\t// out\n\n    auxdata: 0xa26469706673582212207d59f0821fff81ccb8a907ea1f4383451409f5a96194a7c1c40e45c078297b5964736f6c634300081e0033\n}\n",
				"bytecode": {
					"linkReferences": {},
					"object": "6080604052348015600e575f5ffd5b506101dd8061001c5f395ff3fe608060405260043610610033575f3560e01c80633ccfd60b1461003757806398d5fdca14610046578063b60d42881461005a575b5f5ffd5b348015610042575f5ffd5b505b005b348015610051575f5ffd5b50610044610064565b6100446100e6565b565b5f73694aa1769357215de4fac081bf1f309adc32530690505f816001600160a01b031663feaf968c6040518163ffffffff1660e01b815260040160a060405180830381865afa1580156100b9573d5f5f3e3d5ffd5b505050506040513d601f19601f820116820180604052508101906100dd9190610159565b50505050505050565b60643410156100625760405162461bcd60e51b815260206004820152601860248201527f6469646e27742073656e6420656e6f7567682065746865720000000000000000604482015260640160405180910390fd5b805169ffffffffffffffffffff81168114610154575f5ffd5b919050565b5f5f5f5f5f60a0868803121561016d575f5ffd5b6101768661013b565b6020870151604088015160608901519297509095509350915061019b6080870161013b565b9050929550929590935056fea26469706673582212207d59f0821fff81ccb8a907ea1f4383451409f5a96194a7c1c40e45c078297b5964736f6c634300081e0033",
					"opcodes": "PUSH1 0x80 PUSH1 0x40 MSTORE CALLVALUE DUP1 ISZERO PUSH1 0xE JUMPI PUSH0 PUSH0 REVERT JUMPDEST POP PUSH2 0x1DD DUP1 PUSH2 0x1C PUSH0 CODECOPY PUSH0 RETURN INVALID PUSH1 0x80 PUSH1 0x40 MSTORE PUSH1 0x4 CALLDATASIZE LT PUSH2 0x33 JUMPI PUSH0 CALLDATALOAD PUSH1 0xE0 SHR DUP1 PUSH4 0x3CCFD60B EQ PUSH2 0x37 JUMPI DUP1 PUSH4 0x98D5FDCA EQ PUSH2 0x46 JUMPI DUP1 PUSH4 0xB60D4288 EQ PUSH2 0x5A JUMPI JUMPDEST PUSH0 PUSH0 REVERT JUMPDEST CALLVALUE DUP1 ISZERO PUSH2 0x42 JUMPI PUSH0 PUSH0 REVERT JUMPDEST POP JUMPDEST STOP JUMPDEST CALLVALUE DUP1 ISZERO PUSH2 0x51 JUMPI PUSH0 PUSH0 REVERT JUMPDEST POP PUSH2 0x44 PUSH2 0x64 JUMP JUMPDEST PUSH2 0x44 PUSH2 0xE6 JUMP JUMPDEST JUMP JUMPDEST PUSH0 PUSH20 0x694AA1769357215DE4FAC081BF1F309ADC325306 SWAP1 POP PUSH0 DUP2 PUSH1 0x1 PUSH1 0x1 PUSH1 0xA0 SHL SUB AND PUSH4 0xFEAF968C PUSH1 0x40 MLOAD DUP2 PUSH4 0xFFFFFFFF AND PUSH1 0xE0 SHL DUP2 MSTORE PUSH1 0x4 ADD PUSH1 0xA0 PUSH1 0x40 MLOAD DUP1 DUP4 SUB DUP2 DUP7 GAS STATICCALL ISZERO DUP1 ISZERO PUSH2 0xB9 JUMPI RETURNDATASIZE PUSH0 PUSH0 RETURNDATACOPY RETURNDATASIZE PUSH0 REVERT JUMPDEST POP POP POP POP PUSH1 0x40 MLOAD RETURNDATASIZE PUSH1 0x1F NOT PUSH1 0x1F DUP3 ADD AND DUP3 ADD DUP1 PUSH1 0x40 MSTORE POP DUP2 ADD SWAP1 PUSH2 0xDD SWAP2 SWAP1 PUSH2 0x159 JUMP JUMPDEST POP POP POP POP POP POP POP JUMP JUMPDEST PUSH1 0x64 CALLVALUE LT ISZERO PUSH2 0x62 JUMPI PUSH1 0x40 MLOAD PUSH3 0x461BCD PUSH1 0xE5 SHL DUP2 MSTORE PUSH1 0x20 PUSH1 0x4 DUP3 ADD MSTORE PUSH1 0x18 PUSH1 0x24 DUP3 ADD MSTORE PUSH32 0x6469646E27742073656E6420656E6F7567682065746865720000000000000000 PUSH1 0x44 DUP3 ADD MSTORE PUSH1 0x64 ADD PUSH1 0x40 MLOAD DUP1 SWAP2 SUB SWAP1 REVERT JUMPDEST DUP1 MLOAD PUSH10 0xFFFFFFFFFFFFFFFFFFFF DUP2 AND DUP2 EQ PUSH2 0x154 JUMPI PUSH0 PUSH0 REVERT JUMPDEST SWAP2 SWAP1 POP JUMP JUMPDEST PUSH0 PUSH0 PUSH0 PUSH0 PUSH0 PUSH1 0xA0 DUP7 DUP9 SUB SLT ISZERO PUSH2 0x16D JUMPI PUSH0 PUSH0 REVERT JUMPDEST PUSH2 0x176 DUP7 PUSH2 0x13B JUMP JUMPDEST PUSH1 0x20 DUP8 ADD MLOAD PUSH1 0x40 DUP9 ADD MLOAD PUSH1 0x60 DUP10 ADD MLOAD SWAP3 SWAP8 POP SWAP1 SWAP6 POP SWAP4 POP SWAP2 POP PUSH2 0x19B PUSH1 0x80 DUP8 ADD PUSH2 0x13B JUMP JUMPDEST SWAP1 POP SWAP3 SWAP6 POP SWAP3 SWAP6 SWAP1 SWAP4 POP JUMP INVALID LOG2 PUSH5 0x6970667358 0x22 SLT KECCAK256 PUSH30 0x59F0821FFF81CCB8A907EA1F4383451409F5A96194A7C1C40E45C078297B MSIZE PUSH5 0x736F6C6343 STOP ADDMOD 0x1E STOP CALLER "
				},
				"gasEstimates": {
					"creation": {
						"codeDepositCost": "95400",
						"executionCost": "139",
						"totalCost": "95539"
					},
					"external": {
						"fund()": "261",
						"getPrice()": "infinite",
						"withdraw()": "98"
					}
				},
				"methodIdentifiers": {
					"fund()": "b60d4288",
					"getPrice()": "98d5fdca",
					"withdraw()": "3ccfd60b"
				}
			},
			"storageLayout": {
				"storage": [],
				"types": null
			},
			"userdoc": {
				"kind": "user",
				"methods": {},
				"version": 1
			}
		}
	}
}