{
	"contracts/FundMe.sol": {
		"FundMe": {
			"abi": [
				{
					"inputs": [],
					"name": "fund",
					"outputs": [],
					"stateMutability": "payable",
					"type": "function"
				},
				{
					"inputs": [
						{
							"internalType": "uint256",
							"name": "ethAmount",
							"type": "uint256"
						}
					],
					"name": "getConversionRate",
					"outputs": [
						{
							"internalType": "uint256",
							"name": "",
							"type": "uint256"
						}
					],
					"stateMutability": "view",
					"type": "function"
				},
				{
					"inputs": [],
					"name": "getPrice",
					"outputs": [
						{
							"internalType": "uint256",
							"name": "",
							"type": "uint256"
						}
					],
					"stateMutability": "view",
					"type": "function"
				},
				{
					"inputs": [],
					"name": "getVersion",
					"outputs": [
						{
							"internalType": "uint256",
							"name": "",
							"type": "uint256"
						}
					],
					"stateMutability": "view",
					"type": "function"
				},
				{
					"inputs": [],
					"name": "minimumUSD",
					"outputs": [
						{
							"internalType": "uint256",
							"name": "",
							"type": "uint256"
						}
					],
					"stateMutability": "view",
					"type": "function"
				},
				{
					"inputs": [],
					"name": "withdraw",
					"outputs": [],
					"stateMutability": "nonpayable",
					"type": "function"
				}
			],
			"devdoc": {
				"kind": "dev",
				"methods": {},
				"version": 1
			},
			"evm": {
				"assembly": "    /* \"contracts/FundMe.sol\":352:2520  contract FundMe  {... */\n  mstore(0x40, 0x80)\n    /* \"contracts/FundMe.sol\":543:544  5 */\n  0x05\n    /* \"contracts/FundMe.sol\":515:544  uint256 public minimumUSD = 5 */\n  0x00\n  sstore\n    /* \"contracts/FundMe.sol\":352:2520  contract FundMe  {... */\n  callvalue\n  dup1\n  iszero\n  tag_1\n  jumpi\n  revert(0x00, 0x00)\ntag_1:\n  pop\n  dataSize(sub_0)\n  dup1\n  dataOffset(sub_0)\n  0x00\n  codecopy\n  0x00\n  return\nstop\n\nsub_0: assembly {\n        /* \"contracts/FundMe.sol\":352:2520  contract FundMe  {... */\n      mstore(0x40, 0x80)\n      jumpi(tag_1, lt(calldatasize, 0x04))\n      shr(0xe0, calldataload(0x00))\n      dup1\n      0x0d8e6e2c\n      eq\n      tag_2\n      jumpi\n      dup1\n      0x3430a88c\n      eq\n      tag_3\n      jumpi\n      dup1\n      0x3ccfd60b\n      eq\n      tag_4\n      jumpi\n      dup1\n      0x6e5b6b28\n      eq\n      tag_5\n      jumpi\n      dup1\n      0x98d5fdca\n      eq\n      tag_6\n      jumpi\n      dup1\n      0xb60d4288\n      eq\n      tag_7\n      jumpi\n    tag_1:\n      revert(0x00, 0x00)\n        /* \"contracts/FundMe.sol\":2352:2505  function getVersion() public view returns (uint256){... */\n    tag_2:\n      callvalue\n      dup1\n      iszero\n      tag_8\n      jumpi\n      revert(0x00, 0x00)\n    tag_8:\n      pop\n        /* \"contracts/FundMe.sol\":2395:2402  uint256 */\n      0x00\n        /* \"contracts/FundMe.sol\":2352:2505  function getVersion() public view returns (uint256){... */\n    tag_9:\n      mload(0x40)\n        /* \"#utility.yul\":160:185   */\n      swap1\n      dup2\n      mstore\n        /* \"#utility.yul\":148:150   */\n      0x20\n        /* \"#utility.yul\":133:151   */\n      add\n        /* \"contracts/FundMe.sol\":2352:2505  function getVersion() public view returns (uint256){... */\n      mload(0x40)\n      dup1\n      swap2\n      sub\n      swap1\n      return\n        /* \"contracts/FundMe.sol\":515:544  uint256 public minimumUSD = 5 */\n    tag_3:\n      callvalue\n      dup1\n      iszero\n      tag_13\n      jumpi\n      revert(0x00, 0x00)\n    tag_13:\n      pop\n      tag_9\n      sload(0x00)\n      dup2\n      jump\n        /* \"contracts/FundMe.sol\":2315:2344  function withdraw() public {} */\n    tag_4:\n      callvalue\n      dup1\n      iszero\n      tag_17\n      jumpi\n      revert(0x00, 0x00)\n    tag_17:\n      pop\n    tag_18:\n      stop\n        /* \"contracts/FundMe.sol\":2021:2252  function getConversionRate(uint256 ethAmount) public view... */\n    tag_5:\n      callvalue\n      dup1\n      iszero\n      tag_20\n      jumpi\n      revert(0x00, 0x00)\n    tag_20:\n      pop\n      tag_9\n      tag_22\n      calldatasize\n      0x04\n      tag_23\n      jump\t// in\n    tag_22:\n      tag_24\n      jump\t// in\n        /* \"contracts/FundMe.sol\":1261:1909  function getPrice() public view returns(uint256) {... */\n    tag_6:\n      callvalue\n      dup1\n      iszero\n      tag_26\n      jumpi\n      revert(0x00, 0x00)\n    tag_26:\n      pop\n      tag_9\n      tag_28\n      jump\t// in\n        /* \"contracts/FundMe.sol\":882:1115  function fund() public payable  {... */\n    tag_7:\n      tag_18\n      tag_31\n      jump\t// in\n        /* \"contracts/FundMe.sol\":2315:2344  function withdraw() public {} */\n    tag_19:\n      jump\t// out\n        /* \"contracts/FundMe.sol\":2021:2252  function getConversionRate(uint256 ethAmount) public view... */\n    tag_24:\n        /* \"contracts/FundMe.sol\":2093:2100  uint256 */\n      0x00\n        /* \"contracts/FundMe.sol\":2112:2128  uint256 ethPrice */\n      0x00\n        /* \"contracts/FundMe.sol\":2131:2141  getPrice() */\n      tag_35\n        /* \"contracts/FundMe.sol\":2131:2139  getPrice */\n      tag_28\n        /* \"contracts/FundMe.sol\":2131:2141  getPrice() */\n      jump\t// in\n    tag_35:\n        /* \"contracts/FundMe.sol\":2112:2141  uint256 ethPrice = getPrice() */\n      swap1\n      pop\n        /* \"contracts/FundMe.sol\":2152:2174  uint256 ethAmountinUSD */\n      0x00\n        /* \"contracts/FundMe.sol\":2202:2206  1e36 */\n      0xc097ce7bc90715b34b9f1000000000\n        /* \"contracts/FundMe.sol\":2178:2198  ethPrice * ethAmount */\n      tag_36\n        /* \"contracts/FundMe.sol\":2189:2198  ethAmount */\n      dup6\n        /* \"contracts/FundMe.sol\":2112:2141  uint256 ethPrice = getPrice() */\n      dup5\n        /* \"contracts/FundMe.sol\":2178:2198  ethPrice * ethAmount */\n      tag_37\n      jump\t// in\n    tag_36:\n        /* \"contracts/FundMe.sol\":2177:2206  (ethPrice * ethAmount) / 1e36 */\n      tag_38\n      swap2\n      swap1\n      tag_39\n      jump\t// in\n    tag_38:\n        /* \"contracts/FundMe.sol\":2152:2206  uint256 ethAmountinUSD = (ethPrice * ethAmount) / 1e36 */\n      swap5\n        /* \"contracts/FundMe.sol\":2021:2252  function getConversionRate(uint256 ethAmount) public view... */\n      swap4\n      pop\n      pop\n      pop\n      pop\n      jump\t// out\n        /* \"contracts/FundMe.sol\":1261:1909  function getPrice() public view returns(uint256) {... */\n    tag_28:\n        /* \"contracts/FundMe.sol\":1301:1308  uint256 */\n      0x00\n        /* \"contracts/FundMe.sol\":1385:1415  AggregatorV3Interface dataFeed */\n      0x00\n        /* \"contracts/FundMe.sol\":1450:1492  0x694AA1769357215DE4FAC081bf1f309aDC325306 */\n      0x694aa1769357215de4fac081bf1f309adc325306\n        /* \"contracts/FundMe.sol\":1385:1493  AggregatorV3Interface dataFeed = AggregatorV3Interface... */\n      swap1\n      pop\n        /* \"contracts/FundMe.sol\":1505:1518  int256 answer */\n      0x00\n        /* \"contracts/FundMe.sol\":1525:1533  dataFeed */\n      dup2\n      sub(shl(0xa0, 0x01), 0x01)\n        /* \"contracts/FundMe.sol\":1525:1549  dataFeed.latestRoundData */\n      and\n      0xfeaf968c\n        /* \"contracts/FundMe.sol\":1525:1551  dataFeed.latestRoundData() */\n      mload(0x40)\n      dup2\n      0xffffffff\n      and\n      0xe0\n      shl\n      dup2\n      mstore\n      0x04\n      add\n      0xa0\n      mload(0x40)\n      dup1\n      dup4\n      sub\n      dup2\n      dup7\n      gas\n      staticcall\n      iszero\n      dup1\n      iszero\n      tag_42\n      jumpi\n      returndatacopy(0x00, 0x00, returndatasize)\n      revert(0x00, returndatasize)\n    tag_42:\n      pop\n      pop\n      pop\n      pop\n      mload(0x40)\n      returndatasize\n      not(0x1f)\n      0x1f\n      dup3\n      add\n      and\n      dup3\n      add\n      dup1\n      0x40\n      mstore\n      pop\n      dup2\n      add\n      swap1\n      tag_43\n      swap2\n      swap1\n      tag_44\n      jump\t// in\n    tag_43:\n        /* \"contracts/FundMe.sol\":1503:1551  (,int256 answer,,,) = dataFeed.latestRoundData() */\n      pop\n      pop\n      pop\n      swap2\n      pop\n      pop\n        /* \"contracts/FundMe.sol\":1573:1579  answer */\n      dup1\n        /* \"contracts/FundMe.sol\":1582:1586  1e18 */\n      0x0de0b6b3a7640000\n        /* \"contracts/FundMe.sol\":1573:1586  answer * 1e18 */\n      tag_45\n      swap2\n      swap1\n      tag_46\n      jump\t// in\n    tag_45:\n        /* \"contracts/FundMe.sol\":1558:1587  return uint256(answer * 1e18) */\n      swap3\n      pop\n      pop\n      pop\n        /* \"contracts/FundMe.sol\":1261:1909  function getPrice() public view returns(uint256) {... */\n      swap1\n      jump\t// out\n        /* \"contracts/FundMe.sol\":882:1115  function fund() public payable  {... */\n    tag_31:\n        /* \"contracts/FundMe.sol\":1052:1062  minimumUSD */\n      sload(0x00)\n        /* \"contracts/FundMe.sol\":1020:1048  getConversionRate(msg.value) */\n      tag_48\n        /* \"contracts/FundMe.sol\":1038:1047  msg.value */\n      callvalue\n        /* \"contracts/FundMe.sol\":1020:1037  getConversionRate */\n      tag_24\n        /* \"contracts/FundMe.sol\":1020:1048  getConversionRate(msg.value) */\n      jump\t// in\n    tag_48:\n        /* \"contracts/FundMe.sol\":1020:1062  getConversionRate(msg.value) >= minimumUSD */\n      lt\n      iszero\n        /* \"contracts/FundMe.sol\":1012:1081  require(getConversionRate(msg.value) >= minimumUSD, \"no enought ETH\") */\n      tag_19\n      jumpi\n      mload(0x40)\n      shl(0xe5, 0x461bcd)\n      dup2\n      mstore\n        /* \"#utility.yul\":2112:2114   */\n      0x20\n        /* \"contracts/FundMe.sol\":1012:1081  require(getConversionRate(msg.value) >= minimumUSD, \"no enought ETH\") */\n      0x04\n      dup3\n      add\n        /* \"#utility.yul\":2094:2115   */\n      mstore\n        /* \"#utility.yul\":2151:2153   */\n      0x0e\n        /* \"#utility.yul\":2131:2149   */\n      0x24\n      dup3\n      add\n        /* \"#utility.yul\":2124:2154   */\n      mstore\n      shl(0x93, 0x0dcde40cadcdeeaced0e8408aa89)\n        /* \"#utility.yul\":2170:2188   */\n      0x44\n      dup3\n      add\n        /* \"#utility.yul\":2163:2207   */\n      mstore\n        /* \"#utility.yul\":2224:2242   */\n      0x64\n      add\n        /* \"contracts/FundMe.sol\":1012:1081  require(getConversionRate(msg.value) >= minimumUSD, \"no enought ETH\") */\n      mload(0x40)\n      dup1\n      swap2\n      sub\n      swap1\n      revert\n        /* \"#utility.yul\":196:376   */\n    tag_23:\n        /* \"#utility.yul\":255:261   */\n      0x00\n        /* \"#utility.yul\":308:310   */\n      0x20\n        /* \"#utility.yul\":296:305   */\n      dup3\n        /* \"#utility.yul\":287:294   */\n      dup5\n        /* \"#utility.yul\":283:306   */\n      sub\n        /* \"#utility.yul\":279:311   */\n      slt\n        /* \"#utility.yul\":276:328   */\n      iszero\n      tag_57\n      jumpi\n        /* \"#utility.yul\":324:325   */\n      0x00\n        /* \"#utility.yul\":321:322   */\n      0x00\n        /* \"#utility.yul\":314:326   */\n      revert\n        /* \"#utility.yul\":276:328   */\n    tag_57:\n      pop\n        /* \"#utility.yul\":347:370   */\n      calldataload\n      swap2\n        /* \"#utility.yul\":196:376   */\n      swap1\n      pop\n      jump\t// out\n        /* \"#utility.yul\":381:508   */\n    tag_52:\n        /* \"#utility.yul\":442:452   */\n      0x4e487b71\n        /* \"#utility.yul\":437:440   */\n      0xe0\n        /* \"#utility.yul\":433:453   */\n      shl\n        /* \"#utility.yul\":430:431   */\n      0x00\n        /* \"#utility.yul\":423:454   */\n      mstore\n        /* \"#utility.yul\":473:477   */\n      0x11\n        /* \"#utility.yul\":470:471   */\n      0x04\n        /* \"#utility.yul\":463:478   */\n      mstore\n        /* \"#utility.yul\":497:501   */\n      0x24\n        /* \"#utility.yul\":494:495   */\n      0x00\n        /* \"#utility.yul\":487:502   */\n      revert\n        /* \"#utility.yul\":513:681   */\n    tag_37:\n        /* \"#utility.yul\":586:595   */\n      dup1\n      dup3\n      mul\n        /* \"#utility.yul\":617:626   */\n      dup2\n      iszero\n        /* \"#utility.yul\":634:649   */\n      dup3\n      dup3\n      div\n        /* \"#utility.yul\":628:650   */\n      dup5\n      eq\n        /* \"#utility.yul\":614:651   */\n      or\n        /* \"#utility.yul\":604:675   */\n      tag_61\n      jumpi\n        /* \"#utility.yul\":655:673   */\n      tag_61\n      tag_52\n      jump\t// in\n    tag_61:\n        /* \"#utility.yul\":513:681   */\n      swap3\n      swap2\n      pop\n      pop\n      jump\t// out\n        /* \"#utility.yul\":686:903   */\n    tag_39:\n        /* \"#utility.yul\":726:727   */\n      0x00\n        /* \"#utility.yul\":752:753   */\n      dup3\n        /* \"#utility.yul\":742:874   */\n      tag_63\n      jumpi\n        /* \"#utility.yul\":796:806   */\n      0x4e487b71\n        /* \"#utility.yul\":791:794   */\n      0xe0\n        /* \"#utility.yul\":787:807   */\n      shl\n        /* \"#utility.yul\":784:785   */\n      0x00\n        /* \"#utility.yul\":777:808   */\n      mstore\n        /* \"#utility.yul\":831:835   */\n      0x12\n        /* \"#utility.yul\":828:829   */\n      0x04\n        /* \"#utility.yul\":821:836   */\n      mstore\n        /* \"#utility.yul\":859:863   */\n      0x24\n        /* \"#utility.yul\":856:857   */\n      0x00\n        /* \"#utility.yul\":849:864   */\n      revert\n        /* \"#utility.yul\":742:874   */\n    tag_63:\n      pop\n        /* \"#utility.yul\":888:897   */\n      div\n      swap1\n        /* \"#utility.yul\":686:903   */\n      jump\t// out\n        /* \"#utility.yul\":908:1087   */\n    tag_53:\n        /* \"#utility.yul\":986:999   */\n      dup1\n      mload\n        /* \"#utility.yul\":1039:1061   */\n      0xffffffffffffffffffff\n        /* \"#utility.yul\":1028:1062   */\n      dup2\n      and\n        /* \"#utility.yul\":1018:1063   */\n      dup2\n      eq\n        /* \"#utility.yul\":1008:1081   */\n      tag_65\n      jumpi\n        /* \"#utility.yul\":1077:1078   */\n      0x00\n        /* \"#utility.yul\":1074:1075   */\n      0x00\n        /* \"#utility.yul\":1067:1079   */\n      revert\n        /* \"#utility.yul\":1008:1081   */\n    tag_65:\n        /* \"#utility.yul\":908:1087   */\n      swap2\n      swap1\n      pop\n      jump\t// out\n        /* \"#utility.yul\":1092:1663   */\n    tag_44:\n        /* \"#utility.yul\":1195:1201   */\n      0x00\n        /* \"#utility.yul\":1203:1209   */\n      0x00\n        /* \"#utility.yul\":1211:1217   */\n      0x00\n        /* \"#utility.yul\":1219:1225   */\n      0x00\n        /* \"#utility.yul\":1227:1233   */\n      0x00\n        /* \"#utility.yul\":1280:1283   */\n      0xa0\n        /* \"#utility.yul\":1268:1277   */\n      dup7\n        /* \"#utility.yul\":1259:1266   */\n      dup9\n        /* \"#utility.yul\":1255:1278   */\n      sub\n        /* \"#utility.yul\":1251:1284   */\n      slt\n        /* \"#utility.yul\":1248:1301   */\n      iszero\n      tag_67\n      jumpi\n        /* \"#utility.yul\":1297:1298   */\n      0x00\n        /* \"#utility.yul\":1294:1295   */\n      0x00\n        /* \"#utility.yul\":1287:1299   */\n      revert\n        /* \"#utility.yul\":1248:1301   */\n    tag_67:\n        /* \"#utility.yul\":1320:1359   */\n      tag_68\n        /* \"#utility.yul\":1349:1358   */\n      dup7\n        /* \"#utility.yul\":1320:1359   */\n      tag_53\n      jump\t// in\n    tag_68:\n        /* \"#utility.yul\":1399:1401   */\n      0x20\n        /* \"#utility.yul\":1384:1402   */\n      dup8\n      add\n        /* \"#utility.yul\":1378:1403   */\n      mload\n        /* \"#utility.yul\":1465:1467   */\n      0x40\n        /* \"#utility.yul\":1450:1468   */\n      dup9\n      add\n        /* \"#utility.yul\":1444:1469   */\n      mload\n        /* \"#utility.yul\":1559:1561   */\n      0x60\n        /* \"#utility.yul\":1544:1562   */\n      dup10\n      add\n        /* \"#utility.yul\":1538:1563   */\n      mload\n        /* \"#utility.yul\":1310:1359   */\n      swap3\n      swap8\n      pop\n        /* \"#utility.yul\":1378:1403   */\n      swap1\n      swap6\n      pop\n        /* \"#utility.yul\":1444:1469   */\n      swap4\n      pop\n        /* \"#utility.yul\":1538:1563   */\n      swap2\n      pop\n        /* \"#utility.yul\":1608:1657   */\n      tag_69\n        /* \"#utility.yul\":1652:1655   */\n      0x80\n        /* \"#utility.yul\":1637:1656   */\n      dup8\n      add\n        /* \"#utility.yul\":1608:1657   */\n      tag_53\n      jump\t// in\n    tag_69:\n        /* \"#utility.yul\":1598:1657   */\n      swap1\n      pop\n        /* \"#utility.yul\":1092:1663   */\n      swap3\n      swap6\n      pop\n      swap3\n      swap6\n      swap1\n      swap4\n      pop\n      jump\t// out\n        /* \"#utility.yul\":1668:1905   */\n    tag_46:\n        /* \"#utility.yul\":1740:1749   */\n      dup1\n      dup3\n      mul\n        /* \"#utility.yul\":1707:1714   */\n      0x00\n        /* \"#utility.yul\":1765:1774   */\n      dup3\n      slt\n      shl(0xff, 0x01)\n        /* \"#utility.yul\":1776:1794   */\n      dup5\n      eq\n        /* \"#utility.yul\":1761:1795   */\n      and\n        /* \"#utility.yul\":1758:1818   */\n      iszero\n      tag_72\n      jumpi\n        /* \"#utility.yul\":1798:1816   */\n      tag_72\n      tag_52\n      jump\t// in\n    tag_72:\n        /* \"#utility.yul\":1871:1872   */\n      dup2\n        /* \"#utility.yul\":1862:1869   */\n      dup2\n        /* \"#utility.yul\":1857:1873   */\n      sdiv\n        /* \"#utility.yul\":1854:1855   */\n      dup4\n        /* \"#utility.yul\":1851:1874   */\n      eq\n        /* \"#utility.yul\":1847:1848   */\n      dup3\n        /* \"#utility.yul\":1840:1849   */\n      iszero\n        /* \"#utility.yul\":1837:1875   */\n      or\n        /* \"#utility.yul\":1827:1899   */\n      tag_61\n      jumpi\n        /* \"#utility.yul\":1879:1897   */\n      tag_61\n      tag_52\n      jump\t// in\n\n    auxdata: 0xa26469706673582212205824c4461ae737af9a94c68f410872425cfe3e50784c5f033c566b8c5791627264736f6c634300081e0033\n}\n",
				"bytecode": {
					"linkReferences": {},
					"object": "608060405260055f553480156012575f5ffd5b50610332806100205f395ff3fe608060405260043610610054575f3560e01c80630d8e6e2c146100585780633430a88c146100785780633ccfd60b1461008c5780636e5b6b281461009b57806398d5fdca146100ba578063b60d4288146100ce575b5f5ffd5b348015610063575f5ffd5b505f5b60405190815260200160405180910390f35b348015610083575f5ffd5b506100665f5481565b348015610097575f5ffd5b505b005b3480156100a6575f5ffd5b506100666100b53660046101fa565b6100d8565b3480156100c5575f5ffd5b50610066610111565b6100996101ac565b565b5f5f6100e2610111565b90505f6ec097ce7bc90715b34b9f10000000006100ff8584610225565b6101099190610242565b949350505050565b5f5f73694aa1769357215de4fac081bf1f309adc32530690505f816001600160a01b031663feaf968c6040518163ffffffff1660e01b815260040160a060405180830381865afa158015610167573d5f5f3e3d5ffd5b505050506040513d601f19601f8201168201806040525081019061018b919061027f565b50505091505080670de0b6b3a76400006101a591906102cd565b9250505090565b5f546101b7346100d8565b10156100d65760405162461bcd60e51b815260206004820152600e60248201526d0dcde40cadcdeeaced0e8408aa8960931b604482015260640160405180910390fd5b5f6020828403121561020a575f5ffd5b5035919050565b634e487b7160e01b5f52601160045260245ffd5b808202811582820484141761023c5761023c610211565b92915050565b5f8261025c57634e487b7160e01b5f52601260045260245ffd5b500490565b805169ffffffffffffffffffff8116811461027a575f5ffd5b919050565b5f5f5f5f5f60a08688031215610293575f5ffd5b61029c86610261565b602087015160408801516060890151929750909550935091506102c160808701610261565b90509295509295909350565b8082025f8212600160ff1b841416156102e8576102e8610211565b818105831482151761023c5761023c61021156fea26469706673582212205824c4461ae737af9a94c68f410872425cfe3e50784c5f033c566b8c5791627264736f6c634300081e0033",
					"opcodes": "PUSH1 0x80 PUSH1 0x40 MSTORE PUSH1 0x5 PUSH0 SSTORE CALLVALUE DUP1 ISZERO PUSH1 0x12 JUMPI PUSH0 PUSH0 REVERT JUMPDEST POP PUSH2 0x332 DUP1 PUSH2 0x20 PUSH0 CODECOPY PUSH0 RETURN INVALID PUSH1 0x80 PUSH1 0x40 MSTORE PUSH1 0x4 CALLDATASIZE LT PUSH2 0x54 JUMPI PUSH0 CALLDATALOAD PUSH1 0xE0 SHR DUP1 PUSH4 0xD8E6E2C EQ PUSH2 0x58 JUMPI DUP1 PUSH4 0x3430A88C EQ PUSH2 0x78 JUMPI DUP1 PUSH4 0x3CCFD60B EQ PUSH2 0x8C JUMPI DUP1 PUSH4 0x6E5B6B28 EQ PUSH2 0x9B JUMPI DUP1 PUSH4 0x98D5FDCA EQ PUSH2 0xBA JUMPI DUP1 PUSH4 0xB60D4288 EQ PUSH2 0xCE JUMPI JUMPDEST PUSH0 PUSH0 REVERT JUMPDEST CALLVALUE DUP1 ISZERO PUSH2 0x63 JUMPI PUSH0 PUSH0 REVERT JUMPDEST POP PUSH0 JUMPDEST PUSH1 0x40 MLOAD SWAP1 DUP2 MSTORE PUSH1 0x20 ADD PUSH1 0x40 MLOAD DUP1 SWAP2 SUB SWAP1 RETURN JUMPDEST CALLVALUE DUP1 ISZERO PUSH2 0x83 JUMPI PUSH0 PUSH0 REVERT JUMPDEST POP PUSH2 0x66 PUSH0 SLOAD DUP2 JUMP JUMPDEST CALLVALUE DUP1 ISZERO PUSH2 0x97 JUMPI PUSH0 PUSH0 REVERT JUMPDEST POP JUMPDEST STOP JUMPDEST CALLVALUE DUP1 ISZERO PUSH2 0xA6 JUMPI PUSH0 PUSH0 REVERT JUMPDEST POP PUSH2 0x66 PUSH2 0xB5 CALLDATASIZE PUSH1 0x4 PUSH2 0x1FA JUMP JUMPDEST PUSH2 0xD8 JUMP JUMPDEST CALLVALUE DUP1 ISZERO PUSH2 0xC5 JUMPI PUSH0 PUSH0 REVERT JUMPDEST POP PUSH2 0x66 PUSH2 0x111 JUMP JUMPDEST PUSH2 0x99 PUSH2 0x1AC JUMP JUMPDEST JUMP JUMPDEST PUSH0 PUSH0 PUSH2 0xE2 PUSH2 0x111 JUMP JUMPDEST SWAP1 POP PUSH0 PUSH15 0xC097CE7BC90715B34B9F1000000000 PUSH2 0xFF DUP6 DUP5 PUSH2 0x225 JUMP JUMPDEST PUSH2 0x109 SWAP2 SWAP1 PUSH2 0x242 JUMP JUMPDEST SWAP5 SWAP4 POP POP POP POP JUMP JUMPDEST PUSH0 PUSH0 PUSH20 0x694AA1769357215DE4FAC081BF1F309ADC325306 SWAP1 POP PUSH0 DUP2 PUSH1 0x1 PUSH1 0x1 PUSH1 0xA0 SHL SUB AND PUSH4 0xFEAF968C PUSH1 0x40 MLOAD DUP2 PUSH4 0xFFFFFFFF AND PUSH1 0xE0 SHL DUP2 MSTORE PUSH1 0x4 ADD PUSH1 0xA0 PUSH1 0x40 MLOAD DUP1 DUP4 SUB DUP2 DUP7 GAS STATICCALL ISZERO DUP1 ISZERO PUSH2 0x167 JUMPI RETURNDATASIZE PUSH0 PUSH0 RETURNDATACOPY RETURNDATASIZE PUSH0 REVERT JUMPDEST POP POP POP POP PUSH1 0x40 MLOAD RETURNDATASIZE PUSH1 0x1F NOT PUSH1 0x1F DUP3 ADD AND DUP3 ADD DUP1 PUSH1 0x40 MSTORE POP DUP2 ADD SWAP1 PUSH2 0x18B SWAP2 SWAP1 PUSH2 0x27F JUMP JUMPDEST POP POP POP SWAP2 POP POP DUP1 PUSH8 0xDE0B6B3A7640000 PUSH2 0x1A5 SWAP2 SWAP1 PUSH2 0x2CD JUMP JUMPDEST SWAP3 POP POP POP SWAP1 JUMP JUMPDEST PUSH0 SLOAD PUSH2 0x1B7 CALLVALUE PUSH2 0xD8 JUMP JUMPDEST LT ISZERO PUSH2 0xD6 JUMPI PUSH1 0x40 MLOAD PUSH3 0x461BCD PUSH1 0xE5 SHL DUP2 MSTORE PUSH1 0x20 PUSH1 0x4 DUP3 ADD MSTORE PUSH1 0xE PUSH1 0x24 DUP3 ADD MSTORE PUSH14 0xDCDE40CADCDEEACED0E8408AA89 PUSH1 0x93 SHL PUSH1 0x44 DUP3 ADD MSTORE PUSH1 0x64 ADD PUSH1 0x40 MLOAD DUP1 SWAP2 SUB SWAP1 REVERT JUMPDEST PUSH0 PUSH1 0x20 DUP3 DUP5 SUB SLT ISZERO PUSH2 0x20A JUMPI PUSH0 PUSH0 REVERT JUMPDEST POP CALLDATALOAD SWAP2 SWAP1 POP JUMP JUMPDEST PUSH4 0x4E487B71 PUSH1 0xE0 SHL PUSH0 MSTORE PUSH1 0x11 PUSH1 0x4 MSTORE PUSH1 0x24 PUSH0 REVERT JUMPDEST DUP1 DUP3 MUL DUP2 ISZERO DUP3 DUP3 DIV DUP5 EQ OR PUSH2 0x23C JUMPI PUSH2 0x23C PUSH2 0x211 JUMP JUMPDEST SWAP3 SWAP2 POP POP JUMP JUMPDEST PUSH0 DUP3 PUSH2 0x25C JUMPI PUSH4 0x4E487B71 PUSH1 0xE0 SHL PUSH0 MSTORE PUSH1 0x12 PUSH1 0x4 MSTORE PUSH1 0x24 PUSH0 REVERT JUMPDEST POP DIV SWAP1 JUMP JUMPDEST DUP1 MLOAD PUSH10 0xFFFFFFFFFFFFFFFFFFFF DUP2 AND DUP2 EQ PUSH2 0x27A JUMPI PUSH0 PUSH0 REVERT JUMPDEST SWAP2 SWAP1 POP JUMP JUMPDEST PUSH0 PUSH0 PUSH0 PUSH0 PUSH0 PUSH1 0xA0 DUP7 DUP9 SUB SLT ISZERO PUSH2 0x293 JUMPI PUSH0 PUSH0 REVERT JUMPDEST PUSH2 0x29C DUP7 PUSH2 0x261 JUMP JUMPDEST PUSH1 0x20 DUP8 ADD MLOAD PUSH1 0x40 DUP9 ADD MLOAD PUSH1 0x60 DUP10 ADD MLOAD SWAP3 SWAP8 POP SWAP1 SWAP6 POP SWAP4 POP SWAP2 POP PUSH2 0x2C1 PUSH1 0x80 DUP8 ADD PUSH2 0x261 JUMP JUMPDEST SWAP1 POP SWAP3 SWAP6 POP SWAP3 SWAP6 SWAP1 SWAP4 POP JUMP JUMPDEST DUP1 DUP3 MUL PUSH0 DUP3 SLT PUSH1 0x1 PUSH1 0xFF SHL DUP5 EQ AND ISZERO PUSH2 0x2E8 JUMPI PUSH2 0x2E8 PUSH2 0x211 JUMP JUMPDEST DUP2 DUP2 SDIV DUP4 EQ DUP3 ISZERO OR PUSH2 0x23C JUMPI PUSH2 0x23C PUSH2 0x211 JUMP INVALID LOG2 PUSH5 0x6970667358 0x22 SLT KECCAK256 PC 0x24 0xC4 CHAINID BYTE SWAPN 0x37 0xAF SWAP11 SWAP5 0xC6 DUP16 COINBASE ADDMOD PUSH19 0x425CFE3E50784C5F033C566B8C579162726473 PUSH16 0x6C634300081E00330000000000000000 "
				},
				"gasEstimates": {
					"creation": {
						"codeDepositCost": "163600",
						"executionCost": "22311",
						"totalCost": "185911"
					},
					"external": {
						"fund()": "infinite",
						"getConversionRate(uint256)": "infinite",
						"getPrice()": "infinite",
						"getVersion()": "145",
						"minimumUSD()": "2281",
						"withdraw()": "142"
					}
				},
				"methodIdentifiers": {
					"fund()": "b60d4288",
					"getConversionRate(uint256)": "6e5b6b28",
					"getPrice()": "98d5fdca",
					"getVersion()": "0d8e6e2c",
					"minimumUSD()": "3430a88c",
					"withdraw()": "3ccfd60b"
				}
			},
			"storageLayout": {
				"storage": [
					{
						"astId": 52,
						"contract": "contracts/FundMe.sol:FundMe",
						"label": "minimumUSD",
						"offset": 0,
						"slot": "0",
						"type": "t_uint256"
					}
				],
				"types": {
					"t_uint256": {
						"encoding": "inplace",
						"label": "uint256",
						"numberOfBytes": "32"
					}
				}
			},
			"userdoc": {
				"kind": "user",
				"methods": {},
				"version": 1
			}
		}
	}
}