{
	"contracts/DataConsumerV3.sol": {
		"DataConsumerV3": {
			"abi": [
				{
					"inputs": [],
					"stateMutability": "nonpayable",
					"type": "constructor"
				},
				{
					"inputs": [],
					"name": "getChainlinkDataFeedLatestAnswer",
					"outputs": [
						{
							"internalType": "int256",
							"name": "",
							"type": "int256"
						}
					],
					"stateMutability": "view",
					"type": "function"
				}
			],
			"devdoc": {
				"kind": "dev",
				"methods": {},
				"version": 1
			},
			"evm": {
				"assembly": "    /* \"contracts/DataConsumerV3.sol\":672:1363  contract DataConsumerV3 {... */\n  mstore(0x40, 0x80)\n    /* \"contracts/DataConsumerV3.sol\":868:971  constructor() {... */\n  callvalue\n  dup1\n  iszero\n  tag_1\n  jumpi\n  revert(0x00, 0x00)\ntag_1:\n  pop\n    /* \"contracts/DataConsumerV3.sol\":889:897  dataFeed */\n  0x00\n    /* \"contracts/DataConsumerV3.sol\":889:965  dataFeed = AggregatorV3Interface(0x1b44F3514812d835EB1BDB0acB33d3fA3351Ee43) */\n  dup1\n  sload\n  not(sub(shl(0xa0, 0x01), 0x01))\n  and\n    /* \"contracts/DataConsumerV3.sol\":922:964  0x1b44F3514812d835EB1BDB0acB33d3fA3351Ee43 */\n  0x1b44f3514812d835eb1bdb0acb33d3fa3351ee43\n    /* \"contracts/DataConsumerV3.sol\":889:965  dataFeed = AggregatorV3Interface(0x1b44F3514812d835EB1BDB0acB33d3fA3351Ee43) */\n  or\n  swap1\n  sstore\n    /* \"contracts/DataConsumerV3.sol\":672:1363  contract DataConsumerV3 {... */\n  dataSize(sub_0)\n  dup1\n  dataOffset(sub_0)\n  0x00\n  codecopy\n  0x00\n  return\nstop\n\nsub_0: assembly {\n        /* \"contracts/DataConsumerV3.sol\":672:1363  contract DataConsumerV3 {... */\n      mstore(0x40, 0x80)\n      callvalue\n      dup1\n      iszero\n      tag_1\n      jumpi\n      revert(0x00, 0x00)\n    tag_1:\n      pop\n      jumpi(tag_2, lt(calldatasize, 0x04))\n      shr(0xe0, calldataload(0x00))\n      dup1\n      0xbea4dfb5\n      eq\n      tag_3\n      jumpi\n    tag_2:\n      revert(0x00, 0x00)\n        /* \"contracts/DataConsumerV3.sol\":1024:1360  function getChainlinkDataFeedLatestAnswer() public view returns (int256) {... */\n    tag_3:\n      tag_4\n      tag_5\n      jump\t// in\n    tag_4:\n      mload(0x40)\n        /* \"#utility.yul\":158:183   */\n      swap1\n      dup2\n      mstore\n        /* \"#utility.yul\":146:148   */\n      0x20\n        /* \"#utility.yul\":131:149   */\n      add\n        /* \"contracts/DataConsumerV3.sol\":1024:1360  function getChainlinkDataFeedLatestAnswer() public view returns (int256) {... */\n      mload(0x40)\n      dup1\n      swap2\n      sub\n      swap1\n      return\n    tag_5:\n        /* \"contracts/DataConsumerV3.sol\":1089:1095  int256 */\n      0x00\n        /* \"contracts/DataConsumerV3.sol\":1308:1316  dataFeed */\n      dup1\n      sload\n        /* \"contracts/DataConsumerV3.sol\":1308:1334  dataFeed.latestRoundData() */\n      0x40\n      dup1\n      mload\n      shl(0xe2, 0x3fabe5a3)\n      dup2\n      mstore\n      swap1\n      mload\n        /* \"contracts/DataConsumerV3.sol\":1089:1095  int256 */\n      dup4\n      swap3\n      sub(shl(0xa0, 0x01), 0x01)\n        /* \"contracts/DataConsumerV3.sol\":1308:1316  dataFeed */\n      and\n      swap2\n        /* \"contracts/DataConsumerV3.sol\":1308:1332  dataFeed.latestRoundData */\n      0xfeaf968c\n      swap2\n        /* \"contracts/DataConsumerV3.sol\":1308:1334  dataFeed.latestRoundData() */\n      0x04\n      dup1\n      dup4\n      add\n      swap3\n      0xa0\n      swap3\n      swap2\n      swap1\n      dup3\n      swap1\n      sub\n      add\n      dup2\n        /* \"contracts/DataConsumerV3.sol\":1308:1316  dataFeed */\n      dup7\n        /* \"contracts/DataConsumerV3.sol\":1308:1334  dataFeed.latestRoundData() */\n      gas\n      staticcall\n      iszero\n      dup1\n      iszero\n      tag_10\n      jumpi\n      returndatacopy(0x00, 0x00, returndatasize)\n      revert(0x00, returndatasize)\n    tag_10:\n      pop\n      pop\n      pop\n      pop\n      mload(0x40)\n      returndatasize\n      not(0x1f)\n      0x1f\n      dup3\n      add\n      and\n      dup3\n      add\n      dup1\n      0x40\n      mstore\n      pop\n      dup2\n      add\n      swap1\n      tag_11\n      swap2\n      swap1\n      tag_12\n      jump\t// in\n    tag_11:\n      pop\n        /* \"contracts/DataConsumerV3.sol\":1128:1334  (... */\n      swap2\n      swap6\n        /* \"contracts/DataConsumerV3.sol\":1024:1360  function getChainlinkDataFeedLatestAnswer() public view returns (int256) {... */\n      swap5\n      pop\n      pop\n      pop\n      pop\n      pop\n      jump\t// out\n        /* \"#utility.yul\":194:373   */\n    tag_13:\n        /* \"#utility.yul\":272:285   */\n      dup1\n      mload\n        /* \"#utility.yul\":325:347   */\n      0xffffffffffffffffffff\n        /* \"#utility.yul\":314:348   */\n      dup2\n      and\n        /* \"#utility.yul\":304:349   */\n      dup2\n      eq\n        /* \"#utility.yul\":294:367   */\n      tag_17\n      jumpi\n        /* \"#utility.yul\":363:364   */\n      0x00\n        /* \"#utility.yul\":360:361   */\n      0x00\n        /* \"#utility.yul\":353:365   */\n      revert\n        /* \"#utility.yul\":294:367   */\n    tag_17:\n        /* \"#utility.yul\":194:373   */\n      swap2\n      swap1\n      pop\n      jump\t// out\n        /* \"#utility.yul\":378:949   */\n    tag_12:\n        /* \"#utility.yul\":481:487   */\n      0x00\n        /* \"#utility.yul\":489:495   */\n      0x00\n        /* \"#utility.yul\":497:503   */\n      0x00\n        /* \"#utility.yul\":505:511   */\n      0x00\n        /* \"#utility.yul\":513:519   */\n      0x00\n        /* \"#utility.yul\":566:569   */\n      0xa0\n        /* \"#utility.yul\":554:563   */\n      dup7\n        /* \"#utility.yul\":545:552   */\n      dup9\n        /* \"#utility.yul\":541:564   */\n      sub\n        /* \"#utility.yul\":537:570   */\n      slt\n        /* \"#utility.yul\":534:587   */\n      iszero\n      tag_19\n      jumpi\n        /* \"#utility.yul\":583:584   */\n      0x00\n        /* \"#utility.yul\":580:581   */\n      0x00\n        /* \"#utility.yul\":573:585   */\n      revert\n        /* \"#utility.yul\":534:587   */\n    tag_19:\n        /* \"#utility.yul\":606:645   */\n      tag_20\n        /* \"#utility.yul\":635:644   */\n      dup7\n        /* \"#utility.yul\":606:645   */\n      tag_13\n      jump\t// in\n    tag_20:\n        /* \"#utility.yul\":685:687   */\n      0x20\n        /* \"#utility.yul\":670:688   */\n      dup8\n      add\n        /* \"#utility.yul\":664:689   */\n      mload\n        /* \"#utility.yul\":751:753   */\n      0x40\n        /* \"#utility.yul\":736:754   */\n      dup9\n      add\n        /* \"#utility.yul\":730:755   */\n      mload\n        /* \"#utility.yul\":845:847   */\n      0x60\n        /* \"#utility.yul\":830:848   */\n      dup10\n      add\n        /* \"#utility.yul\":824:849   */\n      mload\n        /* \"#utility.yul\":596:645   */\n      swap3\n      swap8\n      pop\n        /* \"#utility.yul\":664:689   */\n      swap1\n      swap6\n      pop\n        /* \"#utility.yul\":730:755   */\n      swap4\n      pop\n        /* \"#utility.yul\":824:849   */\n      swap2\n      pop\n        /* \"#utility.yul\":894:943   */\n      tag_21\n        /* \"#utility.yul\":938:941   */\n      0x80\n        /* \"#utility.yul\":923:942   */\n      dup8\n      add\n        /* \"#utility.yul\":894:943   */\n      tag_13\n      jump\t// in\n    tag_21:\n        /* \"#utility.yul\":884:943   */\n      swap1\n      pop\n        /* \"#utility.yul\":378:949   */\n      swap3\n      swap6\n      pop\n      swap3\n      swap6\n      swap1\n      swap4\n      pop\n      jump\t// out\n\n    auxdata: 0xa2646970667358221220ebeb17a0be1b92ba73323fd781c92338da7529d546c60f9b0a2ac5b831d6a7ec64736f6c634300081e0033\n}\n",
				"bytecode": {
					"linkReferences": {},
					"object": "6080604052348015600e575f5ffd5b505f80546001600160a01b031916731b44f3514812d835eb1bdb0acb33d3fa3351ee4317905561015f806100415f395ff3fe608060405234801561000f575f5ffd5b5060043610610029575f3560e01c8063bea4dfb51461002d575b5f5ffd5b610035610047565b60405190815260200160405180910390f35b5f805460408051633fabe5a360e21b8152905183926001600160a01b03169163feaf968c9160048083019260a09291908290030181865afa15801561008e573d5f5f3e3d5ffd5b505050506040513d601f19601f820116820180604052508101906100b291906100db565b509195945050505050565b805169ffffffffffffffffffff811681146100d6575f5ffd5b919050565b5f5f5f5f5f60a086880312156100ef575f5ffd5b6100f8866100bd565b6020870151604088015160608901519297509095509350915061011d608087016100bd565b9050929550929590935056fea2646970667358221220ebeb17a0be1b92ba73323fd781c92338da7529d546c60f9b0a2ac5b831d6a7ec64736f6c634300081e0033",
					"opcodes": "PUSH1 0x80 PUSH1 0x40 MSTORE CALLVALUE DUP1 ISZERO PUSH1 0xE JUMPI PUSH0 PUSH0 REVERT JUMPDEST POP PUSH0 DUP1 SLOAD PUSH1 0x1 PUSH1 0x1 PUSH1 0xA0 SHL SUB NOT AND PUSH20 0x1B44F3514812D835EB1BDB0ACB33D3FA3351EE43 OR SWAP1 SSTORE PUSH2 0x15F DUP1 PUSH2 0x41 PUSH0 CODECOPY PUSH0 RETURN INVALID PUSH1 0x80 PUSH1 0x40 MSTORE CALLVALUE DUP1 ISZERO PUSH2 0xF JUMPI PUSH0 PUSH0 REVERT JUMPDEST POP PUSH1 0x4 CALLDATASIZE LT PUSH2 0x29 JUMPI PUSH0 CALLDATALOAD PUSH1 0xE0 SHR DUP1 PUSH4 0xBEA4DFB5 EQ PUSH2 0x2D JUMPI JUMPDEST PUSH0 PUSH0 REVERT JUMPDEST PUSH2 0x35 PUSH2 0x47 JUMP JUMPDEST PUSH1 0x40 MLOAD SWAP1 DUP2 MSTORE PUSH1 0x20 ADD PUSH1 0x40 MLOAD DUP1 SWAP2 SUB SWAP1 RETURN JUMPDEST PUSH0 DUP1 SLOAD PUSH1 0x40 DUP1 MLOAD PUSH4 0x3FABE5A3 PUSH1 0xE2 SHL DUP2 MSTORE SWAP1 MLOAD DUP4 SWAP3 PUSH1 0x1 PUSH1 0x1 PUSH1 0xA0 SHL SUB AND SWAP2 PUSH4 0xFEAF968C SWAP2 PUSH1 0x4 DUP1 DUP4 ADD SWAP3 PUSH1 0xA0 SWAP3 SWAP2 SWAP1 DUP3 SWAP1 SUB ADD DUP2 DUP7 GAS STATICCALL ISZERO DUP1 ISZERO PUSH2 0x8E JUMPI RETURNDATASIZE PUSH0 PUSH0 RETURNDATACOPY RETURNDATASIZE PUSH0 REVERT JUMPDEST POP POP POP POP PUSH1 0x40 MLOAD RETURNDATASIZE PUSH1 0x1F NOT PUSH1 0x1F DUP3 ADD AND DUP3 ADD DUP1 PUSH1 0x40 MSTORE POP DUP2 ADD SWAP1 PUSH2 0xB2 SWAP2 SWAP1 PUSH2 0xDB JUMP JUMPDEST POP SWAP2 SWAP6 SWAP5 POP POP POP POP POP JUMP JUMPDEST DUP1 MLOAD PUSH10 0xFFFFFFFFFFFFFFFFFFFF DUP2 AND DUP2 EQ PUSH2 0xD6 JUMPI PUSH0 PUSH0 REVERT JUMPDEST SWAP2 SWAP1 POP JUMP JUMPDEST PUSH0 PUSH0 PUSH0 PUSH0 PUSH0 PUSH1 0xA0 DUP7 DUP9 SUB SLT ISZERO PUSH2 0xEF JUMPI PUSH0 PUSH0 REVERT JUMPDEST PUSH2 0xF8 DUP7 PUSH2 0xBD JUMP JUMPDEST PUSH1 0x20 DUP8 ADD MLOAD PUSH1 0x40 DUP9 ADD MLOAD PUSH1 0x60 DUP10 ADD MLOAD SWAP3 SWAP8 POP SWAP1 SWAP6 POP SWAP4 POP SWAP2 POP PUSH2 0x11D PUSH1 0x80 DUP8 ADD PUSH2 0xBD JUMP JUMPDEST SWAP1 POP SWAP3 SWAP6 POP SWAP3 SWAP6 SWAP1 SWAP4 POP JUMP INVALID LOG2 PUSH5 0x6970667358 0x22 SLT KECCAK256 0xEB 0xEB OR LOG0 0xBE SHL SWAP3 0xBA PUSH20 0x323FD781C92338DA7529D546C60F9B0A2AC5B831 0xD6 0xA7 EOFCREATE 0x64 PUSH20 0x6F6C634300081E00330000000000000000000000 "
				},
				"gasEstimates": {
					"creation": {
						"codeDepositCost": "70200",
						"executionCost": "24350",
						"totalCost": "94550"
					},
					"external": {
						"getChainlinkDataFeedLatestAnswer()": "infinite"
					}
				},
				"methodIdentifiers": {
					"getChainlinkDataFeedLatestAnswer()": "bea4dfb5"
				}
			},
			"storageLayout": {
				"storage": [
					{
						"astId": 53,
						"contract": "contracts/DataConsumerV3.sol:DataConsumerV3",
						"label": "dataFeed",
						"offset": 0,
						"slot": "0",
						"type": "t_contract(AggregatorV3Interface)45"
					}
				],
				"types": {
					"t_contract(AggregatorV3Interface)45": {
						"encoding": "inplace",
						"label": "contract AggregatorV3Interface",
						"numberOfBytes": "20"
					}
				}
			},
			"userdoc": {
				"kind": "user",
				"methods": {
					"constructor": {
						"notice": "Network: Sepolia Aggregator: BTC/USD Address: 0x1b44F3514812d835EB1BDB0acB33d3fA3351Ee43"
					},
					"getChainlinkDataFeedLatestAnswer()": {
						"notice": "Returns the latest answer."
					}
				},
				"notice": "If you are reading data feeds on L2 networks, you must check the latest answer from the L2 Sequencer Uptime Feed to ensure that the data is accurate in the event of an L2 sequencer outage. See the https://docs.chain.link/data-feeds/l2-sequencer-feeds page for details.",
				"version": 1
			}
		}
	}
}