{
	"contracts/FundMe.sol": {
		"FundMe": {
			"abi": [
				{
					"inputs": [],
					"name": "fund",
					"outputs": [],
					"stateMutability": "payable",
					"type": "function"
				},
				{
					"inputs": [],
					"name": "withdraw",
					"outputs": [],
					"stateMutability": "nonpayable",
					"type": "function"
				}
			],
			"devdoc": {
				"kind": "dev",
				"methods": {},
				"version": 1
			},
			"evm": {
				"assembly": "    /* \"contracts/FundMe.sol\":236:931  contract FundMe  {... */\n  mstore(0x40, 0x80)\n  callvalue\n  dup1\n  iszero\n  tag_1\n  jumpi\n  revert(0x00, 0x00)\ntag_1:\n  pop\n  dataSize(sub_0)\n  dup1\n  dataOffset(sub_0)\n  0x00\n  codecopy\n  0x00\n  return\nstop\n\nsub_0: assembly {\n        /* \"contracts/FundMe.sol\":236:931  contract FundMe  {... */\n      mstore(0x40, 0x80)\n      jumpi(tag_1, lt(calldatasize, 0x04))\n      shr(0xe0, calldataload(0x00))\n      dup1\n      0x3ccfd60b\n      eq\n      tag_2\n      jumpi\n      dup1\n      0xb60d4288\n      eq\n      tag_3\n      jumpi\n    tag_1:\n      revert(0x00, 0x00)\n        /* \"contracts/FundMe.sol\":887:916  function withdraw() public {} */\n    tag_2:\n      callvalue\n      dup1\n      iszero\n      tag_4\n      jumpi\n      revert(0x00, 0x00)\n    tag_4:\n      pop\n    tag_5:\n      stop\n        /* \"contracts/FundMe.sol\":614:822  function fund() public payable  {... */\n    tag_3:\n      tag_5\n      tag_8\n      jump\t// in\n        /* \"contracts/FundMe.sol\":887:916  function withdraw() public {} */\n    tag_6:\n      jump\t// out\n        /* \"contracts/FundMe.sol\":614:822  function fund() public payable  {... */\n    tag_8:\n        /* \"contracts/FundMe.sol\":765:769  1e18 */\n      0x0de0b6b3a7640000\n        /* \"contracts/FundMe.sol\":752:761  msg.value */\n      callvalue\n        /* \"contracts/FundMe.sol\":752:769  msg.value >= 1e18 */\n      lt\n      iszero\n        /* \"contracts/FundMe.sol\":744:788  require(msg.value >= 1e18, \"no enought ETH\") */\n      tag_6\n      jumpi\n      mload(0x40)\n      shl(0xe5, 0x461bcd)\n      dup2\n      mstore\n        /* \"#utility.yul\":216:218   */\n      0x20\n        /* \"contracts/FundMe.sol\":744:788  require(msg.value >= 1e18, \"no enought ETH\") */\n      0x04\n      dup3\n      add\n        /* \"#utility.yul\":198:219   */\n      mstore\n        /* \"#utility.yul\":255:257   */\n      0x0e\n        /* \"#utility.yul\":235:253   */\n      0x24\n      dup3\n      add\n        /* \"#utility.yul\":228:258   */\n      mstore\n      shl(0x93, 0x0dcde40cadcdeeaced0e8408aa89)\n        /* \"#utility.yul\":274:292   */\n      0x44\n      dup3\n      add\n        /* \"#utility.yul\":267:311   */\n      mstore\n        /* \"#utility.yul\":328:346   */\n      0x64\n      add\n        /* \"contracts/FundMe.sol\":744:788  require(msg.value >= 1e18, \"no enought ETH\") */\n      mload(0x40)\n      dup1\n      swap2\n      sub\n      swap1\n      revert\n\n    auxdata: 0xa26469706673582212208388d3166f9766459ecc5a974f7a81ad9c2be758de8822d53532654d49d161ab64736f6c634300081e0033\n}\n",
				"bytecode": {
					"linkReferences": {},
					"object": "6080604052348015600e575f5ffd5b5060c180601a5f395ff3fe6080604052600436106025575f3560e01c80633ccfd60b146029578063b60d4288146037575b5f5ffd5b3480156033575f5ffd5b505b005b6035603f565b565b670de0b6b3a7640000341015603d5760405162461bcd60e51b815260206004820152600e60248201526d0dcde40cadcdeeaced0e8408aa8960931b604482015260640160405180910390fdfea26469706673582212208388d3166f9766459ecc5a974f7a81ad9c2be758de8822d53532654d49d161ab64736f6c634300081e0033",
					"opcodes": "PUSH1 0x80 PUSH1 0x40 MSTORE CALLVALUE DUP1 ISZERO PUSH1 0xE JUMPI PUSH0 PUSH0 REVERT JUMPDEST POP PUSH1 0xC1 DUP1 PUSH1 0x1A PUSH0 CODECOPY PUSH0 RETURN INVALID PUSH1 0x80 PUSH1 0x40 MSTORE PUSH1 0x4 CALLDATASIZE LT PUSH1 0x25 JUMPI PUSH0 CALLDATALOAD PUSH1 0xE0 SHR DUP1 PUSH4 0x3CCFD60B EQ PUSH1 0x29 JUMPI DUP1 PUSH4 0xB60D4288 EQ PUSH1 0x37 JUMPI JUMPDEST PUSH0 PUSH0 REVERT JUMPDEST CALLVALUE DUP1 ISZERO PUSH1 0x33 JUMPI PUSH0 PUSH0 REVERT JUMPDEST POP JUMPDEST STOP JUMPDEST PUSH1 0x35 PUSH1 0x3F JUMP JUMPDEST JUMP JUMPDEST PUSH8 0xDE0B6B3A7640000 CALLVALUE LT ISZERO PUSH1 0x3D JUMPI PUSH1 0x40 MLOAD PUSH3 0x461BCD PUSH1 0xE5 SHL DUP2 MSTORE PUSH1 0x20 PUSH1 0x4 DUP3 ADD MSTORE PUSH1 0xE PUSH1 0x24 DUP3 ADD MSTORE PUSH14 0xDCDE40CADCDEEACED0E8408AA89 PUSH1 0x93 SHL PUSH1 0x44 DUP3 ADD MSTORE PUSH1 0x64 ADD PUSH1 0x40 MLOAD DUP1 SWAP2 SUB SWAP1 REVERT INVALID LOG2 PUSH5 0x6970667358 0x22 SLT KECCAK256 DUP4 DUP9 0xD3 AND PUSH16 0x9766459ECC5A974F7A81AD9C2BE758DE DUP9 0x22 0xD5 CALLDATALOAD ORIGIN PUSH6 0x4D49D161AB64 PUSH20 0x6F6C634300081E00330000000000000000000000 "
				},
				"gasEstimates": {
					"creation": {
						"codeDepositCost": "38600",
						"executionCost": "91",
						"totalCost": "38691"
					},
					"external": {
						"fund()": "245",
						"withdraw()": "98"
					}
				},
				"methodIdentifiers": {
					"fund()": "b60d4288",
					"withdraw()": "3ccfd60b"
				}
			},
			"storageLayout": {
				"storage": [],
				"types": null
			},
			"userdoc": {
				"kind": "user",
				"methods": {},
				"version": 1
			}
		}
	}
}