{
	"contracts/FundMe.sol": {
		"FundMe": {
			"abi": [
				{
					"inputs": [],
					"name": "fund",
					"outputs": [],
					"stateMutability": "payable",
					"type": "function"
				},
				{
					"inputs": [],
					"name": "getConversionRate",
					"outputs": [],
					"stateMutability": "nonpayable",
					"type": "function"
				},
				{
					"inputs": [],
					"name": "getPrice",
					"outputs": [
						{
							"internalType": "int256",
							"name": "",
							"type": "int256"
						}
					],
					"stateMutability": "view",
					"type": "function"
				},
				{
					"inputs": [],
					"name": "getVersion",
					"outputs": [
						{
							"internalType": "uint256",
							"name": "",
							"type": "uint256"
						}
					],
					"stateMutability": "view",
					"type": "function"
				},
				{
					"inputs": [],
					"name": "minimumUSD",
					"outputs": [
						{
							"internalType": "uint256",
							"name": "",
							"type": "uint256"
						}
					],
					"stateMutability": "view",
					"type": "function"
				},
				{
					"inputs": [],
					"name": "withdraw",
					"outputs": [],
					"stateMutability": "nonpayable",
					"type": "function"
				}
			],
			"devdoc": {
				"kind": "dev",
				"methods": {},
				"version": 1
			},
			"evm": {
				"assembly": "    /* \"contracts/FundMe.sol\":352:2141  contract FundMe  {... */\n  mstore(0x40, 0x80)\n    /* \"contracts/FundMe.sol\":522:523  5 */\n  0x05\n    /* \"contracts/FundMe.sol\":494:523  uint256 public minimumUSD = 5 */\n  0x00\n  sstore\n    /* \"contracts/FundMe.sol\":352:2141  contract FundMe  {... */\n  callvalue\n  dup1\n  iszero\n  tag_1\n  jumpi\n  revert(0x00, 0x00)\ntag_1:\n  pop\n  dataSize(sub_0)\n  dup1\n  dataOffset(sub_0)\n  0x00\n  codecopy\n  0x00\n  return\nstop\n\nsub_0: assembly {\n        /* \"contracts/FundMe.sol\":352:2141  contract FundMe  {... */\n      mstore(0x40, 0x80)\n      jumpi(tag_1, lt(calldatasize, 0x04))\n      shr(0xe0, calldataload(0x00))\n      dup1\n      0x0d8e6e2c\n      eq\n      tag_2\n      jumpi\n      dup1\n      0x3430a88c\n      eq\n      tag_3\n      jumpi\n      dup1\n      0x3ccfd60b\n      eq\n      tag_4\n      jumpi\n      dup1\n      0x98d5fdca\n      eq\n      tag_5\n      jumpi\n      dup1\n      0xb60d4288\n      eq\n      tag_6\n      jumpi\n      dup1\n      0xf36089ec\n      eq\n      tag_4\n      jumpi\n    tag_1:\n      revert(0x00, 0x00)\n        /* \"contracts/FundMe.sol\":1973:2126  function getVersion() public view returns (uint256){... */\n    tag_2:\n      callvalue\n      dup1\n      iszero\n      tag_8\n      jumpi\n      revert(0x00, 0x00)\n    tag_8:\n      pop\n        /* \"contracts/FundMe.sol\":2016:2023  uint256 */\n      0x00\n        /* \"contracts/FundMe.sol\":1973:2126  function getVersion() public view returns (uint256){... */\n    tag_9:\n      mload(0x40)\n        /* \"#utility.yul\":160:185   */\n      swap1\n      dup2\n      mstore\n        /* \"#utility.yul\":148:150   */\n      0x20\n        /* \"#utility.yul\":133:151   */\n      add\n        /* \"contracts/FundMe.sol\":1973:2126  function getVersion() public view returns (uint256){... */\n      mload(0x40)\n      dup1\n      swap2\n      sub\n      swap1\n      return\n        /* \"contracts/FundMe.sol\":494:523  uint256 public minimumUSD = 5 */\n    tag_3:\n      callvalue\n      dup1\n      iszero\n      tag_13\n      jumpi\n      revert(0x00, 0x00)\n    tag_13:\n      pop\n      tag_9\n      sload(0x00)\n      dup2\n      jump\n        /* \"contracts/FundMe.sol\":1936:1965  function withdraw() public {} */\n    tag_4:\n      callvalue\n      dup1\n      iszero\n      tag_17\n      jumpi\n      revert(0x00, 0x00)\n    tag_17:\n      pop\n    tag_18:\n      stop\n        /* \"contracts/FundMe.sol\":1215:1723  function getPrice() public view returns(int256) {... */\n    tag_5:\n      callvalue\n      dup1\n      iszero\n      tag_20\n      jumpi\n      revert(0x00, 0x00)\n    tag_20:\n      pop\n      tag_9\n      tag_22\n      jump\t// in\n        /* \"contracts/FundMe.sol\":861:1069  function fund() public payable  {... */\n    tag_6:\n      tag_18\n      tag_26\n      jump\t// in\n        /* \"contracts/FundMe.sol\":1936:1965  function withdraw() public {} */\n    tag_19:\n      jump\t// out\n        /* \"contracts/FundMe.sol\":1215:1723  function getPrice() public view returns(int256) {... */\n    tag_22:\n        /* \"contracts/FundMe.sol\":1255:1261  int256 */\n      0x00\n        /* \"contracts/FundMe.sol\":1338:1368  AggregatorV3Interface dataFeed */\n      0x00\n        /* \"contracts/FundMe.sol\":1403:1445  0x694AA1769357215DE4FAC081bf1f309aDC325306 */\n      0x694aa1769357215de4fac081bf1f309adc325306\n        /* \"contracts/FundMe.sol\":1338:1446  AggregatorV3Interface dataFeed = AggregatorV3Interface... */\n      swap1\n      pop\n        /* \"contracts/FundMe.sol\":1458:1471  int256 answer */\n      0x00\n        /* \"contracts/FundMe.sol\":1478:1486  dataFeed */\n      dup2\n      sub(shl(0xa0, 0x01), 0x01)\n        /* \"contracts/FundMe.sol\":1478:1502  dataFeed.latestRoundData */\n      and\n      0xfeaf968c\n        /* \"contracts/FundMe.sol\":1478:1504  dataFeed.latestRoundData() */\n      mload(0x40)\n      dup2\n      0xffffffff\n      and\n      0xe0\n      shl\n      dup2\n      mstore\n      0x04\n      add\n      0xa0\n      mload(0x40)\n      dup1\n      dup4\n      sub\n      dup2\n      dup7\n      gas\n      staticcall\n      iszero\n      dup1\n      iszero\n      tag_34\n      jumpi\n      returndatacopy(0x00, 0x00, returndatasize)\n      revert(0x00, returndatasize)\n    tag_34:\n      pop\n      pop\n      pop\n      pop\n      mload(0x40)\n      returndatasize\n      not(0x1f)\n      0x1f\n      dup3\n      add\n      and\n      dup3\n      add\n      dup1\n      0x40\n      mstore\n      pop\n      dup2\n      add\n      swap1\n      tag_35\n      swap2\n      swap1\n      tag_36\n      jump\t// in\n    tag_35:\n      pop\n        /* \"contracts/FundMe.sol\":1456:1504  (,int256 answer,,,) = dataFeed.latestRoundData() */\n      swap2\n      swap7\n        /* \"contracts/FundMe.sol\":1215:1723  function getPrice() public view returns(int256) {... */\n      swap6\n      pop\n      pop\n      pop\n      pop\n      pop\n      pop\n      jump\t// out\n        /* \"contracts/FundMe.sol\":861:1069  function fund() public payable  {... */\n    tag_26:\n        /* \"contracts/FundMe.sol\":1012:1016  1e18 */\n      0x0de0b6b3a7640000\n        /* \"contracts/FundMe.sol\":999:1008  msg.value */\n      callvalue\n        /* \"contracts/FundMe.sol\":999:1016  msg.value >= 1e18 */\n      lt\n      iszero\n        /* \"contracts/FundMe.sol\":991:1035  require(msg.value >= 1e18, \"no enought ETH\") */\n      tag_19\n      jumpi\n      mload(0x40)\n      shl(0xe5, 0x461bcd)\n      dup2\n      mstore\n        /* \"#utility.yul\":1338:1340   */\n      0x20\n        /* \"contracts/FundMe.sol\":991:1035  require(msg.value >= 1e18, \"no enought ETH\") */\n      0x04\n      dup3\n      add\n        /* \"#utility.yul\":1320:1341   */\n      mstore\n        /* \"#utility.yul\":1377:1379   */\n      0x0e\n        /* \"#utility.yul\":1357:1375   */\n      0x24\n      dup3\n      add\n        /* \"#utility.yul\":1350:1380   */\n      mstore\n      shl(0x93, 0x0dcde40cadcdeeaced0e8408aa89)\n        /* \"#utility.yul\":1396:1414   */\n      0x44\n      dup3\n      add\n        /* \"#utility.yul\":1389:1433   */\n      mstore\n        /* \"#utility.yul\":1450:1468   */\n      0x64\n      add\n        /* \"contracts/FundMe.sol\":991:1035  require(msg.value >= 1e18, \"no enought ETH\") */\n      mload(0x40)\n      dup1\n      swap2\n      sub\n      swap1\n      revert\n        /* \"#utility.yul\":376:555   */\n    tag_42:\n        /* \"#utility.yul\":454:467   */\n      dup1\n      mload\n        /* \"#utility.yul\":507:529   */\n      0xffffffffffffffffffff\n        /* \"#utility.yul\":496:530   */\n      dup2\n      and\n        /* \"#utility.yul\":486:531   */\n      dup2\n      eq\n        /* \"#utility.yul\":476:549   */\n      tag_47\n      jumpi\n        /* \"#utility.yul\":545:546   */\n      0x00\n        /* \"#utility.yul\":542:543   */\n      0x00\n        /* \"#utility.yul\":535:547   */\n      revert\n        /* \"#utility.yul\":476:549   */\n    tag_47:\n        /* \"#utility.yul\":376:555   */\n      swap2\n      swap1\n      pop\n      jump\t// out\n        /* \"#utility.yul\":560:1131   */\n    tag_36:\n        /* \"#utility.yul\":663:669   */\n      0x00\n        /* \"#utility.yul\":671:677   */\n      0x00\n        /* \"#utility.yul\":679:685   */\n      0x00\n        /* \"#utility.yul\":687:693   */\n      0x00\n        /* \"#utility.yul\":695:701   */\n      0x00\n        /* \"#utility.yul\":748:751   */\n      0xa0\n        /* \"#utility.yul\":736:745   */\n      dup7\n        /* \"#utility.yul\":727:734   */\n      dup9\n        /* \"#utility.yul\":723:746   */\n      sub\n        /* \"#utility.yul\":719:752   */\n      slt\n        /* \"#utility.yul\":716:769   */\n      iszero\n      tag_49\n      jumpi\n        /* \"#utility.yul\":765:766   */\n      0x00\n        /* \"#utility.yul\":762:763   */\n      0x00\n        /* \"#utility.yul\":755:767   */\n      revert\n        /* \"#utility.yul\":716:769   */\n    tag_49:\n        /* \"#utility.yul\":788:827   */\n      tag_50\n        /* \"#utility.yul\":817:826   */\n      dup7\n        /* \"#utility.yul\":788:827   */\n      tag_42\n      jump\t// in\n    tag_50:\n        /* \"#utility.yul\":867:869   */\n      0x20\n        /* \"#utility.yul\":852:870   */\n      dup8\n      add\n        /* \"#utility.yul\":846:871   */\n      mload\n        /* \"#utility.yul\":933:935   */\n      0x40\n        /* \"#utility.yul\":918:936   */\n      dup9\n      add\n        /* \"#utility.yul\":912:937   */\n      mload\n        /* \"#utility.yul\":1027:1029   */\n      0x60\n        /* \"#utility.yul\":1012:1030   */\n      dup10\n      add\n        /* \"#utility.yul\":1006:1031   */\n      mload\n        /* \"#utility.yul\":778:827   */\n      swap3\n      swap8\n      pop\n        /* \"#utility.yul\":846:871   */\n      swap1\n      swap6\n      pop\n        /* \"#utility.yul\":912:937   */\n      swap4\n      pop\n        /* \"#utility.yul\":1006:1031   */\n      swap2\n      pop\n        /* \"#utility.yul\":1076:1125   */\n      tag_51\n        /* \"#utility.yul\":1120:1123   */\n      0x80\n        /* \"#utility.yul\":1105:1124   */\n      dup8\n      add\n        /* \"#utility.yul\":1076:1125   */\n      tag_42\n      jump\t// in\n    tag_51:\n        /* \"#utility.yul\":1066:1125   */\n      swap1\n      pop\n        /* \"#utility.yul\":560:1131   */\n      swap3\n      swap6\n      pop\n      swap3\n      swap6\n      swap1\n      swap4\n      pop\n      jump\t// out\n\n    auxdata: 0xa2646970667358221220b58941d4a133c0d208b0b47558858dad11340b13a7a5bbc2bc6134e38d8778f164736f6c634300081e0033\n}\n",
				"bytecode": {
					"linkReferences": {},
					"object": "608060405260055f553480156012575f5ffd5b5061022e806100205f395ff3fe608060405260043610610054575f3560e01c80630d8e6e2c146100585780633430a88c146100785780633ccfd60b1461008c57806398d5fdca1461009b578063b60d4288146100af578063f36089ec1461008c575b5f5ffd5b348015610063575f5ffd5b505f5b60405190815260200160405180910390f35b348015610083575f5ffd5b506100665f5481565b348015610097575f5ffd5b505b005b3480156100a6575f5ffd5b506100666100b9565b61009961013f565b565b5f5f73694aa1769357215de4fac081bf1f309adc32530690505f816001600160a01b031663feaf968c6040518163ffffffff1660e01b815260040160a060405180830381865afa15801561010f573d5f5f3e3d5ffd5b505050506040513d601f19601f8201168201806040525081019061013391906101aa565b50919695505050505050565b670de0b6b3a76400003410156100b75760405162461bcd60e51b815260206004820152600e60248201526d0dcde40cadcdeeaced0e8408aa8960931b604482015260640160405180910390fd5b805169ffffffffffffffffffff811681146101a5575f5ffd5b919050565b5f5f5f5f5f60a086880312156101be575f5ffd5b6101c78661018c565b602087015160408801516060890151929750909550935091506101ec6080870161018c565b9050929550929590935056fea2646970667358221220b58941d4a133c0d208b0b47558858dad11340b13a7a5bbc2bc6134e38d8778f164736f6c634300081e0033",
					"opcodes": "PUSH1 0x80 PUSH1 0x40 MSTORE PUSH1 0x5 PUSH0 SSTORE CALLVALUE DUP1 ISZERO PUSH1 0x12 JUMPI PUSH0 PUSH0 REVERT JUMPDEST POP PUSH2 0x22E DUP1 PUSH2 0x20 PUSH0 CODECOPY PUSH0 RETURN INVALID PUSH1 0x80 PUSH1 0x40 MSTORE PUSH1 0x4 CALLDATASIZE LT PUSH2 0x54 JUMPI PUSH0 CALLDATALOAD PUSH1 0xE0 SHR DUP1 PUSH4 0xD8E6E2C EQ PUSH2 0x58 JUMPI DUP1 PUSH4 0x3430A88C EQ PUSH2 0x78 JUMPI DUP1 PUSH4 0x3CCFD60B EQ PUSH2 0x8C JUMPI DUP1 PUSH4 0x98D5FDCA EQ PUSH2 0x9B JUMPI DUP1 PUSH4 0xB60D4288 EQ PUSH2 0xAF JUMPI DUP1 PUSH4 0xF36089EC EQ PUSH2 0x8C JUMPI JUMPDEST PUSH0 PUSH0 REVERT JUMPDEST CALLVALUE DUP1 ISZERO PUSH2 0x63 JUMPI PUSH0 PUSH0 REVERT JUMPDEST POP PUSH0 JUMPDEST PUSH1 0x40 MLOAD SWAP1 DUP2 MSTORE PUSH1 0x20 ADD PUSH1 0x40 MLOAD DUP1 SWAP2 SUB SWAP1 RETURN JUMPDEST CALLVALUE DUP1 ISZERO PUSH2 0x83 JUMPI PUSH0 PUSH0 REVERT JUMPDEST POP PUSH2 0x66 PUSH0 SLOAD DUP2 JUMP JUMPDEST CALLVALUE DUP1 ISZERO PUSH2 0x97 JUMPI PUSH0 PUSH0 REVERT JUMPDEST POP JUMPDEST STOP JUMPDEST CALLVALUE DUP1 ISZERO PUSH2 0xA6 JUMPI PUSH0 PUSH0 REVERT JUMPDEST POP PUSH2 0x66 PUSH2 0xB9 JUMP JUMPDEST PUSH2 0x99 PUSH2 0x13F JUMP JUMPDEST JUMP JUMPDEST PUSH0 PUSH0 PUSH20 0x694AA1769357215DE4FAC081BF1F309ADC325306 SWAP1 POP PUSH0 DUP2 PUSH1 0x1 PUSH1 0x1 PUSH1 0xA0 SHL SUB AND PUSH4 0xFEAF968C PUSH1 0x40 MLOAD DUP2 PUSH4 0xFFFFFFFF AND PUSH1 0xE0 SHL DUP2 MSTORE PUSH1 0x4 ADD PUSH1 0xA0 PUSH1 0x40 MLOAD DUP1 DUP4 SUB DUP2 DUP7 GAS STATICCALL ISZERO DUP1 ISZERO PUSH2 0x10F JUMPI RETURNDATASIZE PUSH0 PUSH0 RETURNDATACOPY RETURNDATASIZE PUSH0 REVERT JUMPDEST POP POP POP POP PUSH1 0x40 MLOAD RETURNDATASIZE PUSH1 0x1F NOT PUSH1 0x1F DUP3 ADD AND DUP3 ADD DUP1 PUSH1 0x40 MSTORE POP DUP2 ADD SWAP1 PUSH2 0x133 SWAP2 SWAP1 PUSH2 0x1AA JUMP JUMPDEST POP SWAP2 SWAP7 SWAP6 POP POP POP POP POP POP JUMP JUMPDEST PUSH8 0xDE0B6B3A7640000 CALLVALUE LT ISZERO PUSH2 0xB7 JUMPI PUSH1 0x40 MLOAD PUSH3 0x461BCD PUSH1 0xE5 SHL DUP2 MSTORE PUSH1 0x20 PUSH1 0x4 DUP3 ADD MSTORE PUSH1 0xE PUSH1 0x24 DUP3 ADD MSTORE PUSH14 0xDCDE40CADCDEEACED0E8408AA89 PUSH1 0x93 SHL PUSH1 0x44 DUP3 ADD MSTORE PUSH1 0x64 ADD PUSH1 0x40 MLOAD DUP1 SWAP2 SUB SWAP1 REVERT JUMPDEST DUP1 MLOAD PUSH10 0xFFFFFFFFFFFFFFFFFFFF DUP2 AND DUP2 EQ PUSH2 0x1A5 JUMPI PUSH0 PUSH0 REVERT JUMPDEST SWAP2 SWAP1 POP JUMP JUMPDEST PUSH0 PUSH0 PUSH0 PUSH0 PUSH0 PUSH1 0xA0 DUP7 DUP9 SUB SLT ISZERO PUSH2 0x1BE JUMPI PUSH0 PUSH0 REVERT JUMPDEST PUSH2 0x1C7 DUP7 PUSH2 0x18C JUMP JUMPDEST PUSH1 0x20 DUP8 ADD MLOAD PUSH1 0x40 DUP9 ADD MLOAD PUSH1 0x60 DUP10 ADD MLOAD SWAP3 SWAP8 POP SWAP1 SWAP6 POP SWAP4 POP SWAP2 POP PUSH2 0x1EC PUSH1 0x80 DUP8 ADD PUSH2 0x18C JUMP JUMPDEST SWAP1 POP SWAP3 SWAP6 POP SWAP3 SWAP6 SWAP1 SWAP4 POP JUMP INVALID LOG2 PUSH5 0x6970667358 0x22 SLT KECCAK256 0xB5 DUP10 COINBASE 0xD4 LOG1 CALLER 0xC0 0xD2 ADDMOD 0xB0 0xB4 PUSH22 0x58858DAD11340B13A7A5BBC2BC6134E38D8778F16473 PUSH16 0x6C634300081E00330000000000000000 "
				},
				"gasEstimates": {
					"creation": {
						"codeDepositCost": "111600",
						"executionCost": "22262",
						"totalCost": "133862"
					},
					"external": {
						"fund()": "311",
						"getConversionRate()": "208",
						"getPrice()": "infinite",
						"getVersion()": "145",
						"minimumUSD()": "2281",
						"withdraw()": "142"
					}
				},
				"methodIdentifiers": {
					"fund()": "b60d4288",
					"getConversionRate()": "f36089ec",
					"getPrice()": "98d5fdca",
					"getVersion()": "0d8e6e2c",
					"minimumUSD()": "3430a88c",
					"withdraw()": "3ccfd60b"
				}
			},
			"storageLayout": {
				"storage": [
					{
						"astId": 52,
						"contract": "contracts/FundMe.sol:FundMe",
						"label": "minimumUSD",
						"offset": 0,
						"slot": "0",
						"type": "t_uint256"
					}
				],
				"types": {
					"t_uint256": {
						"encoding": "inplace",
						"label": "uint256",
						"numberOfBytes": "32"
					}
				}
			},
			"userdoc": {
				"kind": "user",
				"methods": {},
				"version": 1
			}
		}
	}
}