{
	"contracts/FundMe.sol": {
		"FundMe": {
			"abi": [
				{
					"inputs": [],
					"stateMutability": "nonpayable",
					"type": "constructor"
				},
				{
					"inputs": [
						{
							"internalType": "address",
							"name": "",
							"type": "address"
						}
					],
					"name": "addressToAmountFunded",
					"outputs": [
						{
							"internalType": "uint256",
							"name": "",
							"type": "uint256"
						}
					],
					"stateMutability": "view",
					"type": "function"
				},
				{
					"inputs": [],
					"name": "fund",
					"outputs": [],
					"stateMutability": "payable",
					"type": "function"
				},
				{
					"inputs": [
						{
							"internalType": "uint256",
							"name": "",
							"type": "uint256"
						}
					],
					"name": "funders",
					"outputs": [
						{
							"internalType": "address",
							"name": "",
							"type": "address"
						}
					],
					"stateMutability": "view",
					"type": "function"
				},
				{
					"inputs": [
						{
							"internalType": "uint256",
							"name": "ethAmount",
							"type": "uint256"
						}
					],
					"name": "getConversionRate",
					"outputs": [
						{
							"internalType": "uint256",
							"name": "",
							"type": "uint256"
						}
					],
					"stateMutability": "view",
					"type": "function"
				},
				{
					"inputs": [],
					"name": "getPrice",
					"outputs": [
						{
							"internalType": "uint256",
							"name": "",
							"type": "uint256"
						}
					],
					"stateMutability": "view",
					"type": "function"
				},
				{
					"inputs": [],
					"name": "getVersion",
					"outputs": [
						{
							"internalType": "uint256",
							"name": "",
							"type": "uint256"
						}
					],
					"stateMutability": "view",
					"type": "function"
				},
				{
					"inputs": [],
					"name": "minimumUSD",
					"outputs": [
						{
							"internalType": "uint256",
							"name": "",
							"type": "uint256"
						}
					],
					"stateMutability": "view",
					"type": "function"
				},
				{
					"inputs": [],
					"name": "owner",
					"outputs": [
						{
							"internalType": "address",
							"name": "",
							"type": "address"
						}
					],
					"stateMutability": "view",
					"type": "function"
				},
				{
					"inputs": [],
					"name": "withdraw",
					"outputs": [],
					"stateMutability": "nonpayable",
					"type": "function"
				}
			],
			"devdoc": {
				"kind": "dev",
				"methods": {},
				"version": 1
			},
			"evm": {
				"assembly": "    /* \"contracts/FundMe.sol\":352:4918  contract FundMe  {... */\n  mstore(0x40, 0x80)\n    /* \"contracts/FundMe.sol\":850:858  5 * 1e18 */\n  0x4563918244f40000\n    /* \"contracts/FundMe.sol\":822:858  uint256 public minimumUSD = 5 * 1e18 */\n  0x02\n  sstore\n    /* \"contracts/FundMe.sol\":4414:4467  constructor() {... */\n  callvalue\n  dup1\n  iszero\n  tag_1\n  jumpi\n  revert(0x00, 0x00)\ntag_1:\n  pop\n    /* \"contracts/FundMe.sol\":4439:4444  owner */\n  0x03\n    /* \"contracts/FundMe.sol\":4439:4457  owner = msg.sender */\n  dup1\n  sload\n  not(sub(shl(0xa0, 0x01), 0x01))\n  and\n    /* \"contracts/FundMe.sol\":4447:4457  msg.sender */\n  caller\n    /* \"contracts/FundMe.sol\":4439:4457  owner = msg.sender */\n  or\n  swap1\n  sstore\n    /* \"contracts/FundMe.sol\":352:4918  contract FundMe  {... */\n  dataSize(sub_0)\n  dup1\n  dataOffset(sub_0)\n  0x00\n  codecopy\n  0x00\n  return\nstop\n\nsub_0: assembly {\n        /* \"contracts/FundMe.sol\":352:4918  contract FundMe  {... */\n      mstore(0x40, 0x80)\n      jumpi(tag_1, lt(calldatasize, 0x04))\n      shr(0xe0, calldataload(0x00))\n      dup1\n      0x6e5b6b28\n      gt\n      tag_11\n      jumpi\n      dup1\n      0x6e5b6b28\n      eq\n      tag_6\n      jumpi\n      dup1\n      0x8da5cb5b\n      eq\n      tag_7\n      jumpi\n      dup1\n      0x98d5fdca\n      eq\n      tag_8\n      jumpi\n      dup1\n      0xb60d4288\n      eq\n      tag_9\n      jumpi\n      dup1\n      0xdc0d3dff\n      eq\n      tag_10\n      jumpi\n      revert(0x00, 0x00)\n    tag_11:\n      dup1\n      0x0d8e6e2c\n      eq\n      tag_2\n      jumpi\n      dup1\n      0x3430a88c\n      eq\n      tag_3\n      jumpi\n      dup1\n      0x3ccfd60b\n      eq\n      tag_4\n      jumpi\n      dup1\n      0x3e47d6f3\n      eq\n      tag_5\n      jumpi\n    tag_1:\n      revert(0x00, 0x00)\n        /* \"contracts/FundMe.sol\":4479:4681  function getVersion() public view returns (uint256){... */\n    tag_2:\n      callvalue\n      dup1\n      iszero\n      tag_12\n      jumpi\n      revert(0x00, 0x00)\n    tag_12:\n      pop\n      tag_13\n      tag_14\n      jump\t// in\n    tag_13:\n      mload(0x40)\n        /* \"#utility.yul\":160:185   */\n      swap1\n      dup2\n      mstore\n        /* \"#utility.yul\":148:150   */\n      0x20\n        /* \"#utility.yul\":133:151   */\n      add\n        /* \"contracts/FundMe.sol\":4479:4681  function getVersion() public view returns (uint256){... */\n    tag_15:\n      mload(0x40)\n      dup1\n      swap2\n      sub\n      swap1\n      return\n        /* \"contracts/FundMe.sol\":822:858  uint256 public minimumUSD = 5 * 1e18 */\n    tag_3:\n      callvalue\n      dup1\n      iszero\n      tag_17\n      jumpi\n      revert(0x00, 0x00)\n    tag_17:\n      pop\n      tag_13\n      sload(0x02)\n      dup2\n      jump\n        /* \"contracts/FundMe.sol\":2933:4229  function withdraw() public onlyOwner {... */\n    tag_4:\n      callvalue\n      dup1\n      iszero\n      tag_21\n      jumpi\n      revert(0x00, 0x00)\n    tag_21:\n      pop\n      tag_22\n      tag_23\n      jump\t// in\n    tag_22:\n      stop\n        /* \"contracts/FundMe.sol\":641:697  mapping(address => uint256) public addressToAmountFunded */\n    tag_5:\n      callvalue\n      dup1\n      iszero\n      tag_24\n      jumpi\n      revert(0x00, 0x00)\n    tag_24:\n      pop\n      tag_13\n      tag_26\n      calldatasize\n      0x04\n      tag_27\n      jump\t// in\n    tag_26:\n      mstore(0x20, 0x01)\n      0x00\n      swap1\n      dup2\n      mstore\n      0x40\n      swap1\n      keccak256\n      sload\n      dup2\n      jump\n        /* \"contracts/FundMe.sol\":2574:2793  function getConversionRate(uint256 ethAmount) public view... */\n    tag_6:\n      callvalue\n      dup1\n      iszero\n      tag_30\n      jumpi\n      revert(0x00, 0x00)\n    tag_30:\n      pop\n      tag_13\n      tag_32\n      calldatasize\n      0x04\n      tag_33\n      jump\t// in\n    tag_32:\n      tag_34\n      jump\t// in\n        /* \"contracts/FundMe.sol\":4387:4407  address public owner */\n    tag_7:\n      callvalue\n      dup1\n      iszero\n      tag_36\n      jumpi\n      revert(0x00, 0x00)\n    tag_36:\n      pop\n      sload(0x03)\n      tag_37\n      swap1\n      sub(shl(0xa0, 0x01), 0x01)\n      and\n      dup2\n      jump\n    tag_37:\n      mload(0x40)\n      sub(shl(0xa0, 0x01), 0x01)\n        /* \"#utility.yul\":836:868   */\n      swap1\n      swap2\n      and\n        /* \"#utility.yul\":818:869   */\n      dup2\n      mstore\n        /* \"#utility.yul\":806:808   */\n      0x20\n        /* \"#utility.yul\":791:809   */\n      add\n        /* \"contracts/FundMe.sol\":4387:4407  address public owner */\n      tag_15\n        /* \"#utility.yul\":672:875   */\n      jump\n        /* \"contracts/FundMe.sol\":1821:2462  function getPrice() public view returns(uint256) {... */\n    tag_8:\n      callvalue\n      dup1\n      iszero\n      tag_41\n      jumpi\n      revert(0x00, 0x00)\n    tag_41:\n      pop\n      tag_13\n      tag_43\n      jump\t// in\n        /* \"contracts/FundMe.sol\":1196:1675  function fund() public payable  {... */\n    tag_9:\n      tag_22\n      tag_46\n      jump\t// in\n        /* \"contracts/FundMe.sol\":479:503  address[] public funders */\n    tag_10:\n      callvalue\n      dup1\n      iszero\n      tag_47\n      jumpi\n      revert(0x00, 0x00)\n    tag_47:\n      pop\n      tag_37\n      tag_49\n      calldatasize\n      0x04\n      tag_33\n      jump\t// in\n    tag_49:\n      tag_50\n      jump\t// in\n        /* \"contracts/FundMe.sol\":4479:4681  function getVersion() public view returns (uint256){... */\n    tag_14:\n        /* \"contracts/FundMe.sol\":4522:4529  uint256 */\n      0x00\n        /* \"contracts/FundMe.sol\":4537:4567  AggregatorV3Interface dataFeed */\n      0x00\n        /* \"contracts/FundMe.sol\":4598:4640  0x694AA1769357215DE4FAC081bf1f309aDC325306 */\n      0x694aa1769357215de4fac081bf1f309adc325306\n        /* \"contracts/FundMe.sol\":4537:4641  AggregatorV3Interface dataFeed = ... */\n      swap1\n      pop\n        /* \"contracts/FundMe.sol\":4655:4663  dataFeed */\n      dup1\n      sub(shl(0xa0, 0x01), 0x01)\n        /* \"contracts/FundMe.sol\":4655:4671  dataFeed.version */\n      and\n      0x54fd4d50\n        /* \"contracts/FundMe.sol\":4655:4673  dataFeed.version() */\n      mload(0x40)\n      dup2\n      0xffffffff\n      and\n      0xe0\n      shl\n      dup2\n      mstore\n      0x04\n      add\n      0x20\n      mload(0x40)\n      dup1\n      dup4\n      sub\n      dup2\n      dup7\n      gas\n      staticcall\n      iszero\n      dup1\n      iszero\n      tag_54\n      jumpi\n      returndatacopy(0x00, 0x00, returndatasize)\n      revert(0x00, returndatasize)\n    tag_54:\n      pop\n      pop\n      pop\n      pop\n      mload(0x40)\n      returndatasize\n      not(0x1f)\n      0x1f\n      dup3\n      add\n      and\n      dup3\n      add\n      dup1\n      0x40\n      mstore\n      pop\n      dup2\n      add\n      swap1\n      tag_55\n      swap2\n      swap1\n      tag_56\n      jump\t// in\n    tag_55:\n        /* \"contracts/FundMe.sol\":4648:4673  return dataFeed.version() */\n      swap2\n      pop\n      pop\n        /* \"contracts/FundMe.sol\":4479:4681  function getVersion() public view returns (uint256){... */\n      swap1\n      jump\t// out\n        /* \"contracts/FundMe.sol\":2933:4229  function withdraw() public onlyOwner {... */\n    tag_23:\n        /* \"contracts/FundMe.sol\":4811:4816  owner */\n      and(sub(shl(0xa0, 0x01), 0x01), sload(0x03))\n        /* \"contracts/FundMe.sol\":4797:4807  msg.sender */\n      caller\n        /* \"contracts/FundMe.sol\":4797:4816  msg.sender == owner */\n      eq\n        /* \"contracts/FundMe.sol\":4788:4839  require (msg.sender == owner,\"sender is not owner\") */\n      tag_58\n      jumpi\n      mload(0x40)\n      shl(0xe5, 0x461bcd)\n      dup2\n      mstore\n        /* \"#utility.yul\":1317:1319   */\n      0x20\n        /* \"contracts/FundMe.sol\":4788:4839  require (msg.sender == owner,\"sender is not owner\") */\n      0x04\n      dup3\n      add\n        /* \"#utility.yul\":1299:1320   */\n      mstore\n        /* \"#utility.yul\":1356:1358   */\n      0x13\n        /* \"#utility.yul\":1336:1354   */\n      0x24\n      dup3\n      add\n        /* \"#utility.yul\":1329:1359   */\n      mstore\n      shl(0x69, 0x39b2b73232b91034b9903737ba1037bbb732b9)\n        /* \"#utility.yul\":1375:1393   */\n      0x44\n      dup3\n      add\n        /* \"#utility.yul\":1368:1417   */\n      mstore\n        /* \"#utility.yul\":1434:1452   */\n      0x64\n      add\n        /* \"contracts/FundMe.sol\":4788:4839  require (msg.sender == owner,\"sender is not owner\") */\n    tag_59:\n      mload(0x40)\n      dup1\n      swap2\n      sub\n      swap1\n      revert\n    tag_58:\n        /* \"contracts/FundMe.sol\":3230:3249  uint256 funderIndex */\n      0x00\n        /* \"contracts/FundMe.sol\":3226:3579  for(uint256 funderIndex = 0; funderIndex < funders.length;... */\n    tag_62:\n        /* \"contracts/FundMe.sol\":3269:3276  funders */\n      0x00\n        /* \"contracts/FundMe.sol\":3269:3283  funders.length */\n      sload\n        /* \"contracts/FundMe.sol\":3255:3283  funderIndex < funders.length */\n      dup2\n      lt\n        /* \"contracts/FundMe.sol\":3226:3579  for(uint256 funderIndex = 0; funderIndex < funders.length;... */\n      iszero\n      tag_63\n      jumpi\n        /* \"contracts/FundMe.sol\":3492:3506  address funder */\n      0x00\n        /* \"contracts/FundMe.sol\":3509:3516  funders */\n      0x00\n        /* \"contracts/FundMe.sol\":3517:3528  funderIndex */\n      dup3\n        /* \"contracts/FundMe.sol\":3509:3529  funders[funderIndex] */\n      dup2\n      sload\n      dup2\n      lt\n      tag_66\n      jumpi\n      tag_66\n      tag_67\n      jump\t// in\n    tag_66:\n      0x00\n      swap2\n      dup3\n      mstore\n      0x20\n      dup1\n      dup4\n      keccak256\n      swap1\n      swap2\n      add\n      sload\n      sub(shl(0xa0, 0x01), 0x01)\n      and\n        /* \"contracts/FundMe.sol\":3544:3573  addressToAmountFunded[funder] */\n      dup3\n      mstore\n        /* \"contracts/FundMe.sol\":3509:3529  funders[funderIndex] */\n      0x01\n        /* \"contracts/FundMe.sol\":3544:3573  addressToAmountFunded[funder] */\n      swap1\n      dup2\n      swap1\n      mstore\n      0x40\n      dup3\n      keccak256\n        /* \"contracts/FundMe.sol\":3544:3577  addressToAmountFunded[funder] = 0 */\n      swap2\n      swap1\n      swap2\n      sstore\n        /* \"contracts/FundMe.sol\":3294:3307  funderIndex++ */\n      swap2\n      swap1\n      swap2\n      add\n      swap1\n      pop\n        /* \"contracts/FundMe.sol\":3226:3579  for(uint256 funderIndex = 0; funderIndex < funders.length;... */\n      jump(tag_62)\n    tag_63:\n      pop\n        /* \"contracts/FundMe.sol\":4106:4174  payable(msg.sender).call{value: address(this)... */\n      mload(0x40)\n        /* \"contracts/FundMe.sol\":4086:4102  bool callSuccess */\n      0x00\n      swap1\n        /* \"contracts/FundMe.sol\":4114:4124  msg.sender */\n      caller\n      swap1\n        /* \"contracts/FundMe.sol\":4138:4169  address(this)... */\n      selfbalance\n      swap1\n        /* \"contracts/FundMe.sol\":4086:4102  bool callSuccess */\n      dup4\n        /* \"contracts/FundMe.sol\":4106:4174  payable(msg.sender).call{value: address(this)... */\n      dup2\n        /* \"contracts/FundMe.sol\":4086:4102  bool callSuccess */\n      dup2\n        /* \"contracts/FundMe.sol\":4106:4174  payable(msg.sender).call{value: address(this)... */\n      dup2\n        /* \"contracts/FundMe.sol\":4138:4169  address(this)... */\n      dup6\n        /* \"contracts/FundMe.sol\":4114:4124  msg.sender */\n      dup8\n        /* \"contracts/FundMe.sol\":4106:4174  payable(msg.sender).call{value: address(this)... */\n      gas\n      call\n      swap3\n      pop\n      pop\n      pop\n      returndatasize\n      dup1\n      0x00\n      dup2\n      eq\n      tag_73\n      jumpi\n      mload(0x40)\n      swap2\n      pop\n      and(add(returndatasize, 0x3f), not(0x1f))\n      dup3\n      add\n      0x40\n      mstore\n      returndatasize\n      dup3\n      mstore\n      returndatasize\n      0x00\n      0x20\n      dup5\n      add\n      returndatacopy\n      jump(tag_72)\n    tag_73:\n      0x60\n      swap2\n      pop\n    tag_72:\n      pop\n        /* \"contracts/FundMe.sol\":4085:4174  (bool callSuccess,)= payable(msg.sender).call{value: address(this)... */\n      pop\n      swap1\n      pop\n        /* \"contracts/FundMe.sol\":4193:4204  callSuccess */\n      dup1\n        /* \"contracts/FundMe.sol\":4185:4220  require(callSuccess, \"callFailure\") */\n      tag_74\n      jumpi\n      mload(0x40)\n      shl(0xe5, 0x461bcd)\n      dup2\n      mstore\n        /* \"#utility.yul\":2007:2009   */\n      0x20\n        /* \"contracts/FundMe.sol\":4185:4220  require(callSuccess, \"callFailure\") */\n      0x04\n      dup3\n      add\n        /* \"#utility.yul\":1989:2010   */\n      mstore\n        /* \"#utility.yul\":2046:2048   */\n      0x0b\n        /* \"#utility.yul\":2026:2044   */\n      0x24\n      dup3\n      add\n        /* \"#utility.yul\":2019:2049   */\n      mstore\n      shl(0xa8, 0x63616c6c4661696c757265)\n        /* \"#utility.yul\":2065:2083   */\n      0x44\n      dup3\n      add\n        /* \"#utility.yul\":2058:2099   */\n      mstore\n        /* \"#utility.yul\":2116:2134   */\n      0x64\n      add\n        /* \"contracts/FundMe.sol\":4185:4220  require(callSuccess, \"callFailure\") */\n      tag_59\n        /* \"#utility.yul\":1805:2140   */\n      jump\n        /* \"contracts/FundMe.sol\":4185:4220  require(callSuccess, \"callFailure\") */\n    tag_74:\n        /* \"contracts/FundMe.sol\":2970:4229  {... */\n      pop\n        /* \"contracts/FundMe.sol\":2933:4229  function withdraw() public onlyOwner {... */\n      jump\t// out\n        /* \"contracts/FundMe.sol\":2574:2793  function getConversionRate(uint256 ethAmount) public view... */\n    tag_34:\n        /* \"contracts/FundMe.sol\":2646:2653  uint256 */\n      0x00\n        /* \"contracts/FundMe.sol\":2665:2681  uint256 ethPrice */\n      0x00\n        /* \"contracts/FundMe.sol\":2684:2694  getPrice() */\n      tag_78\n        /* \"contracts/FundMe.sol\":2684:2692  getPrice */\n      tag_43\n        /* \"contracts/FundMe.sol\":2684:2694  getPrice() */\n      jump\t// in\n    tag_78:\n        /* \"contracts/FundMe.sol\":2665:2694  uint256 ethPrice = getPrice() */\n      swap1\n      pop\n        /* \"contracts/FundMe.sol\":2705:2727  uint256 ethAmountinUSD */\n      0x00\n        /* \"contracts/FundMe.sol\":2755:2759  1e18 */\n      0x0de0b6b3a7640000\n        /* \"contracts/FundMe.sol\":2731:2751  ethPrice * ethAmount */\n      tag_79\n        /* \"contracts/FundMe.sol\":2742:2751  ethAmount */\n      dup6\n        /* \"contracts/FundMe.sol\":2665:2694  uint256 ethPrice = getPrice() */\n      dup5\n        /* \"contracts/FundMe.sol\":2731:2751  ethPrice * ethAmount */\n      tag_80\n      jump\t// in\n    tag_79:\n        /* \"contracts/FundMe.sol\":2730:2759  (ethPrice * ethAmount) / 1e18 */\n      tag_81\n      swap2\n      swap1\n      tag_82\n      jump\t// in\n    tag_81:\n        /* \"contracts/FundMe.sol\":2705:2759  uint256 ethAmountinUSD = (ethPrice * ethAmount) / 1e18 */\n      swap5\n        /* \"contracts/FundMe.sol\":2574:2793  function getConversionRate(uint256 ethAmount) public view... */\n      swap4\n      pop\n      pop\n      pop\n      pop\n      jump\t// out\n        /* \"contracts/FundMe.sol\":1821:2462  function getPrice() public view returns(uint256) {... */\n    tag_43:\n        /* \"contracts/FundMe.sol\":1861:1868  uint256 */\n      0x00\n        /* \"contracts/FundMe.sol\":1945:1975  AggregatorV3Interface dataFeed */\n      0x00\n        /* \"contracts/FundMe.sol\":2010:2052  0x694AA1769357215DE4FAC081bf1f309aDC325306 */\n      0x694aa1769357215de4fac081bf1f309adc325306\n        /* \"contracts/FundMe.sol\":1945:2053  AggregatorV3Interface dataFeed = AggregatorV3Interface... */\n      swap1\n      pop\n        /* \"contracts/FundMe.sol\":2065:2078  int256 answer */\n      0x00\n        /* \"contracts/FundMe.sol\":2085:2093  dataFeed */\n      dup2\n      sub(shl(0xa0, 0x01), 0x01)\n        /* \"contracts/FundMe.sol\":2085:2109  dataFeed.latestRoundData */\n      and\n      0xfeaf968c\n        /* \"contracts/FundMe.sol\":2085:2111  dataFeed.latestRoundData() */\n      mload(0x40)\n      dup2\n      0xffffffff\n      and\n      0xe0\n      shl\n      dup2\n      mstore\n      0x04\n      add\n      0xa0\n      mload(0x40)\n      dup1\n      dup4\n      sub\n      dup2\n      dup7\n      gas\n      staticcall\n      iszero\n      dup1\n      iszero\n      tag_85\n      jumpi\n      returndatacopy(0x00, 0x00, returndatasize)\n      revert(0x00, returndatasize)\n    tag_85:\n      pop\n      pop\n      pop\n      pop\n      mload(0x40)\n      returndatasize\n      not(0x1f)\n      0x1f\n      dup3\n      add\n      and\n      dup3\n      add\n      dup1\n      0x40\n      mstore\n      pop\n      dup2\n      add\n      swap1\n      tag_86\n      swap2\n      swap1\n      tag_87\n      jump\t// in\n    tag_86:\n      pop\n        /* \"contracts/FundMe.sol\":2063:2111  (,int256 answer,,,) = dataFeed.latestRoundData() */\n      swap2\n      swap7\n        /* \"contracts/FundMe.sol\":1821:2462  function getPrice() public view returns(uint256) {... */\n      swap6\n      pop\n      pop\n      pop\n      pop\n      pop\n      pop\n      jump\t// out\n        /* \"contracts/FundMe.sol\":1196:1675  function fund() public payable  {... */\n    tag_46:\n        /* \"contracts/FundMe.sol\":1366:1376  minimumUSD */\n      sload(0x02)\n        /* \"contracts/FundMe.sol\":1334:1362  getConversionRate(msg.value) */\n      tag_89\n        /* \"contracts/FundMe.sol\":1352:1361  msg.value */\n      callvalue\n        /* \"contracts/FundMe.sol\":1334:1351  getConversionRate */\n      tag_34\n        /* \"contracts/FundMe.sol\":1334:1362  getConversionRate(msg.value) */\n      jump\t// in\n    tag_89:\n        /* \"contracts/FundMe.sol\":1334:1376  getConversionRate(msg.value) >= minimumUSD */\n      lt\n      iszero\n        /* \"contracts/FundMe.sol\":1326:1405  require(getConversionRate(msg.value) >= minimumUSD, ... */\n      tag_90\n      jumpi\n      mload(0x40)\n      shl(0xe5, 0x461bcd)\n      dup2\n      mstore\n        /* \"#utility.yul\":3634:3636   */\n      0x20\n        /* \"contracts/FundMe.sol\":1326:1405  require(getConversionRate(msg.value) >= minimumUSD, ... */\n      0x04\n      dup3\n      add\n        /* \"#utility.yul\":3616:3637   */\n      mstore\n        /* \"#utility.yul\":3673:3675   */\n      0x0e\n        /* \"#utility.yul\":3653:3671   */\n      0x24\n      dup3\n      add\n        /* \"#utility.yul\":3646:3676   */\n      mstore\n      shl(0x93, 0x0dcde40cadcdeeaced0e8408aa89)\n        /* \"#utility.yul\":3692:3710   */\n      0x44\n      dup3\n      add\n        /* \"#utility.yul\":3685:3729   */\n      mstore\n        /* \"#utility.yul\":3746:3764   */\n      0x64\n      add\n        /* \"contracts/FundMe.sol\":1326:1405  require(getConversionRate(msg.value) >= minimumUSD, ... */\n      tag_59\n        /* \"#utility.yul\":3432:3770   */\n      jump\n        /* \"contracts/FundMe.sol\":1326:1405  require(getConversionRate(msg.value) >= minimumUSD, ... */\n    tag_90:\n        /* \"contracts/FundMe.sol\":1442:1449  funders */\n      0x00\n        /* \"contracts/FundMe.sol\":1442:1466  funders.push(msg.sender) */\n      dup1\n      sload\n      0x01\n      dup2\n      dup2\n      add\n      dup4\n      sstore\n      0x290decd9548b62a8d60345a988386fc84ba6bc95484008f6362f93160ef3e563\n      swap1\n      swap2\n      add\n      dup1\n      sload\n      not(sub(shl(0xa0, 0x01), 0x01))\n      and\n        /* \"contracts/FundMe.sol\":1455:1465  msg.sender */\n      caller\n        /* \"contracts/FundMe.sol\":1442:1466  funders.push(msg.sender) */\n      swap1\n      dup2\n      or\n      swap1\n      swap2\n      sstore\n        /* \"contracts/FundMe.sol\":1477:1510  addressToAmountFunded[msg.sender] */\n      dup3\n      mstore\n        /* \"contracts/FundMe.sol\":1442:1466  funders.push(msg.sender) */\n      0x20\n        /* \"contracts/FundMe.sol\":1477:1510  addressToAmountFunded[msg.sender] */\n      mstore\n      0x40\n      dup2\n      keccak256\n        /* \"contracts/FundMe.sol\":1477:1523  addressToAmountFunded[msg.sender] += msg.value */\n      dup1\n      sload\n        /* \"contracts/FundMe.sol\":1514:1523  msg.value */\n      callvalue\n      swap3\n        /* \"contracts/FundMe.sol\":1442:1449  funders */\n      swap1\n        /* \"contracts/FundMe.sol\":1477:1523  addressToAmountFunded[msg.sender] += msg.value */\n      tag_94\n      swap1\n        /* \"contracts/FundMe.sol\":1514:1523  msg.value */\n      dup5\n      swap1\n        /* \"contracts/FundMe.sol\":1477:1523  addressToAmountFunded[msg.sender] += msg.value */\n      tag_95\n      jump\t// in\n    tag_94:\n      swap1\n      swap2\n      sstore\n      pop\n      pop\n        /* \"contracts/FundMe.sol\":1196:1675  function fund() public payable  {... */\n      jump\t// out\n        /* \"contracts/FundMe.sol\":479:503  address[] public funders */\n    tag_50:\n      0x00\n      dup2\n      dup2\n      sload\n      dup2\n      lt\n      tag_96\n      jumpi\n      0x00\n      dup1\n      revert\n    tag_96:\n      0x00\n      swap2\n      dup3\n      mstore\n      0x20\n      swap1\n      swap2\n      keccak256\n      add\n      sload\n      sub(shl(0xa0, 0x01), 0x01)\n      and\n      swap1\n      pop\n      dup2\n      jump\t// out\n        /* \"#utility.yul\":196:482   */\n    tag_27:\n        /* \"#utility.yul\":255:261   */\n      0x00\n        /* \"#utility.yul\":308:310   */\n      0x20\n        /* \"#utility.yul\":296:305   */\n      dup3\n        /* \"#utility.yul\":287:294   */\n      dup5\n        /* \"#utility.yul\":283:306   */\n      sub\n        /* \"#utility.yul\":279:311   */\n      slt\n        /* \"#utility.yul\":276:328   */\n      iszero\n      tag_103\n      jumpi\n        /* \"#utility.yul\":324:325   */\n      0x00\n        /* \"#utility.yul\":321:322   */\n      0x00\n        /* \"#utility.yul\":314:326   */\n      revert\n        /* \"#utility.yul\":276:328   */\n    tag_103:\n        /* \"#utility.yul\":350:373   */\n      dup2\n      calldataload\n      sub(shl(0xa0, 0x01), 0x01)\n        /* \"#utility.yul\":402:433   */\n      dup2\n      and\n        /* \"#utility.yul\":392:434   */\n      dup2\n      eq\n        /* \"#utility.yul\":382:452   */\n      tag_104\n      jumpi\n        /* \"#utility.yul\":448:449   */\n      0x00\n        /* \"#utility.yul\":445:446   */\n      0x00\n        /* \"#utility.yul\":438:450   */\n      revert\n        /* \"#utility.yul\":382:452   */\n    tag_104:\n        /* \"#utility.yul\":471:476   */\n      swap4\n        /* \"#utility.yul\":196:482   */\n      swap3\n      pop\n      pop\n      pop\n      jump\t// out\n        /* \"#utility.yul\":487:667   */\n    tag_33:\n        /* \"#utility.yul\":546:552   */\n      0x00\n        /* \"#utility.yul\":599:601   */\n      0x20\n        /* \"#utility.yul\":587:596   */\n      dup3\n        /* \"#utility.yul\":578:585   */\n      dup5\n        /* \"#utility.yul\":574:597   */\n      sub\n        /* \"#utility.yul\":570:602   */\n      slt\n        /* \"#utility.yul\":567:619   */\n      iszero\n      tag_106\n      jumpi\n        /* \"#utility.yul\":615:616   */\n      0x00\n        /* \"#utility.yul\":612:613   */\n      0x00\n        /* \"#utility.yul\":605:617   */\n      revert\n        /* \"#utility.yul\":567:619   */\n    tag_106:\n      pop\n        /* \"#utility.yul\":638:661   */\n      calldataload\n      swap2\n        /* \"#utility.yul\":487:667   */\n      swap1\n      pop\n      jump\t// out\n        /* \"#utility.yul\":880:1110   */\n    tag_56:\n        /* \"#utility.yul\":950:956   */\n      0x00\n        /* \"#utility.yul\":1003:1005   */\n      0x20\n        /* \"#utility.yul\":991:1000   */\n      dup3\n        /* \"#utility.yul\":982:989   */\n      dup5\n        /* \"#utility.yul\":978:1001   */\n      sub\n        /* \"#utility.yul\":974:1006   */\n      slt\n        /* \"#utility.yul\":971:1023   */\n      iszero\n      tag_109\n      jumpi\n        /* \"#utility.yul\":1019:1020   */\n      0x00\n        /* \"#utility.yul\":1016:1017   */\n      0x00\n        /* \"#utility.yul\":1009:1021   */\n      revert\n        /* \"#utility.yul\":971:1023   */\n    tag_109:\n      pop\n        /* \"#utility.yul\":1064:1080   */\n      mload\n      swap2\n        /* \"#utility.yul\":880:1110   */\n      swap1\n      pop\n      jump\t// out\n        /* \"#utility.yul\":1463:1590   */\n    tag_67:\n        /* \"#utility.yul\":1524:1534   */\n      0x4e487b71\n        /* \"#utility.yul\":1519:1522   */\n      0xe0\n        /* \"#utility.yul\":1515:1535   */\n      shl\n        /* \"#utility.yul\":1512:1513   */\n      0x00\n        /* \"#utility.yul\":1505:1536   */\n      mstore\n        /* \"#utility.yul\":1555:1559   */\n      0x32\n        /* \"#utility.yul\":1552:1553   */\n      0x04\n        /* \"#utility.yul\":1545:1560   */\n      mstore\n        /* \"#utility.yul\":1579:1583   */\n      0x24\n        /* \"#utility.yul\":1576:1577   */\n      0x00\n        /* \"#utility.yul\":1569:1584   */\n      revert\n        /* \"#utility.yul\":2145:2272   */\n    tag_98:\n        /* \"#utility.yul\":2206:2216   */\n      0x4e487b71\n        /* \"#utility.yul\":2201:2204   */\n      0xe0\n        /* \"#utility.yul\":2197:2217   */\n      shl\n        /* \"#utility.yul\":2194:2195   */\n      0x00\n        /* \"#utility.yul\":2187:2218   */\n      mstore\n        /* \"#utility.yul\":2237:2241   */\n      0x11\n        /* \"#utility.yul\":2234:2235   */\n      0x04\n        /* \"#utility.yul\":2227:2242   */\n      mstore\n        /* \"#utility.yul\":2261:2265   */\n      0x24\n        /* \"#utility.yul\":2258:2259   */\n      0x00\n        /* \"#utility.yul\":2251:2266   */\n      revert\n        /* \"#utility.yul\":2277:2445   */\n    tag_80:\n        /* \"#utility.yul\":2350:2359   */\n      dup1\n      dup3\n      mul\n        /* \"#utility.yul\":2381:2390   */\n      dup2\n      iszero\n        /* \"#utility.yul\":2398:2413   */\n      dup3\n      dup3\n      div\n        /* \"#utility.yul\":2392:2414   */\n      dup5\n      eq\n        /* \"#utility.yul\":2378:2415   */\n      or\n        /* \"#utility.yul\":2368:2439   */\n      tag_117\n      jumpi\n        /* \"#utility.yul\":2419:2437   */\n      tag_117\n      tag_98\n      jump\t// in\n    tag_117:\n        /* \"#utility.yul\":2277:2445   */\n      swap3\n      swap2\n      pop\n      pop\n      jump\t// out\n        /* \"#utility.yul\":2450:2667   */\n    tag_82:\n        /* \"#utility.yul\":2490:2491   */\n      0x00\n        /* \"#utility.yul\":2516:2517   */\n      dup3\n        /* \"#utility.yul\":2506:2638   */\n      tag_119\n      jumpi\n        /* \"#utility.yul\":2560:2570   */\n      0x4e487b71\n        /* \"#utility.yul\":2555:2558   */\n      0xe0\n        /* \"#utility.yul\":2551:2571   */\n      shl\n        /* \"#utility.yul\":2548:2549   */\n      0x00\n        /* \"#utility.yul\":2541:2572   */\n      mstore\n        /* \"#utility.yul\":2595:2599   */\n      0x12\n        /* \"#utility.yul\":2592:2593   */\n      0x04\n        /* \"#utility.yul\":2585:2600   */\n      mstore\n        /* \"#utility.yul\":2623:2627   */\n      0x24\n        /* \"#utility.yul\":2620:2621   */\n      0x00\n        /* \"#utility.yul\":2613:2628   */\n      revert\n        /* \"#utility.yul\":2506:2638   */\n    tag_119:\n      pop\n        /* \"#utility.yul\":2652:2661   */\n      div\n      swap1\n        /* \"#utility.yul\":2450:2667   */\n      jump\t// out\n        /* \"#utility.yul\":2672:2851   */\n    tag_99:\n        /* \"#utility.yul\":2750:2763   */\n      dup1\n      mload\n        /* \"#utility.yul\":2803:2825   */\n      0xffffffffffffffffffff\n        /* \"#utility.yul\":2792:2826   */\n      dup2\n      and\n        /* \"#utility.yul\":2782:2827   */\n      dup2\n      eq\n        /* \"#utility.yul\":2772:2845   */\n      tag_121\n      jumpi\n        /* \"#utility.yul\":2841:2842   */\n      0x00\n        /* \"#utility.yul\":2838:2839   */\n      0x00\n        /* \"#utility.yul\":2831:2843   */\n      revert\n        /* \"#utility.yul\":2772:2845   */\n    tag_121:\n        /* \"#utility.yul\":2672:2851   */\n      swap2\n      swap1\n      pop\n      jump\t// out\n        /* \"#utility.yul\":2856:3427   */\n    tag_87:\n        /* \"#utility.yul\":2959:2965   */\n      0x00\n        /* \"#utility.yul\":2967:2973   */\n      0x00\n        /* \"#utility.yul\":2975:2981   */\n      0x00\n        /* \"#utility.yul\":2983:2989   */\n      0x00\n        /* \"#utility.yul\":2991:2997   */\n      0x00\n        /* \"#utility.yul\":3044:3047   */\n      0xa0\n        /* \"#utility.yul\":3032:3041   */\n      dup7\n        /* \"#utility.yul\":3023:3030   */\n      dup9\n        /* \"#utility.yul\":3019:3042   */\n      sub\n        /* \"#utility.yul\":3015:3048   */\n      slt\n        /* \"#utility.yul\":3012:3065   */\n      iszero\n      tag_123\n      jumpi\n        /* \"#utility.yul\":3061:3062   */\n      0x00\n        /* \"#utility.yul\":3058:3059   */\n      0x00\n        /* \"#utility.yul\":3051:3063   */\n      revert\n        /* \"#utility.yul\":3012:3065   */\n    tag_123:\n        /* \"#utility.yul\":3084:3123   */\n      tag_124\n        /* \"#utility.yul\":3113:3122   */\n      dup7\n        /* \"#utility.yul\":3084:3123   */\n      tag_99\n      jump\t// in\n    tag_124:\n        /* \"#utility.yul\":3163:3165   */\n      0x20\n        /* \"#utility.yul\":3148:3166   */\n      dup8\n      add\n        /* \"#utility.yul\":3142:3167   */\n      mload\n        /* \"#utility.yul\":3229:3231   */\n      0x40\n        /* \"#utility.yul\":3214:3232   */\n      dup9\n      add\n        /* \"#utility.yul\":3208:3233   */\n      mload\n        /* \"#utility.yul\":3323:3325   */\n      0x60\n        /* \"#utility.yul\":3308:3326   */\n      dup10\n      add\n        /* \"#utility.yul\":3302:3327   */\n      mload\n        /* \"#utility.yul\":3074:3123   */\n      swap3\n      swap8\n      pop\n        /* \"#utility.yul\":3142:3167   */\n      swap1\n      swap6\n      pop\n        /* \"#utility.yul\":3208:3233   */\n      swap4\n      pop\n        /* \"#utility.yul\":3302:3327   */\n      swap2\n      pop\n        /* \"#utility.yul\":3372:3421   */\n      tag_125\n        /* \"#utility.yul\":3416:3419   */\n      0x80\n        /* \"#utility.yul\":3401:3420   */\n      dup8\n      add\n        /* \"#utility.yul\":3372:3421   */\n      tag_99\n      jump\t// in\n    tag_125:\n        /* \"#utility.yul\":3362:3421   */\n      swap1\n      pop\n        /* \"#utility.yul\":2856:3427   */\n      swap3\n      swap6\n      pop\n      swap3\n      swap6\n      swap1\n      swap4\n      pop\n      jump\t// out\n        /* \"#utility.yul\":3775:3900   */\n    tag_95:\n        /* \"#utility.yul\":3840:3849   */\n      dup1\n      dup3\n      add\n        /* \"#utility.yul\":3861:3871   */\n      dup1\n      dup3\n      gt\n        /* \"#utility.yul\":3858:3894   */\n      iszero\n      tag_117\n      jumpi\n        /* \"#utility.yul\":3874:3892   */\n      tag_117\n      tag_98\n      jump\t// in\n\n    auxdata: 0xa26469706673582212201c832ef2f9d14b06a85486584cac4a490fb4bdffe1e35788d5632b8da262351964736f6c634300081e0033\n}\n",
				"bytecode": {
					"linkReferences": {},
					"object": "6080604052674563918244f40000600255348015601a575f5ffd5b50600380546001600160a01b0319163317905561063f8061003a5f395ff3fe608060405260043610610084575f3560e01c80636e5b6b28116100575780636e5b6b28146101055780638da5cb5b1461012457806398d5fdca1461015b578063b60d42881461016f578063dc0d3dff14610177575f5ffd5b80630d8e6e2c146100885780633430a88c146100af5780633ccfd60b146100c45780633e47d6f3146100da575b5f5ffd5b348015610093575f5ffd5b5061009c610196565b6040519081526020015b60405180910390f35b3480156100ba575f5ffd5b5061009c60025481565b3480156100cf575f5ffd5b506100d8610215565b005b3480156100e5575f5ffd5b5061009c6100f43660046104cb565b60016020525f908152604090205481565b348015610110575f5ffd5b5061009c61011f3660046104f8565b610340565b34801561012f575f5ffd5b50600354610143906001600160a01b031681565b6040516001600160a01b0390911681526020016100a6565b348015610166575f5ffd5b5061009c610372565b6100d86103f8565b348015610182575f5ffd5b506101436101913660046104f8565b6104a4565b5f5f73694aa1769357215de4fac081bf1f309adc3253069050806001600160a01b03166354fd4d506040518163ffffffff1660e01b8152600401602060405180830381865afa1580156101eb573d5f5f3e3d5ffd5b505050506040513d601f19601f8201168201806040525081019061020f919061050f565b91505090565b6003546001600160a01b0316331461026a5760405162461bcd60e51b815260206004820152601360248201527239b2b73232b91034b9903737ba1037bbb732b960691b60448201526064015b60405180910390fd5b5f5b5f548110156102b9575f5f828154811061028857610288610526565b5f9182526020808320909101546001600160a01b03168252600190819052604082209190915591909101905061026c565b506040515f90339047908381818185875af1925050503d805f81146102f9576040519150601f19603f3d011682016040523d82523d5f602084013e6102fe565b606091505b505090508061033d5760405162461bcd60e51b815260206004820152600b60248201526a63616c6c4661696c75726560a81b6044820152606401610261565b50565b5f5f61034a610372565b90505f670de0b6b3a7640000610360858461054e565b61036a919061056b565b949350505050565b5f5f73694aa1769357215de4fac081bf1f309adc32530690505f816001600160a01b031663feaf968c6040518163ffffffff1660e01b815260040160a060405180830381865afa1580156103c8573d5f5f3e3d5ffd5b505050506040513d601f19601f820116820180604052508101906103ec91906105a8565b50919695505050505050565b60025461040434610340565b10156104435760405162461bcd60e51b815260206004820152600e60248201526d0dcde40cadcdeeaced0e8408aa8960931b6044820152606401610261565b5f8054600181810183557f290decd9548b62a8d60345a988386fc84ba6bc95484008f6362f93160ef3e56390910180546001600160a01b03191633908117909155825260205260408120805434929061049d9084906105f6565b9091555050565b5f81815481106104b2575f80fd5b5f918252602090912001546001600160a01b0316905081565b5f602082840312156104db575f5ffd5b81356001600160a01b03811681146104f1575f5ffd5b9392505050565b5f60208284031215610508575f5ffd5b5035919050565b5f6020828403121561051f575f5ffd5b5051919050565b634e487b7160e01b5f52603260045260245ffd5b634e487b7160e01b5f52601160045260245ffd5b80820281158282048414176105655761056561053a565b92915050565b5f8261058557634e487b7160e01b5f52601260045260245ffd5b500490565b805169ffffffffffffffffffff811681146105a3575f5ffd5b919050565b5f5f5f5f5f60a086880312156105bc575f5ffd5b6105c58661058a565b602087015160408801516060890151929750909550935091506105ea6080870161058a565b90509295509295909350565b808201808211156105655761056561053a56fea26469706673582212201c832ef2f9d14b06a85486584cac4a490fb4bdffe1e35788d5632b8da262351964736f6c634300081e0033",
					"opcodes": "PUSH1 0x80 PUSH1 0x40 MSTORE PUSH8 0x4563918244F40000 PUSH1 0x2 SSTORE CALLVALUE DUP1 ISZERO PUSH1 0x1A JUMPI PUSH0 PUSH0 REVERT JUMPDEST POP PUSH1 0x3 DUP1 SLOAD PUSH1 0x1 PUSH1 0x1 PUSH1 0xA0 SHL SUB NOT AND CALLER OR SWAP1 SSTORE PUSH2 0x63F DUP1 PUSH2 0x3A PUSH0 CODECOPY PUSH0 RETURN INVALID PUSH1 0x80 PUSH1 0x40 MSTORE PUSH1 0x4 CALLDATASIZE LT PUSH2 0x84 JUMPI PUSH0 CALLDATALOAD PUSH1 0xE0 SHR DUP1 PUSH4 0x6E5B6B28 GT PUSH2 0x57 JUMPI DUP1 PUSH4 0x6E5B6B28 EQ PUSH2 0x105 JUMPI DUP1 PUSH4 0x8DA5CB5B EQ PUSH2 0x124 JUMPI DUP1 PUSH4 0x98D5FDCA EQ PUSH2 0x15B JUMPI DUP1 PUSH4 0xB60D4288 EQ PUSH2 0x16F JUMPI DUP1 PUSH4 0xDC0D3DFF EQ PUSH2 0x177 JUMPI PUSH0 PUSH0 REVERT JUMPDEST DUP1 PUSH4 0xD8E6E2C EQ PUSH2 0x88 JUMPI DUP1 PUSH4 0x3430A88C EQ PUSH2 0xAF JUMPI DUP1 PUSH4 0x3CCFD60B EQ PUSH2 0xC4 JUMPI DUP1 PUSH4 0x3E47D6F3 EQ PUSH2 0xDA JUMPI JUMPDEST PUSH0 PUSH0 REVERT JUMPDEST CALLVALUE DUP1 ISZERO PUSH2 0x93 JUMPI PUSH0 PUSH0 REVERT JUMPDEST POP PUSH2 0x9C PUSH2 0x196 JUMP JUMPDEST PUSH1 0x40 MLOAD SWAP1 DUP2 MSTORE PUSH1 0x20 ADD JUMPDEST PUSH1 0x40 MLOAD DUP1 SWAP2 SUB SWAP1 RETURN JUMPDEST CALLVALUE DUP1 ISZERO PUSH2 0xBA JUMPI PUSH0 PUSH0 REVERT JUMPDEST POP PUSH2 0x9C PUSH1 0x2 SLOAD DUP2 JUMP JUMPDEST CALLVALUE DUP1 ISZERO PUSH2 0xCF JUMPI PUSH0 PUSH0 REVERT JUMPDEST POP PUSH2 0xD8 PUSH2 0x215 JUMP JUMPDEST STOP JUMPDEST CALLVALUE DUP1 ISZERO PUSH2 0xE5 JUMPI PUSH0 PUSH0 REVERT JUMPDEST POP PUSH2 0x9C PUSH2 0xF4 CALLDATASIZE PUSH1 0x4 PUSH2 0x4CB JUMP JUMPDEST PUSH1 0x1 PUSH1 0x20 MSTORE PUSH0 SWAP1 DUP2 MSTORE PUSH1 0x40 SWAP1 KECCAK256 SLOAD DUP2 JUMP JUMPDEST CALLVALUE DUP1 ISZERO PUSH2 0x110 JUMPI PUSH0 PUSH0 REVERT JUMPDEST POP PUSH2 0x9C PUSH2 0x11F CALLDATASIZE PUSH1 0x4 PUSH2 0x4F8 JUMP JUMPDEST PUSH2 0x340 JUMP JUMPDEST CALLVALUE DUP1 ISZERO PUSH2 0x12F JUMPI PUSH0 PUSH0 REVERT JUMPDEST POP PUSH1 0x3 SLOAD PUSH2 0x143 SWAP1 PUSH1 0x1 PUSH1 0x1 PUSH1 0xA0 SHL SUB AND DUP2 JUMP JUMPDEST PUSH1 0x40 MLOAD PUSH1 0x1 PUSH1 0x1 PUSH1 0xA0 SHL SUB SWAP1 SWAP2 AND DUP2 MSTORE PUSH1 0x20 ADD PUSH2 0xA6 JUMP JUMPDEST CALLVALUE DUP1 ISZERO PUSH2 0x166 JUMPI PUSH0 PUSH0 REVERT JUMPDEST POP PUSH2 0x9C PUSH2 0x372 JUMP JUMPDEST PUSH2 0xD8 PUSH2 0x3F8 JUMP JUMPDEST CALLVALUE DUP1 ISZERO PUSH2 0x182 JUMPI PUSH0 PUSH0 REVERT JUMPDEST POP PUSH2 0x143 PUSH2 0x191 CALLDATASIZE PUSH1 0x4 PUSH2 0x4F8 JUMP JUMPDEST PUSH2 0x4A4 JUMP JUMPDEST PUSH0 PUSH0 PUSH20 0x694AA1769357215DE4FAC081BF1F309ADC325306 SWAP1 POP DUP1 PUSH1 0x1 PUSH1 0x1 PUSH1 0xA0 SHL SUB AND PUSH4 0x54FD4D50 PUSH1 0x40 MLOAD DUP2 PUSH4 0xFFFFFFFF AND PUSH1 0xE0 SHL DUP2 MSTORE PUSH1 0x4 ADD PUSH1 0x20 PUSH1 0x40 MLOAD DUP1 DUP4 SUB DUP2 DUP7 GAS STATICCALL ISZERO DUP1 ISZERO PUSH2 0x1EB JUMPI RETURNDATASIZE PUSH0 PUSH0 RETURNDATACOPY RETURNDATASIZE PUSH0 REVERT JUMPDEST POP POP POP POP PUSH1 0x40 MLOAD RETURNDATASIZE PUSH1 0x1F NOT PUSH1 0x1F DUP3 ADD AND DUP3 ADD DUP1 PUSH1 0x40 MSTORE POP DUP2 ADD SWAP1 PUSH2 0x20F SWAP2 SWAP1 PUSH2 0x50F JUMP JUMPDEST SWAP2 POP POP SWAP1 JUMP JUMPDEST PUSH1 0x3 SLOAD PUSH1 0x1 PUSH1 0x1 PUSH1 0xA0 SHL SUB AND CALLER EQ PUSH2 0x26A JUMPI PUSH1 0x40 MLOAD PUSH3 0x461BCD PUSH1 0xE5 SHL DUP2 MSTORE PUSH1 0x20 PUSH1 0x4 DUP3 ADD MSTORE PUSH1 0x13 PUSH1 0x24 DUP3 ADD MSTORE PUSH19 0x39B2B73232B91034B9903737BA1037BBB732B9 PUSH1 0x69 SHL PUSH1 0x44 DUP3 ADD MSTORE PUSH1 0x64 ADD JUMPDEST PUSH1 0x40 MLOAD DUP1 SWAP2 SUB SWAP1 REVERT JUMPDEST PUSH0 JUMPDEST PUSH0 SLOAD DUP2 LT ISZERO PUSH2 0x2B9 JUMPI PUSH0 PUSH0 DUP3 DUP2 SLOAD DUP2 LT PUSH2 0x288 JUMPI PUSH2 0x288 PUSH2 0x526 JUMP JUMPDEST PUSH0 SWAP2 DUP3 MSTORE PUSH1 0x20 DUP1 DUP4 KECCAK256 SWAP1 SWAP2 ADD SLOAD PUSH1 0x1 PUSH1 0x1 PUSH1 0xA0 SHL SUB AND DUP3 MSTORE PUSH1 0x1 SWAP1 DUP2 SWAP1 MSTORE PUSH1 0x40 DUP3 KECCAK256 SWAP2 SWAP1 SWAP2 SSTORE SWAP2 SWAP1 SWAP2 ADD SWAP1 POP PUSH2 0x26C JUMP JUMPDEST POP PUSH1 0x40 MLOAD PUSH0 SWAP1 CALLER SWAP1 SELFBALANCE SWAP1 DUP4 DUP2 DUP2 DUP2 DUP6 DUP8 GAS CALL SWAP3 POP POP POP RETURNDATASIZE DUP1 PUSH0 DUP2 EQ PUSH2 0x2F9 JUMPI PUSH1 0x40 MLOAD SWAP2 POP PUSH1 0x1F NOT PUSH1 0x3F RETURNDATASIZE ADD AND DUP3 ADD PUSH1 0x40 MSTORE RETURNDATASIZE DUP3 MSTORE RETURNDATASIZE PUSH0 PUSH1 0x20 DUP5 ADD RETURNDATACOPY PUSH2 0x2FE JUMP JUMPDEST PUSH1 0x60 SWAP2 POP JUMPDEST POP POP SWAP1 POP DUP1 PUSH2 0x33D JUMPI PUSH1 0x40 MLOAD PUSH3 0x461BCD PUSH1 0xE5 SHL DUP2 MSTORE PUSH1 0x20 PUSH1 0x4 DUP3 ADD MSTORE PUSH1 0xB PUSH1 0x24 DUP3 ADD MSTORE PUSH11 0x63616C6C4661696C757265 PUSH1 0xA8 SHL PUSH1 0x44 DUP3 ADD MSTORE PUSH1 0x64 ADD PUSH2 0x261 JUMP JUMPDEST POP JUMP JUMPDEST PUSH0 PUSH0 PUSH2 0x34A PUSH2 0x372 JUMP JUMPDEST SWAP1 POP PUSH0 PUSH8 0xDE0B6B3A7640000 PUSH2 0x360 DUP6 DUP5 PUSH2 0x54E JUMP JUMPDEST PUSH2 0x36A SWAP2 SWAP1 PUSH2 0x56B JUMP JUMPDEST SWAP5 SWAP4 POP POP POP POP JUMP JUMPDEST PUSH0 PUSH0 PUSH20 0x694AA1769357215DE4FAC081BF1F309ADC325306 SWAP1 POP PUSH0 DUP2 PUSH1 0x1 PUSH1 0x1 PUSH1 0xA0 SHL SUB AND PUSH4 0xFEAF968C PUSH1 0x40 MLOAD DUP2 PUSH4 0xFFFFFFFF AND PUSH1 0xE0 SHL DUP2 MSTORE PUSH1 0x4 ADD PUSH1 0xA0 PUSH1 0x40 MLOAD DUP1 DUP4 SUB DUP2 DUP7 GAS STATICCALL ISZERO DUP1 ISZERO PUSH2 0x3C8 JUMPI RETURNDATASIZE PUSH0 PUSH0 RETURNDATACOPY RETURNDATASIZE PUSH0 REVERT JUMPDEST POP POP POP POP PUSH1 0x40 MLOAD RETURNDATASIZE PUSH1 0x1F NOT PUSH1 0x1F DUP3 ADD AND DUP3 ADD DUP1 PUSH1 0x40 MSTORE POP DUP2 ADD SWAP1 PUSH2 0x3EC SWAP2 SWAP1 PUSH2 0x5A8 JUMP JUMPDEST POP SWAP2 SWAP7 SWAP6 POP POP POP POP POP POP JUMP JUMPDEST PUSH1 0x2 SLOAD PUSH2 0x404 CALLVALUE PUSH2 0x340 JUMP JUMPDEST LT ISZERO PUSH2 0x443 JUMPI PUSH1 0x40 MLOAD PUSH3 0x461BCD PUSH1 0xE5 SHL DUP2 MSTORE PUSH1 0x20 PUSH1 0x4 DUP3 ADD MSTORE PUSH1 0xE PUSH1 0x24 DUP3 ADD MSTORE PUSH14 0xDCDE40CADCDEEACED0E8408AA89 PUSH1 0x93 SHL PUSH1 0x44 DUP3 ADD MSTORE PUSH1 0x64 ADD PUSH2 0x261 JUMP JUMPDEST PUSH0 DUP1 SLOAD PUSH1 0x1 DUP2 DUP2 ADD DUP4 SSTORE PUSH32 0x290DECD9548B62A8D60345A988386FC84BA6BC95484008F6362F93160EF3E563 SWAP1 SWAP2 ADD DUP1 SLOAD PUSH1 0x1 PUSH1 0x1 PUSH1 0xA0 SHL SUB NOT AND CALLER SWAP1 DUP2 OR SWAP1 SWAP2 SSTORE DUP3 MSTORE PUSH1 0x20 MSTORE PUSH1 0x40 DUP2 KECCAK256 DUP1 SLOAD CALLVALUE SWAP3 SWAP1 PUSH2 0x49D SWAP1 DUP5 SWAP1 PUSH2 0x5F6 JUMP JUMPDEST SWAP1 SWAP2 SSTORE POP POP JUMP JUMPDEST PUSH0 DUP2 DUP2 SLOAD DUP2 LT PUSH2 0x4B2 JUMPI PUSH0 DUP1 REVERT JUMPDEST PUSH0 SWAP2 DUP3 MSTORE PUSH1 0x20 SWAP1 SWAP2 KECCAK256 ADD SLOAD PUSH1 0x1 PUSH1 0x1 PUSH1 0xA0 SHL SUB AND SWAP1 POP DUP2 JUMP JUMPDEST PUSH0 PUSH1 0x20 DUP3 DUP5 SUB SLT ISZERO PUSH2 0x4DB JUMPI PUSH0 PUSH0 REVERT JUMPDEST DUP2 CALLDATALOAD PUSH1 0x1 PUSH1 0x1 PUSH1 0xA0 SHL SUB DUP2 AND DUP2 EQ PUSH2 0x4F1 JUMPI PUSH0 PUSH0 REVERT JUMPDEST SWAP4 SWAP3 POP POP POP JUMP JUMPDEST PUSH0 PUSH1 0x20 DUP3 DUP5 SUB SLT ISZERO PUSH2 0x508 JUMPI PUSH0 PUSH0 REVERT JUMPDEST POP CALLDATALOAD SWAP2 SWAP1 POP JUMP JUMPDEST PUSH0 PUSH1 0x20 DUP3 DUP5 SUB SLT ISZERO PUSH2 0x51F JUMPI PUSH0 PUSH0 REVERT JUMPDEST POP MLOAD SWAP2 SWAP1 POP JUMP JUMPDEST PUSH4 0x4E487B71 PUSH1 0xE0 SHL PUSH0 MSTORE PUSH1 0x32 PUSH1 0x4 MSTORE PUSH1 0x24 PUSH0 REVERT JUMPDEST PUSH4 0x4E487B71 PUSH1 0xE0 SHL PUSH0 MSTORE PUSH1 0x11 PUSH1 0x4 MSTORE PUSH1 0x24 PUSH0 REVERT JUMPDEST DUP1 DUP3 MUL DUP2 ISZERO DUP3 DUP3 DIV DUP5 EQ OR PUSH2 0x565 JUMPI PUSH2 0x565 PUSH2 0x53A JUMP JUMPDEST SWAP3 SWAP2 POP POP JUMP JUMPDEST PUSH0 DUP3 PUSH2 0x585 JUMPI PUSH4 0x4E487B71 PUSH1 0xE0 SHL PUSH0 MSTORE PUSH1 0x12 PUSH1 0x4 MSTORE PUSH1 0x24 PUSH0 REVERT JUMPDEST POP DIV SWAP1 JUMP JUMPDEST DUP1 MLOAD PUSH10 0xFFFFFFFFFFFFFFFFFFFF DUP2 AND DUP2 EQ PUSH2 0x5A3 JUMPI PUSH0 PUSH0 REVERT JUMPDEST SWAP2 SWAP1 POP JUMP JUMPDEST PUSH0 PUSH0 PUSH0 PUSH0 PUSH0 PUSH1 0xA0 DUP7 DUP9 SUB SLT ISZERO PUSH2 0x5BC JUMPI PUSH0 PUSH0 REVERT JUMPDEST PUSH2 0x5C5 DUP7 PUSH2 0x58A JUMP JUMPDEST PUSH1 0x20 DUP8 ADD MLOAD PUSH1 0x40 DUP9 ADD MLOAD PUSH1 0x60 DUP10 ADD MLOAD SWAP3 SWAP8 POP SWAP1 SWAP6 POP SWAP4 POP SWAP2 POP PUSH2 0x5EA PUSH1 0x80 DUP8 ADD PUSH2 0x58A JUMP JUMPDEST SWAP1 POP SWAP3 SWAP6 POP SWAP3 SWAP6 SWAP1 SWAP4 POP JUMP JUMPDEST DUP1 DUP3 ADD DUP1 DUP3 GT ISZERO PUSH2 0x565 JUMPI PUSH2 0x565 PUSH2 0x53A JUMP INVALID LOG2 PUSH5 0x6970667358 0x22 SLT KECCAK256 SHR DUP4 0x2E CALLCODE EXTDELEGATECALL DATALOADN 0x4B06 0xA8 SLOAD DUP7 PC 0x4C 0xAC BLOBBASEFEE BLOBHASH 0xF 0xB4 0xBD SELFDESTRUCT RJUMPI 0xE357 DUP9 0xD5 PUSH4 0x2B8DA262 CALLDATALOAD NOT PUSH5 0x736F6C6343 STOP ADDMOD 0x1E STOP CALLER "
				},
				"gasEstimates": {
					"creation": {
						"codeDepositCost": "319800",
						"executionCost": "46694",
						"totalCost": "366494"
					},
					"external": {
						"addressToAmountFunded(address)": "2537",
						"fund()": "infinite",
						"funders(uint256)": "4698",
						"getConversionRate(uint256)": "infinite",
						"getPrice()": "infinite",
						"getVersion()": "infinite",
						"minimumUSD()": "2306",
						"owner()": "2358",
						"withdraw()": "infinite"
					}
				},
				"methodIdentifiers": {
					"addressToAmountFunded(address)": "3e47d6f3",
					"fund()": "b60d4288",
					"funders(uint256)": "dc0d3dff",
					"getConversionRate(uint256)": "6e5b6b28",
					"getPrice()": "98d5fdca",
					"getVersion()": "0d8e6e2c",
					"minimumUSD()": "3430a88c",
					"owner()": "8da5cb5b",
					"withdraw()": "3ccfd60b"
				}
			},
			"storageLayout": {
				"storage": [
					{
						"astId": 52,
						"contract": "contracts/FundMe.sol:FundMe",
						"label": "funders",
						"offset": 0,
						"slot": "0",
						"type": "t_array(t_address)dyn_storage"
					},
					{
						"astId": 56,
						"contract": "contracts/FundMe.sol:FundMe",
						"label": "addressToAmountFunded",
						"offset": 0,
						"slot": "1",
						"type": "t_mapping(t_address,t_uint256)"
					},
					{
						"astId": 61,
						"contract": "contracts/FundMe.sol:FundMe",
						"label": "minimumUSD",
						"offset": 0,
						"slot": "2",
						"type": "t_uint256"
					},
					{
						"astId": 193,
						"contract": "contracts/FundMe.sol:FundMe",
						"label": "owner",
						"offset": 0,
						"slot": "3",
						"type": "t_address"
					}
				],
				"types": {
					"t_address": {
						"encoding": "inplace",
						"label": "address",
						"numberOfBytes": "20"
					},
					"t_array(t_address)dyn_storage": {
						"base": "t_address",
						"encoding": "dynamic_array",
						"label": "address[]",
						"numberOfBytes": "32"
					},
					"t_mapping(t_address,t_uint256)": {
						"encoding": "mapping",
						"key": "t_address",
						"label": "mapping(address => uint256)",
						"numberOfBytes": "32",
						"value": "t_uint256"
					},
					"t_uint256": {
						"encoding": "inplace",
						"label": "uint256",
						"numberOfBytes": "32"
					}
				}
			},
			"userdoc": {
				"kind": "user",
				"methods": {},
				"version": 1
			}
		}
	}
}