{
	"contracts/FundMe.sol": {
		"FundMe": {
			"abi": [
				{
					"inputs": [],
					"name": "fund",
					"outputs": [],
					"stateMutability": "payable",
					"type": "function"
				},
				{
					"inputs": [
						{
							"internalType": "uint256",
							"name": "",
							"type": "uint256"
						}
					],
					"name": "funders",
					"outputs": [
						{
							"internalType": "address",
							"name": "",
							"type": "address"
						}
					],
					"stateMutability": "view",
					"type": "function"
				},
				{
					"inputs": [
						{
							"internalType": "uint256",
							"name": "ethAmount",
							"type": "uint256"
						}
					],
					"name": "getConversionRate",
					"outputs": [
						{
							"internalType": "uint256",
							"name": "",
							"type": "uint256"
						}
					],
					"stateMutability": "view",
					"type": "function"
				},
				{
					"inputs": [],
					"name": "getPrice",
					"outputs": [
						{
							"internalType": "uint256",
							"name": "",
							"type": "uint256"
						}
					],
					"stateMutability": "view",
					"type": "function"
				},
				{
					"inputs": [],
					"name": "getVersion",
					"outputs": [
						{
							"internalType": "uint256",
							"name": "",
							"type": "uint256"
						}
					],
					"stateMutability": "view",
					"type": "function"
				},
				{
					"inputs": [],
					"name": "minimumUSD",
					"outputs": [
						{
							"internalType": "uint256",
							"name": "",
							"type": "uint256"
						}
					],
					"stateMutability": "view",
					"type": "function"
				},
				{
					"inputs": [],
					"name": "withdraw",
					"outputs": [],
					"stateMutability": "nonpayable",
					"type": "function"
				}
			],
			"devdoc": {
				"kind": "dev",
				"methods": {},
				"version": 1
			},
			"evm": {
				"assembly": "    /* \"contracts/FundMe.sol\":352:2743  contract FundMe  {... */\n  mstore(0x40, 0x80)\n    /* \"contracts/FundMe.sol\":721:722  5 */\n  0x05\n    /* \"contracts/FundMe.sol\":693:722  uint256 public minimumUSD = 5 */\n  0x01\n  sstore\n    /* \"contracts/FundMe.sol\":352:2743  contract FundMe  {... */\n  callvalue\n  dup1\n  iszero\n  tag_1\n  jumpi\n  revert(0x00, 0x00)\ntag_1:\n  pop\n  dataSize(sub_0)\n  dup1\n  dataOffset(sub_0)\n  0x00\n  codecopy\n  0x00\n  return\nstop\n\nsub_0: assembly {\n        /* \"contracts/FundMe.sol\":352:2743  contract FundMe  {... */\n      mstore(0x40, 0x80)\n      jumpi(tag_1, lt(calldatasize, 0x04))\n      shr(0xe0, calldataload(0x00))\n      dup1\n      0x6e5b6b28\n      gt\n      tag_9\n      jumpi\n      dup1\n      0x6e5b6b28\n      eq\n      tag_5\n      jumpi\n      dup1\n      0x98d5fdca\n      eq\n      tag_6\n      jumpi\n      dup1\n      0xb60d4288\n      eq\n      tag_7\n      jumpi\n      dup1\n      0xdc0d3dff\n      eq\n      tag_8\n      jumpi\n      revert(0x00, 0x00)\n    tag_9:\n      dup1\n      0x0d8e6e2c\n      eq\n      tag_2\n      jumpi\n      dup1\n      0x3430a88c\n      eq\n      tag_3\n      jumpi\n      dup1\n      0x3ccfd60b\n      eq\n      tag_4\n      jumpi\n    tag_1:\n      revert(0x00, 0x00)\n        /* \"contracts/FundMe.sol\":2575:2728  function getVersion() public view returns (uint256){... */\n    tag_2:\n      callvalue\n      dup1\n      iszero\n      tag_10\n      jumpi\n      revert(0x00, 0x00)\n    tag_10:\n      pop\n        /* \"contracts/FundMe.sol\":2618:2625  uint256 */\n      0x00\n        /* \"contracts/FundMe.sol\":2575:2728  function getVersion() public view returns (uint256){... */\n    tag_11:\n      mload(0x40)\n        /* \"#utility.yul\":160:185   */\n      swap1\n      dup2\n      mstore\n        /* \"#utility.yul\":148:150   */\n      0x20\n        /* \"#utility.yul\":133:151   */\n      add\n        /* \"contracts/FundMe.sol\":2575:2728  function getVersion() public view returns (uint256){... */\n    tag_13:\n      mload(0x40)\n      dup1\n      swap2\n      sub\n      swap1\n      return\n        /* \"contracts/FundMe.sol\":693:722  uint256 public minimumUSD = 5 */\n    tag_3:\n      callvalue\n      dup1\n      iszero\n      tag_15\n      jumpi\n      revert(0x00, 0x00)\n    tag_15:\n      pop\n      tag_11\n      sload(0x01)\n      dup2\n      jump\n        /* \"contracts/FundMe.sol\":2538:2567  function withdraw() public {} */\n    tag_4:\n      callvalue\n      dup1\n      iszero\n      tag_19\n      jumpi\n      revert(0x00, 0x00)\n    tag_19:\n      pop\n    tag_20:\n      stop\n        /* \"contracts/FundMe.sol\":2244:2475  function getConversionRate(uint256 ethAmount) public view... */\n    tag_5:\n      callvalue\n      dup1\n      iszero\n      tag_22\n      jumpi\n      revert(0x00, 0x00)\n    tag_22:\n      pop\n      tag_11\n      tag_24\n      calldatasize\n      0x04\n      tag_25\n      jump\t// in\n    tag_24:\n      tag_26\n      jump\t// in\n        /* \"contracts/FundMe.sol\":1484:2132  function getPrice() public view returns(uint256) {... */\n    tag_6:\n      callvalue\n      dup1\n      iszero\n      tag_28\n      jumpi\n      revert(0x00, 0x00)\n    tag_28:\n      pop\n      tag_11\n      tag_30\n      jump\t// in\n        /* \"contracts/FundMe.sol\":1060:1338  function fund() public payable  {... */\n    tag_7:\n      tag_20\n      tag_33\n      jump\t// in\n        /* \"contracts/FundMe.sol\":479:503  address[] public funders */\n    tag_8:\n      callvalue\n      dup1\n      iszero\n      tag_34\n      jumpi\n      revert(0x00, 0x00)\n    tag_34:\n      pop\n      tag_35\n      tag_36\n      calldatasize\n      0x04\n      tag_25\n      jump\t// in\n    tag_36:\n      tag_37\n      jump\t// in\n    tag_35:\n      mload(0x40)\n      sub(shl(0xa0, 0x01), 0x01)\n        /* \"#utility.yul\":545:577   */\n      swap1\n      swap2\n      and\n        /* \"#utility.yul\":527:578   */\n      dup2\n      mstore\n        /* \"#utility.yul\":515:517   */\n      0x20\n        /* \"#utility.yul\":500:518   */\n      add\n        /* \"contracts/FundMe.sol\":479:503  address[] public funders */\n      tag_13\n        /* \"#utility.yul\":381:584   */\n      jump\n        /* \"contracts/FundMe.sol\":2244:2475  function getConversionRate(uint256 ethAmount) public view... */\n    tag_26:\n        /* \"contracts/FundMe.sol\":2316:2323  uint256 */\n      0x00\n        /* \"contracts/FundMe.sol\":2335:2351  uint256 ethPrice */\n      0x00\n        /* \"contracts/FundMe.sol\":2354:2364  getPrice() */\n      tag_43\n        /* \"contracts/FundMe.sol\":2354:2362  getPrice */\n      tag_30\n        /* \"contracts/FundMe.sol\":2354:2364  getPrice() */\n      jump\t// in\n    tag_43:\n        /* \"contracts/FundMe.sol\":2335:2364  uint256 ethPrice = getPrice() */\n      swap1\n      pop\n        /* \"contracts/FundMe.sol\":2375:2397  uint256 ethAmountinUSD */\n      0x00\n        /* \"contracts/FundMe.sol\":2425:2429  1e36 */\n      0xc097ce7bc90715b34b9f1000000000\n        /* \"contracts/FundMe.sol\":2401:2421  ethPrice * ethAmount */\n      tag_44\n        /* \"contracts/FundMe.sol\":2412:2421  ethAmount */\n      dup6\n        /* \"contracts/FundMe.sol\":2335:2364  uint256 ethPrice = getPrice() */\n      dup5\n        /* \"contracts/FundMe.sol\":2401:2421  ethPrice * ethAmount */\n      tag_45\n      jump\t// in\n    tag_44:\n        /* \"contracts/FundMe.sol\":2400:2429  (ethPrice * ethAmount) / 1e36 */\n      tag_46\n      swap2\n      swap1\n      tag_47\n      jump\t// in\n    tag_46:\n        /* \"contracts/FundMe.sol\":2375:2429  uint256 ethAmountinUSD = (ethPrice * ethAmount) / 1e36 */\n      swap5\n        /* \"contracts/FundMe.sol\":2244:2475  function getConversionRate(uint256 ethAmount) public view... */\n      swap4\n      pop\n      pop\n      pop\n      pop\n      jump\t// out\n        /* \"contracts/FundMe.sol\":1484:2132  function getPrice() public view returns(uint256) {... */\n    tag_30:\n        /* \"contracts/FundMe.sol\":1524:1531  uint256 */\n      0x00\n        /* \"contracts/FundMe.sol\":1608:1638  AggregatorV3Interface dataFeed */\n      0x00\n        /* \"contracts/FundMe.sol\":1673:1715  0x694AA1769357215DE4FAC081bf1f309aDC325306 */\n      0x694aa1769357215de4fac081bf1f309adc325306\n        /* \"contracts/FundMe.sol\":1608:1716  AggregatorV3Interface dataFeed = AggregatorV3Interface... */\n      swap1\n      pop\n        /* \"contracts/FundMe.sol\":1728:1741  int256 answer */\n      0x00\n        /* \"contracts/FundMe.sol\":1748:1756  dataFeed */\n      dup2\n      sub(shl(0xa0, 0x01), 0x01)\n        /* \"contracts/FundMe.sol\":1748:1772  dataFeed.latestRoundData */\n      and\n      0xfeaf968c\n        /* \"contracts/FundMe.sol\":1748:1774  dataFeed.latestRoundData() */\n      mload(0x40)\n      dup2\n      0xffffffff\n      and\n      0xe0\n      shl\n      dup2\n      mstore\n      0x04\n      add\n      0xa0\n      mload(0x40)\n      dup1\n      dup4\n      sub\n      dup2\n      dup7\n      gas\n      staticcall\n      iszero\n      dup1\n      iszero\n      tag_50\n      jumpi\n      returndatacopy(0x00, 0x00, returndatasize)\n      revert(0x00, returndatasize)\n    tag_50:\n      pop\n      pop\n      pop\n      pop\n      mload(0x40)\n      returndatasize\n      not(0x1f)\n      0x1f\n      dup3\n      add\n      and\n      dup3\n      add\n      dup1\n      0x40\n      mstore\n      pop\n      dup2\n      add\n      swap1\n      tag_51\n      swap2\n      swap1\n      tag_52\n      jump\t// in\n    tag_51:\n        /* \"contracts/FundMe.sol\":1726:1774  (,int256 answer,,,) = dataFeed.latestRoundData() */\n      pop\n      pop\n      pop\n      swap2\n      pop\n      pop\n        /* \"contracts/FundMe.sol\":1796:1802  answer */\n      dup1\n        /* \"contracts/FundMe.sol\":1805:1809  1e18 */\n      0x0de0b6b3a7640000\n        /* \"contracts/FundMe.sol\":1796:1809  answer * 1e18 */\n      tag_53\n      swap2\n      swap1\n      tag_54\n      jump\t// in\n    tag_53:\n        /* \"contracts/FundMe.sol\":1781:1810  return uint256(answer * 1e18) */\n      swap3\n      pop\n      pop\n      pop\n        /* \"contracts/FundMe.sol\":1484:2132  function getPrice() public view returns(uint256) {... */\n      swap1\n      jump\t// out\n        /* \"contracts/FundMe.sol\":1060:1338  function fund() public payable  {... */\n    tag_33:\n        /* \"contracts/FundMe.sol\":1230:1240  minimumUSD */\n      sload(0x01)\n        /* \"contracts/FundMe.sol\":1198:1226  getConversionRate(msg.value) */\n      tag_56\n        /* \"contracts/FundMe.sol\":1216:1225  msg.value */\n      callvalue\n        /* \"contracts/FundMe.sol\":1198:1215  getConversionRate */\n      tag_26\n        /* \"contracts/FundMe.sol\":1198:1226  getConversionRate(msg.value) */\n      jump\t// in\n    tag_56:\n        /* \"contracts/FundMe.sol\":1198:1240  getConversionRate(msg.value) >= minimumUSD */\n      lt\n      iszero\n        /* \"contracts/FundMe.sol\":1190:1269  require(getConversionRate(msg.value) >= minimumUSD, ... */\n      tag_57\n      jumpi\n      mload(0x40)\n      shl(0xe5, 0x461bcd)\n      dup2\n      mstore\n        /* \"#utility.yul\":2320:2322   */\n      0x20\n        /* \"contracts/FundMe.sol\":1190:1269  require(getConversionRate(msg.value) >= minimumUSD, ... */\n      0x04\n      dup3\n      add\n        /* \"#utility.yul\":2302:2323   */\n      mstore\n        /* \"#utility.yul\":2359:2361   */\n      0x0e\n        /* \"#utility.yul\":2339:2357   */\n      0x24\n      dup3\n      add\n        /* \"#utility.yul\":2332:2362   */\n      mstore\n      shl(0x93, 0x0dcde40cadcdeeaced0e8408aa89)\n        /* \"#utility.yul\":2378:2396   */\n      0x44\n      dup3\n      add\n        /* \"#utility.yul\":2371:2415   */\n      mstore\n        /* \"#utility.yul\":2432:2450   */\n      0x64\n      add\n        /* \"contracts/FundMe.sol\":1190:1269  require(getConversionRate(msg.value) >= minimumUSD, ... */\n      mload(0x40)\n      dup1\n      swap2\n      sub\n      swap1\n      revert\n    tag_57:\n        /* \"contracts/FundMe.sol\":1306:1313  funders */\n      0x00\n        /* \"contracts/FundMe.sol\":1306:1330  funders.push(msg.sender) */\n      dup1\n      sload\n      0x01\n      dup2\n      add\n      dup3\n      sstore\n      swap1\n      dup1\n      mstore\n      0x290decd9548b62a8d60345a988386fc84ba6bc95484008f6362f93160ef3e563\n      add\n      dup1\n      sload\n      not(sub(shl(0xa0, 0x01), 0x01))\n      and\n        /* \"contracts/FundMe.sol\":1319:1329  msg.sender */\n      caller\n        /* \"contracts/FundMe.sol\":1306:1330  funders.push(msg.sender) */\n      or\n      swap1\n      sstore\n        /* \"contracts/FundMe.sol\":1060:1338  function fund() public payable  {... */\n      jump\t// out\n        /* \"contracts/FundMe.sol\":479:503  address[] public funders */\n    tag_37:\n      0x00\n      dup2\n      dup2\n      sload\n      dup2\n      lt\n      tag_61\n      jumpi\n      0x00\n      dup1\n      revert\n    tag_61:\n      0x00\n      swap2\n      dup3\n      mstore\n      0x20\n      swap1\n      swap2\n      keccak256\n      add\n      sload\n      sub(shl(0xa0, 0x01), 0x01)\n      and\n      swap1\n      pop\n      dup2\n      jump\t// out\n        /* \"#utility.yul\":196:376   */\n    tag_25:\n        /* \"#utility.yul\":255:261   */\n      0x00\n        /* \"#utility.yul\":308:310   */\n      0x20\n        /* \"#utility.yul\":296:305   */\n      dup3\n        /* \"#utility.yul\":287:294   */\n      dup5\n        /* \"#utility.yul\":283:306   */\n      sub\n        /* \"#utility.yul\":279:311   */\n      slt\n        /* \"#utility.yul\":276:328   */\n      iszero\n      tag_68\n      jumpi\n        /* \"#utility.yul\":324:325   */\n      0x00\n        /* \"#utility.yul\":321:322   */\n      0x00\n        /* \"#utility.yul\":314:326   */\n      revert\n        /* \"#utility.yul\":276:328   */\n    tag_68:\n      pop\n        /* \"#utility.yul\":347:370   */\n      calldataload\n      swap2\n        /* \"#utility.yul\":196:376   */\n      swap1\n      pop\n      jump\t// out\n        /* \"#utility.yul\":589:716   */\n    tag_63:\n        /* \"#utility.yul\":650:660   */\n      0x4e487b71\n        /* \"#utility.yul\":645:648   */\n      0xe0\n        /* \"#utility.yul\":641:661   */\n      shl\n        /* \"#utility.yul\":638:639   */\n      0x00\n        /* \"#utility.yul\":631:662   */\n      mstore\n        /* \"#utility.yul\":681:685   */\n      0x11\n        /* \"#utility.yul\":678:679   */\n      0x04\n        /* \"#utility.yul\":671:686   */\n      mstore\n        /* \"#utility.yul\":705:709   */\n      0x24\n        /* \"#utility.yul\":702:703   */\n      0x00\n        /* \"#utility.yul\":695:710   */\n      revert\n        /* \"#utility.yul\":721:889   */\n    tag_45:\n        /* \"#utility.yul\":794:803   */\n      dup1\n      dup3\n      mul\n        /* \"#utility.yul\":825:834   */\n      dup2\n      iszero\n        /* \"#utility.yul\":842:857   */\n      dup3\n      dup3\n      div\n        /* \"#utility.yul\":836:858   */\n      dup5\n      eq\n        /* \"#utility.yul\":822:859   */\n      or\n        /* \"#utility.yul\":812:883   */\n      tag_73\n      jumpi\n        /* \"#utility.yul\":863:881   */\n      tag_73\n      tag_63\n      jump\t// in\n    tag_73:\n        /* \"#utility.yul\":721:889   */\n      swap3\n      swap2\n      pop\n      pop\n      jump\t// out\n        /* \"#utility.yul\":894:1111   */\n    tag_47:\n        /* \"#utility.yul\":934:935   */\n      0x00\n        /* \"#utility.yul\":960:961   */\n      dup3\n        /* \"#utility.yul\":950:1082   */\n      tag_75\n      jumpi\n        /* \"#utility.yul\":1004:1014   */\n      0x4e487b71\n        /* \"#utility.yul\":999:1002   */\n      0xe0\n        /* \"#utility.yul\":995:1015   */\n      shl\n        /* \"#utility.yul\":992:993   */\n      0x00\n        /* \"#utility.yul\":985:1016   */\n      mstore\n        /* \"#utility.yul\":1039:1043   */\n      0x12\n        /* \"#utility.yul\":1036:1037   */\n      0x04\n        /* \"#utility.yul\":1029:1044   */\n      mstore\n        /* \"#utility.yul\":1067:1071   */\n      0x24\n        /* \"#utility.yul\":1064:1065   */\n      0x00\n        /* \"#utility.yul\":1057:1072   */\n      revert\n        /* \"#utility.yul\":950:1082   */\n    tag_75:\n      pop\n        /* \"#utility.yul\":1096:1105   */\n      div\n      swap1\n        /* \"#utility.yul\":894:1111   */\n      jump\t// out\n        /* \"#utility.yul\":1116:1295   */\n    tag_64:\n        /* \"#utility.yul\":1194:1207   */\n      dup1\n      mload\n        /* \"#utility.yul\":1247:1269   */\n      0xffffffffffffffffffff\n        /* \"#utility.yul\":1236:1270   */\n      dup2\n      and\n        /* \"#utility.yul\":1226:1271   */\n      dup2\n      eq\n        /* \"#utility.yul\":1216:1289   */\n      tag_77\n      jumpi\n        /* \"#utility.yul\":1285:1286   */\n      0x00\n        /* \"#utility.yul\":1282:1283   */\n      0x00\n        /* \"#utility.yul\":1275:1287   */\n      revert\n        /* \"#utility.yul\":1216:1289   */\n    tag_77:\n        /* \"#utility.yul\":1116:1295   */\n      swap2\n      swap1\n      pop\n      jump\t// out\n        /* \"#utility.yul\":1300:1871   */\n    tag_52:\n        /* \"#utility.yul\":1403:1409   */\n      0x00\n        /* \"#utility.yul\":1411:1417   */\n      0x00\n        /* \"#utility.yul\":1419:1425   */\n      0x00\n        /* \"#utility.yul\":1427:1433   */\n      0x00\n        /* \"#utility.yul\":1435:1441   */\n      0x00\n        /* \"#utility.yul\":1488:1491   */\n      0xa0\n        /* \"#utility.yul\":1476:1485   */\n      dup7\n        /* \"#utility.yul\":1467:1474   */\n      dup9\n        /* \"#utility.yul\":1463:1486   */\n      sub\n        /* \"#utility.yul\":1459:1492   */\n      slt\n        /* \"#utility.yul\":1456:1509   */\n      iszero\n      tag_79\n      jumpi\n        /* \"#utility.yul\":1505:1506   */\n      0x00\n        /* \"#utility.yul\":1502:1503   */\n      0x00\n        /* \"#utility.yul\":1495:1507   */\n      revert\n        /* \"#utility.yul\":1456:1509   */\n    tag_79:\n        /* \"#utility.yul\":1528:1567   */\n      tag_80\n        /* \"#utility.yul\":1557:1566   */\n      dup7\n        /* \"#utility.yul\":1528:1567   */\n      tag_64\n      jump\t// in\n    tag_80:\n        /* \"#utility.yul\":1607:1609   */\n      0x20\n        /* \"#utility.yul\":1592:1610   */\n      dup8\n      add\n        /* \"#utility.yul\":1586:1611   */\n      mload\n        /* \"#utility.yul\":1673:1675   */\n      0x40\n        /* \"#utility.yul\":1658:1676   */\n      dup9\n      add\n        /* \"#utility.yul\":1652:1677   */\n      mload\n        /* \"#utility.yul\":1767:1769   */\n      0x60\n        /* \"#utility.yul\":1752:1770   */\n      dup10\n      add\n        /* \"#utility.yul\":1746:1771   */\n      mload\n        /* \"#utility.yul\":1518:1567   */\n      swap3\n      swap8\n      pop\n        /* \"#utility.yul\":1586:1611   */\n      swap1\n      swap6\n      pop\n        /* \"#utility.yul\":1652:1677   */\n      swap4\n      pop\n        /* \"#utility.yul\":1746:1771   */\n      swap2\n      pop\n        /* \"#utility.yul\":1816:1865   */\n      tag_81\n        /* \"#utility.yul\":1860:1863   */\n      0x80\n        /* \"#utility.yul\":1845:1864   */\n      dup8\n      add\n        /* \"#utility.yul\":1816:1865   */\n      tag_64\n      jump\t// in\n    tag_81:\n        /* \"#utility.yul\":1806:1865   */\n      swap1\n      pop\n        /* \"#utility.yul\":1300:1871   */\n      swap3\n      swap6\n      pop\n      swap3\n      swap6\n      swap1\n      swap4\n      pop\n      jump\t// out\n        /* \"#utility.yul\":1876:2113   */\n    tag_54:\n        /* \"#utility.yul\":1948:1957   */\n      dup1\n      dup3\n      mul\n        /* \"#utility.yul\":1915:1922   */\n      0x00\n        /* \"#utility.yul\":1973:1982   */\n      dup3\n      slt\n      shl(0xff, 0x01)\n        /* \"#utility.yul\":1984:2002   */\n      dup5\n      eq\n        /* \"#utility.yul\":1969:2003   */\n      and\n        /* \"#utility.yul\":1966:2026   */\n      iszero\n      tag_84\n      jumpi\n        /* \"#utility.yul\":2006:2024   */\n      tag_84\n      tag_63\n      jump\t// in\n    tag_84:\n        /* \"#utility.yul\":2079:2080   */\n      dup2\n        /* \"#utility.yul\":2070:2077   */\n      dup2\n        /* \"#utility.yul\":2065:2081   */\n      sdiv\n        /* \"#utility.yul\":2062:2063   */\n      dup4\n        /* \"#utility.yul\":2059:2082   */\n      eq\n        /* \"#utility.yul\":2055:2056   */\n      dup3\n        /* \"#utility.yul\":2048:2057   */\n      iszero\n        /* \"#utility.yul\":2045:2083   */\n      or\n        /* \"#utility.yul\":2035:2107   */\n      tag_73\n      jumpi\n        /* \"#utility.yul\":2087:2105   */\n      tag_73\n      tag_63\n      jump\t// in\n\n    auxdata: 0xa2646970667358221220894d2450fa30aa9a96d62fe0ceea2c3957b2e163a75694064c95c8d196fd9f9a64736f6c634300081e0033\n}\n",
				"bytecode": {
					"linkReferences": {},
					"object": "608060405260056001553480156013575f5ffd5b506103eb806100215f395ff3fe60806040526004361061006e575f3560e01c80636e5b6b281161004c5780636e5b6b28146100b757806398d5fdca146100d6578063b60d4288146100ea578063dc0d3dff146100f2575f5ffd5b80630d8e6e2c146100725780633430a88c146100935780633ccfd60b146100a8575b5f5ffd5b34801561007d575f5ffd5b505f5b6040519081526020015b60405180910390f35b34801561009e575f5ffd5b5061008060015481565b3480156100b3575f5ffd5b505b005b3480156100c2575f5ffd5b506100806100d13660046102b3565b610129565b3480156100e1575f5ffd5b50610080610162565b6100b56101fd565b3480156100fd575f5ffd5b5061011161010c3660046102b3565b61028c565b6040516001600160a01b03909116815260200161008a565b5f5f610133610162565b90505f6ec097ce7bc90715b34b9f100000000061015085846102de565b61015a91906102fb565b949350505050565b5f5f73694aa1769357215de4fac081bf1f309adc32530690505f816001600160a01b031663feaf968c6040518163ffffffff1660e01b815260040160a060405180830381865afa1580156101b8573d5f5f3e3d5ffd5b505050506040513d601f19601f820116820180604052508101906101dc9190610338565b50505091505080670de0b6b3a76400006101f69190610386565b9250505090565b60015461020934610129565b101561024c5760405162461bcd60e51b815260206004820152600e60248201526d0dcde40cadcdeeaced0e8408aa8960931b604482015260640160405180910390fd5b5f80546001810182559080527f290decd9548b62a8d60345a988386fc84ba6bc95484008f6362f93160ef3e5630180546001600160a01b03191633179055565b5f818154811061029a575f80fd5b5f918252602090912001546001600160a01b0316905081565b5f602082840312156102c3575f5ffd5b5035919050565b634e487b7160e01b5f52601160045260245ffd5b80820281158282048414176102f5576102f56102ca565b92915050565b5f8261031557634e487b7160e01b5f52601260045260245ffd5b500490565b805169ffffffffffffffffffff81168114610333575f5ffd5b919050565b5f5f5f5f5f60a0868803121561034c575f5ffd5b6103558661031a565b6020870151604088015160608901519297509095509350915061037a6080870161031a565b90509295509295909350565b8082025f8212600160ff1b841416156103a1576103a16102ca565b81810583148215176102f5576102f56102ca56fea2646970667358221220894d2450fa30aa9a96d62fe0ceea2c3957b2e163a75694064c95c8d196fd9f9a64736f6c634300081e0033",
					"opcodes": "PUSH1 0x80 PUSH1 0x40 MSTORE PUSH1 0x5 PUSH1 0x1 SSTORE CALLVALUE DUP1 ISZERO PUSH1 0x13 JUMPI PUSH0 PUSH0 REVERT JUMPDEST POP PUSH2 0x3EB DUP1 PUSH2 0x21 PUSH0 CODECOPY PUSH0 RETURN INVALID PUSH1 0x80 PUSH1 0x40 MSTORE PUSH1 0x4 CALLDATASIZE LT PUSH2 0x6E JUMPI PUSH0 CALLDATALOAD PUSH1 0xE0 SHR DUP1 PUSH4 0x6E5B6B28 GT PUSH2 0x4C JUMPI DUP1 PUSH4 0x6E5B6B28 EQ PUSH2 0xB7 JUMPI DUP1 PUSH4 0x98D5FDCA EQ PUSH2 0xD6 JUMPI DUP1 PUSH4 0xB60D4288 EQ PUSH2 0xEA JUMPI DUP1 PUSH4 0xDC0D3DFF EQ PUSH2 0xF2 JUMPI PUSH0 PUSH0 REVERT JUMPDEST DUP1 PUSH4 0xD8E6E2C EQ PUSH2 0x72 JUMPI DUP1 PUSH4 0x3430A88C EQ PUSH2 0x93 JUMPI DUP1 PUSH4 0x3CCFD60B EQ PUSH2 0xA8 JUMPI JUMPDEST PUSH0 PUSH0 REVERT JUMPDEST CALLVALUE DUP1 ISZERO PUSH2 0x7D JUMPI PUSH0 PUSH0 REVERT JUMPDEST POP PUSH0 JUMPDEST PUSH1 0x40 MLOAD SWAP1 DUP2 MSTORE PUSH1 0x20 ADD JUMPDEST PUSH1 0x40 MLOAD DUP1 SWAP2 SUB SWAP1 RETURN JUMPDEST CALLVALUE DUP1 ISZERO PUSH2 0x9E JUMPI PUSH0 PUSH0 REVERT JUMPDEST POP PUSH2 0x80 PUSH1 0x1 SLOAD DUP2 JUMP JUMPDEST CALLVALUE DUP1 ISZERO PUSH2 0xB3 JUMPI PUSH0 PUSH0 REVERT JUMPDEST POP JUMPDEST STOP JUMPDEST CALLVALUE DUP1 ISZERO PUSH2 0xC2 JUMPI PUSH0 PUSH0 REVERT JUMPDEST POP PUSH2 0x80 PUSH2 0xD1 CALLDATASIZE PUSH1 0x4 PUSH2 0x2B3 JUMP JUMPDEST PUSH2 0x129 JUMP JUMPDEST CALLVALUE DUP1 ISZERO PUSH2 0xE1 JUMPI PUSH0 PUSH0 REVERT JUMPDEST POP PUSH2 0x80 PUSH2 0x162 JUMP JUMPDEST PUSH2 0xB5 PUSH2 0x1FD JUMP JUMPDEST CALLVALUE DUP1 ISZERO PUSH2 0xFD JUMPI PUSH0 PUSH0 REVERT JUMPDEST POP PUSH2 0x111 PUSH2 0x10C CALLDATASIZE PUSH1 0x4 PUSH2 0x2B3 JUMP JUMPDEST PUSH2 0x28C JUMP JUMPDEST PUSH1 0x40 MLOAD PUSH1 0x1 PUSH1 0x1 PUSH1 0xA0 SHL SUB SWAP1 SWAP2 AND DUP2 MSTORE PUSH1 0x20 ADD PUSH2 0x8A JUMP JUMPDEST PUSH0 PUSH0 PUSH2 0x133 PUSH2 0x162 JUMP JUMPDEST SWAP1 POP PUSH0 PUSH15 0xC097CE7BC90715B34B9F1000000000 PUSH2 0x150 DUP6 DUP5 PUSH2 0x2DE JUMP JUMPDEST PUSH2 0x15A SWAP2 SWAP1 PUSH2 0x2FB JUMP JUMPDEST SWAP5 SWAP4 POP POP POP POP JUMP JUMPDEST PUSH0 PUSH0 PUSH20 0x694AA1769357215DE4FAC081BF1F309ADC325306 SWAP1 POP PUSH0 DUP2 PUSH1 0x1 PUSH1 0x1 PUSH1 0xA0 SHL SUB AND PUSH4 0xFEAF968C PUSH1 0x40 MLOAD DUP2 PUSH4 0xFFFFFFFF AND PUSH1 0xE0 SHL DUP2 MSTORE PUSH1 0x4 ADD PUSH1 0xA0 PUSH1 0x40 MLOAD DUP1 DUP4 SUB DUP2 DUP7 GAS STATICCALL ISZERO DUP1 ISZERO PUSH2 0x1B8 JUMPI RETURNDATASIZE PUSH0 PUSH0 RETURNDATACOPY RETURNDATASIZE PUSH0 REVERT JUMPDEST POP POP POP POP PUSH1 0x40 MLOAD RETURNDATASIZE PUSH1 0x1F NOT PUSH1 0x1F DUP3 ADD AND DUP3 ADD DUP1 PUSH1 0x40 MSTORE POP DUP2 ADD SWAP1 PUSH2 0x1DC SWAP2 SWAP1 PUSH2 0x338 JUMP JUMPDEST POP POP POP SWAP2 POP POP DUP1 PUSH8 0xDE0B6B3A7640000 PUSH2 0x1F6 SWAP2 SWAP1 PUSH2 0x386 JUMP JUMPDEST SWAP3 POP POP POP SWAP1 JUMP JUMPDEST PUSH1 0x1 SLOAD PUSH2 0x209 CALLVALUE PUSH2 0x129 JUMP JUMPDEST LT ISZERO PUSH2 0x24C JUMPI PUSH1 0x40 MLOAD PUSH3 0x461BCD PUSH1 0xE5 SHL DUP2 MSTORE PUSH1 0x20 PUSH1 0x4 DUP3 ADD MSTORE PUSH1 0xE PUSH1 0x24 DUP3 ADD MSTORE PUSH14 0xDCDE40CADCDEEACED0E8408AA89 PUSH1 0x93 SHL PUSH1 0x44 DUP3 ADD MSTORE PUSH1 0x64 ADD PUSH1 0x40 MLOAD DUP1 SWAP2 SUB SWAP1 REVERT JUMPDEST PUSH0 DUP1 SLOAD PUSH1 0x1 DUP2 ADD DUP3 SSTORE SWAP1 DUP1 MSTORE PUSH32 0x290DECD9548B62A8D60345A988386FC84BA6BC95484008F6362F93160EF3E563 ADD DUP1 SLOAD PUSH1 0x1 PUSH1 0x1 PUSH1 0xA0 SHL SUB NOT AND CALLER OR SWAP1 SSTORE JUMP JUMPDEST PUSH0 DUP2 DUP2 SLOAD DUP2 LT PUSH2 0x29A JUMPI PUSH0 DUP1 REVERT JUMPDEST PUSH0 SWAP2 DUP3 MSTORE PUSH1 0x20 SWAP1 SWAP2 KECCAK256 ADD SLOAD PUSH1 0x1 PUSH1 0x1 PUSH1 0xA0 SHL SUB AND SWAP1 POP DUP2 JUMP JUMPDEST PUSH0 PUSH1 0x20 DUP3 DUP5 SUB SLT ISZERO PUSH2 0x2C3 JUMPI PUSH0 PUSH0 REVERT JUMPDEST POP CALLDATALOAD SWAP2 SWAP1 POP JUMP JUMPDEST PUSH4 0x4E487B71 PUSH1 0xE0 SHL PUSH0 MSTORE PUSH1 0x11 PUSH1 0x4 MSTORE PUSH1 0x24 PUSH0 REVERT JUMPDEST DUP1 DUP3 MUL DUP2 ISZERO DUP3 DUP3 DIV DUP5 EQ OR PUSH2 0x2F5 JUMPI PUSH2 0x2F5 PUSH2 0x2CA JUMP JUMPDEST SWAP3 SWAP2 POP POP JUMP JUMPDEST PUSH0 DUP3 PUSH2 0x315 JUMPI PUSH4 0x4E487B71 PUSH1 0xE0 SHL PUSH0 MSTORE PUSH1 0x12 PUSH1 0x4 MSTORE PUSH1 0x24 PUSH0 REVERT JUMPDEST POP DIV SWAP1 JUMP JUMPDEST DUP1 MLOAD PUSH10 0xFFFFFFFFFFFFFFFFFFFF DUP2 AND DUP2 EQ PUSH2 0x333 JUMPI PUSH0 PUSH0 REVERT JUMPDEST SWAP2 SWAP1 POP JUMP JUMPDEST PUSH0 PUSH0 PUSH0 PUSH0 PUSH0 PUSH1 0xA0 DUP7 DUP9 SUB SLT ISZERO PUSH2 0x34C JUMPI PUSH0 PUSH0 REVERT JUMPDEST PUSH2 0x355 DUP7 PUSH2 0x31A JUMP JUMPDEST PUSH1 0x20 DUP8 ADD MLOAD PUSH1 0x40 DUP9 ADD MLOAD PUSH1 0x60 DUP10 ADD MLOAD SWAP3 SWAP8 POP SWAP1 SWAP6 POP SWAP4 POP SWAP2 POP PUSH2 0x37A PUSH1 0x80 DUP8 ADD PUSH2 0x31A JUMP JUMPDEST SWAP1 POP SWAP3 SWAP6 POP SWAP3 SWAP6 SWAP1 SWAP4 POP JUMP JUMPDEST DUP1 DUP3 MUL PUSH0 DUP3 SLT PUSH1 0x1 PUSH1 0xFF SHL DUP5 EQ AND ISZERO PUSH2 0x3A1 JUMPI PUSH2 0x3A1 PUSH2 0x2CA JUMP JUMPDEST DUP2 DUP2 SDIV DUP4 EQ DUP3 ISZERO OR PUSH2 0x2F5 JUMPI PUSH2 0x2F5 PUSH2 0x2CA JUMP INVALID LOG2 PUSH5 0x6970667358 0x22 SLT KECCAK256 DUP10 0x4D 0x24 POP STATICCALL ADDRESS 0xAA SWAP11 SWAP7 0xD6 0x2F RJUMP 0xCEEA 0x2C CODECOPY JUMPI 0xB2 RJUMPI 0x63A7 JUMP SWAP5 MOD 0x4C SWAP6 0xC8 DATALOADN 0x96FD SWAP16 SWAP11 PUSH5 0x736F6C6343 STOP ADDMOD 0x1E STOP CALLER "
				},
				"gasEstimates": {
					"creation": {
						"codeDepositCost": "200600",
						"executionCost": "22349",
						"totalCost": "222949"
					},
					"external": {
						"fund()": "infinite",
						"funders(uint256)": "4676",
						"getConversionRate(uint256)": "infinite",
						"getPrice()": "infinite",
						"getVersion()": "169",
						"minimumUSD()": "2306",
						"withdraw()": "165"
					}
				},
				"methodIdentifiers": {
					"fund()": "b60d4288",
					"funders(uint256)": "dc0d3dff",
					"getConversionRate(uint256)": "6e5b6b28",
					"getPrice()": "98d5fdca",
					"getVersion()": "0d8e6e2c",
					"minimumUSD()": "3430a88c",
					"withdraw()": "3ccfd60b"
				}
			},
			"storageLayout": {
				"storage": [
					{
						"astId": 52,
						"contract": "contracts/FundMe.sol:FundMe",
						"label": "funders",
						"offset": 0,
						"slot": "0",
						"type": "t_array(t_address)dyn_storage"
					},
					{
						"astId": 55,
						"contract": "contracts/FundMe.sol:FundMe",
						"label": "minimumUSD",
						"offset": 0,
						"slot": "1",
						"type": "t_uint256"
					}
				],
				"types": {
					"t_address": {
						"encoding": "inplace",
						"label": "address",
						"numberOfBytes": "20"
					},
					"t_array(t_address)dyn_storage": {
						"base": "t_address",
						"encoding": "dynamic_array",
						"label": "address[]",
						"numberOfBytes": "32"
					},
					"t_uint256": {
						"encoding": "inplace",
						"label": "uint256",
						"numberOfBytes": "32"
					}
				}
			},
			"userdoc": {
				"kind": "user",
				"methods": {},
				"version": 1
			}
		}
	}
}