{
	"data": {
		"bytecode": {
			"linkReferences": {},
			"object": "6080604052348015600e575f5ffd5b506102cc8061001c5f395ff3fe60806040526004361061003e575f3560e01c80633ccfd60b1461004257806398d5fdca14610051578063b60d428814610077578063e351332c1461007f575b5f5ffd5b34801561004d575f5ffd5b505b005b34801561005c575f5ffd5b506100656100a0565b60405190815260200160405180910390f35b61004f610138565b34801561008a575f5ffd5b506100656100993660046101cb565b610192565b565b5f5f73694aa1769357215de4fac081bf1f309adc32530690505f816001600160a01b031663feaf968c6040518163ffffffff1660e01b815260040160a060405180830381865afa1580156100f6573d5f5f3e3d5ffd5b505050506040513d601f19601f8201168201806040525081019061011a9190610200565b505050915050806402540be400610131919061024e565b9250505090565b655af3107a400034101561009e5760405162461bcd60e51b815260206004820152601860248201527f6469646e27742073656e6420656e6f7567682065746865720000000000000000604482015260640160405180910390fd5b5f5f61019c6100a0565b90505f6ec097ce7bc90715b34b9f10000000006101b9858461024e565b6101c39190610277565b949350505050565b5f602082840312156101db575f5ffd5b5035919050565b805169ffffffffffffffffffff811681146101fb575f5ffd5b919050565b5f5f5f5f5f60a08688031215610214575f5ffd5b61021d866101e2565b60208701516040880151606089015192975090955093509150610242608087016101e2565b90509295509295909350565b808202811582820484141761027157634e487b7160e01b5f52601160045260245ffd5b92915050565b5f8261029157634e487b7160e01b5f52601260045260245ffd5b50049056fea2646970667358221220a1bac9a173cd20cf85958e1ce6845436a7d44be6f5c448591b2c42bdcfec2e7764736f6c634300081e0033",
			"opcodes": "PUSH1 0x80 PUSH1 0x40 MSTORE CALLVALUE DUP1 ISZERO PUSH1 0xE JUMPI PUSH0 PUSH0 REVERT JUMPDEST POP PUSH2 0x2CC DUP1 PUSH2 0x1C PUSH0 CODECOPY PUSH0 RETURN INVALID PUSH1 0x80 PUSH1 0x40 MSTORE PUSH1 0x4 CALLDATASIZE LT PUSH2 0x3E JUMPI PUSH0 CALLDATALOAD PUSH1 0xE0 SHR DUP1 PUSH4 0x3CCFD60B EQ PUSH2 0x42 JUMPI DUP1 PUSH4 0x98D5FDCA EQ PUSH2 0x51 JUMPI DUP1 PUSH4 0xB60D4288 EQ PUSH2 0x77 JUMPI DUP1 PUSH4 0xE351332C EQ PUSH2 0x7F JUMPI JUMPDEST PUSH0 PUSH0 REVERT JUMPDEST CALLVALUE DUP1 ISZERO PUSH2 0x4D JUMPI PUSH0 PUSH0 REVERT JUMPDEST POP JUMPDEST STOP JUMPDEST CALLVALUE DUP1 ISZERO PUSH2 0x5C JUMPI PUSH0 PUSH0 REVERT JUMPDEST POP PUSH2 0x65 PUSH2 0xA0 JUMP JUMPDEST PUSH1 0x40 MLOAD SWAP1 DUP2 MSTORE PUSH1 0x20 ADD PUSH1 0x40 MLOAD DUP1 SWAP2 SUB SWAP1 RETURN JUMPDEST PUSH2 0x4F PUSH2 0x138 JUMP JUMPDEST CALLVALUE DUP1 ISZERO PUSH2 0x8A JUMPI PUSH0 PUSH0 REVERT JUMPDEST POP PUSH2 0x65 PUSH2 0x99 CALLDATASIZE PUSH1 0x4 PUSH2 0x1CB JUMP JUMPDEST PUSH2 0x192 JUMP JUMPDEST JUMP JUMPDEST PUSH0 PUSH0 PUSH20 0x694AA1769357215DE4FAC081BF1F309ADC325306 SWAP1 POP PUSH0 DUP2 PUSH1 0x1 PUSH1 0x1 PUSH1 0xA0 SHL SUB AND PUSH4 0xFEAF968C PUSH1 0x40 MLOAD DUP2 PUSH4 0xFFFFFFFF AND PUSH1 0xE0 SHL DUP2 MSTORE PUSH1 0x4 ADD PUSH1 0xA0 PUSH1 0x40 MLOAD DUP1 DUP4 SUB DUP2 DUP7 GAS STATICCALL ISZERO DUP1 ISZERO PUSH2 0xF6 JUMPI RETURNDATASIZE PUSH0 PUSH0 RETURNDATACOPY RETURNDATASIZE PUSH0 REVERT JUMPDEST POP POP POP POP PUSH1 0x40 MLOAD RETURNDATASIZE PUSH1 0x1F NOT PUSH1 0x1F DUP3 ADD AND DUP3 ADD DUP1 PUSH1 0x40 MSTORE POP DUP2 ADD SWAP1 PUSH2 0x11A SWAP2 SWAP1 PUSH2 0x200 JUMP JUMPDEST POP POP POP SWAP2 POP POP DUP1 PUSH5 0x2540BE400 PUSH2 0x131 SWAP2 SWAP1 PUSH2 0x24E JUMP JUMPDEST SWAP3 POP POP POP SWAP1 JUMP JUMPDEST PUSH6 0x5AF3107A4000 CALLVALUE LT ISZERO PUSH2 0x9E JUMPI PUSH1 0x40 MLOAD PUSH3 0x461BCD PUSH1 0xE5 SHL DUP2 MSTORE PUSH1 0x20 PUSH1 0x4 DUP3 ADD MSTORE PUSH1 0x18 PUSH1 0x24 DUP3 ADD MSTORE PUSH32 0x6469646E27742073656E6420656E6F7567682065746865720000000000000000 PUSH1 0x44 DUP3 ADD MSTORE PUSH1 0x64 ADD PUSH1 0x40 MLOAD DUP1 SWAP2 SUB SWAP1 REVERT JUMPDEST PUSH0 PUSH0 PUSH2 0x19C PUSH2 0xA0 JUMP JUMPDEST SWAP1 POP PUSH0 PUSH15 0xC097CE7BC90715B34B9F1000000000 PUSH2 0x1B9 DUP6 DUP5 PUSH2 0x24E JUMP JUMPDEST PUSH2 0x1C3 SWAP2 SWAP1 PUSH2 0x277 JUMP JUMPDEST SWAP5 SWAP4 POP POP POP POP JUMP JUMPDEST PUSH0 PUSH1 0x20 DUP3 DUP5 SUB SLT ISZERO PUSH2 0x1DB JUMPI PUSH0 PUSH0 REVERT JUMPDEST POP CALLDATALOAD SWAP2 SWAP1 POP JUMP JUMPDEST DUP1 MLOAD PUSH10 0xFFFFFFFFFFFFFFFFFFFF DUP2 AND DUP2 EQ PUSH2 0x1FB JUMPI PUSH0 PUSH0 REVERT JUMPDEST SWAP2 SWAP1 POP JUMP JUMPDEST PUSH0 PUSH0 PUSH0 PUSH0 PUSH0 PUSH1 0xA0 DUP7 DUP9 SUB SLT ISZERO PUSH2 0x214 JUMPI PUSH0 PUSH0 REVERT JUMPDEST PUSH2 0x21D DUP7 PUSH2 0x1E2 JUMP JUMPDEST PUSH1 0x20 DUP8 ADD MLOAD PUSH1 0x40 DUP9 ADD MLOAD PUSH1 0x60 DUP10 ADD MLOAD SWAP3 SWAP8 POP SWAP1 SWAP6 POP SWAP4 POP SWAP2 POP PUSH2 0x242 PUSH1 0x80 DUP8 ADD PUSH2 0x1E2 JUMP JUMPDEST SWAP1 POP SWAP3 SWAP6 POP SWAP3 SWAP6 SWAP1 SWAP4 POP JUMP JUMPDEST DUP1 DUP3 MUL DUP2 ISZERO DUP3 DUP3 DIV DUP5 EQ OR PUSH2 0x271 JUMPI PUSH4 0x4E487B71 PUSH1 0xE0 SHL PUSH0 MSTORE PUSH1 0x11 PUSH1 0x4 MSTORE PUSH1 0x24 PUSH0 REVERT JUMPDEST SWAP3 SWAP2 POP POP JUMP JUMPDEST PUSH0 DUP3 PUSH2 0x291 JUMPI PUSH4 0x4E487B71 PUSH1 0xE0 SHL PUSH0 MSTORE PUSH1 0x12 PUSH1 0x4 MSTORE PUSH1 0x24 PUSH0 REVERT JUMPDEST POP DIV SWAP1 JUMP INVALID LOG2 PUSH5 0x6970667358 0x22 SLT KECCAK256 LOG1 0xBA 0xC9 LOG1 PUSH20 0xCD20CF85958E1CE6845436A7D44BE6F5C448591B 0x2C TIMESTAMP 0xBD 0xCF EOFCREATE 0x2E PUSH24 0x64736F6C634300081E003300000000000000000000000000 "
		},
		"gasEstimates": {
			"creation": {
				"codeDepositCost": "143200",
				"executionCost": "188",
				"totalCost": "143388"
			},
			"external": {
				"fund()": "261",
				"getConversionrate(uint256)": "infinite",
				"getPrice()": "infinite",
				"withdraw()": "98"
			}
		},
		"methodIdentifiers": {
			"fund()": "b60d4288",
			"getConversionrate(uint256)": "e351332c",
			"getPrice()": "98d5fdca",
			"withdraw()": "3ccfd60b"
		}
	},
	"abi": [
		{
			"inputs": [],
			"name": "fund",
			"outputs": [],
			"stateMutability": "payable",
			"type": "function"
		},
		{
			"inputs": [
				{
					"internalType": "uint256",
					"name": "ethAmount",
					"type": "uint256"
				}
			],
			"name": "getConversionrate",
			"outputs": [
				{
					"internalType": "uint256",
					"name": "",
					"type": "uint256"
				}
			],
			"stateMutability": "view",
			"type": "function"
		},
		{
			"inputs": [],
			"name": "getPrice",
			"outputs": [
				{
					"internalType": "uint256",
					"name": "",
					"type": "uint256"
				}
			],
			"stateMutability": "view",
			"type": "function"
		},
		{
			"inputs": [],
			"name": "withdraw",
			"outputs": [],
			"stateMutability": "nonpayable",
			"type": "function"
		}
	]
}