{
	"data": {
		"bytecode": {
			"linkReferences": {},
			"object": "608060405260055f553480156012575f5ffd5b50610124806100205f395ff3fe608060405260043610604d575f3560e01c80630d8e6e2c1460515780633430a88c1460705780633ccfd60b14608257806398d5fdca146090578063b60d428814609a578063f36089ec146082575b5f5ffd5b348015605b575f5ffd5b505f5b60405190815260200160405180910390f35b348015607a575f5ffd5b50605e5f5481565b348015608c575f5ffd5b505b005b348015608e575f5ffd5b608e60a2565b565b670de0b6b3a764000034101560a05760405162461bcd60e51b815260206004820152600e60248201526d0dcde40cadcdeeaced0e8408aa8960931b604482015260640160405180910390fdfea2646970667358221220f31b209d17c8f422153938205f5acc5ff516a4c18612fc6859d3cf1eab5f6b9f64736f6c634300081e0033",
			"opcodes": "PUSH1 0x80 PUSH1 0x40 MSTORE PUSH1 0x5 PUSH0 SSTORE CALLVALUE DUP1 ISZERO PUSH1 0x12 JUMPI PUSH0 PUSH0 REVERT JUMPDEST POP PUSH2 0x124 DUP1 PUSH2 0x20 PUSH0 CODECOPY PUSH0 RETURN INVALID PUSH1 0x80 PUSH1 0x40 MSTORE PUSH1 0x4 CALLDATASIZE LT PUSH1 0x4D JUMPI PUSH0 CALLDATALOAD PUSH1 0xE0 SHR DUP1 PUSH4 0xD8E6E2C EQ PUSH1 0x51 JUMPI DUP1 PUSH4 0x3430A88C EQ PUSH1 0x70 JUMPI DUP1 PUSH4 0x3CCFD60B EQ PUSH1 0x82 JUMPI DUP1 PUSH4 0x98D5FDCA EQ PUSH1 0x90 JUMPI DUP1 PUSH4 0xB60D4288 EQ PUSH1 0x9A JUMPI DUP1 PUSH4 0xF36089EC EQ PUSH1 0x82 JUMPI JUMPDEST PUSH0 PUSH0 REVERT JUMPDEST CALLVALUE DUP1 ISZERO PUSH1 0x5B JUMPI PUSH0 PUSH0 REVERT JUMPDEST POP PUSH0 JUMPDEST PUSH1 0x40 MLOAD SWAP1 DUP2 MSTORE PUSH1 0x20 ADD PUSH1 0x40 MLOAD DUP1 SWAP2 SUB SWAP1 RETURN JUMPDEST CALLVALUE DUP1 ISZERO PUSH1 0x7A JUMPI PUSH0 PUSH0 REVERT JUMPDEST POP PUSH1 0x5E PUSH0 SLOAD DUP2 JUMP JUMPDEST CALLVALUE DUP1 ISZERO PUSH1 0x8C JUMPI PUSH0 PUSH0 REVERT JUMPDEST POP JUMPDEST STOP JUMPDEST CALLVALUE DUP1 ISZERO PUSH1 0x8E JUMPI PUSH0 PUSH0 REVERT JUMPDEST PUSH1 0x8E PUSH1 0xA2 JUMP JUMPDEST JUMP JUMPDEST PUSH8 0xDE0B6B3A7640000 CALLVALUE LT ISZERO PUSH1 0xA0 JUMPI PUSH1 0x40 MLOAD PUSH3 0x461BCD PUSH1 0xE5 SHL DUP2 MSTORE PUSH1 0x20 PUSH1 0x4 DUP3 ADD MSTORE PUSH1 0xE PUSH1 0x24 DUP3 ADD MSTORE PUSH14 0xDCDE40CADCDEEACED0E8408AA89 PUSH1 0x93 SHL PUSH1 0x44 DUP3 ADD MSTORE PUSH1 0x64 ADD PUSH1 0x40 MLOAD DUP1 SWAP2 SUB SWAP1 REVERT INVALID LOG2 PUSH5 0x6970667358 0x22 SLT KECCAK256 RETURN SHL KECCAK256 SWAP14 OR 0xC8 DELEGATECALL 0x22 ISZERO CODECOPY CODESIZE KECCAK256 PUSH0 GAS 0xCC PUSH0 CREATE2 AND LOG4 0xC1 DUP7 SLT 0xFC PUSH9 0x59D3CF1EAB5F6B9F64 PUSH20 0x6F6C634300081E00330000000000000000000000 "
		},
		"gasEstimates": {
			"creation": {
				"codeDepositCost": "58400",
				"executionCost": "22214",
				"totalCost": "80614"
			},
			"external": {
				"fund()": "311",
				"getConversionRate()": "208",
				"getPrice()": "164",
				"getVersion()": "145",
				"minimumUSD()": "2281",
				"withdraw()": "142"
			}
		},
		"methodIdentifiers": {
			"fund()": "b60d4288",
			"getConversionRate()": "f36089ec",
			"getPrice()": "98d5fdca",
			"getVersion()": "0d8e6e2c",
			"minimumUSD()": "3430a88c",
			"withdraw()": "3ccfd60b"
		}
	},
	"abi": [
		{
			"inputs": [],
			"name": "fund",
			"outputs": [],
			"stateMutability": "payable",
			"type": "function"
		},
		{
			"inputs": [],
			"name": "getConversionRate",
			"outputs": [],
			"stateMutability": "nonpayable",
			"type": "function"
		},
		{
			"inputs": [],
			"name": "getPrice",
			"outputs": [],
			"stateMutability": "nonpayable",
			"type": "function"
		},
		{
			"inputs": [],
			"name": "getVersion",
			"outputs": [
				{
					"internalType": "uint256",
					"name": "",
					"type": "uint256"
				}
			],
			"stateMutability": "view",
			"type": "function"
		},
		{
			"inputs": [],
			"name": "minimumUSD",
			"outputs": [
				{
					"internalType": "uint256",
					"name": "",
					"type": "uint256"
				}
			],
			"stateMutability": "view",
			"type": "function"
		},
		{
			"inputs": [],
			"name": "withdraw",
			"outputs": [],
			"stateMutability": "nonpayable",
			"type": "function"
		}
	]
}