{
	"data": {
		"bytecode": {
			"linkReferences": {},
			"object": "608060405260056002553480156013575f5ffd5b50610488806100215f395ff3fe608060405260043610610079575f3560e01c80633e47d6f31161004c5780633e47d6f3146100f95780636e5b6b281461012457806398d5fdca14610143578063b60d428814610157575f5ffd5b80630d8e6e2c1461007d5780631f2c92381461009e5780633430a88c146100d55780633ccfd60b146100ea575b5f5ffd5b348015610088575f5ffd5b505f5b6040519081526020015b60405180910390f35b3480156100a9575f5ffd5b506100bd6100b8366004610310565b61015f565b6040516001600160a01b039091168152602001610095565b3480156100e0575f5ffd5b5061008b60025481565b3480156100f5575f5ffd5b505b005b348015610104575f5ffd5b5061008b610113366004610327565b60016020525f908152604090205481565b34801561012f575f5ffd5b5061008b61013e366004610310565b610186565b34801561014e575f5ffd5b5061008b6101bf565b6100f761025a565b5f818154811061016d575f80fd5b5f918252602090912001546001600160a01b0316905081565b5f5f6101906101bf565b90505f6ec097ce7bc90715b34b9f10000000006101ad8584610368565b6101b79190610385565b949350505050565b5f5f73694aa1769357215de4fac081bf1f309adc32530690505f816001600160a01b031663feaf968c6040518163ffffffff1660e01b815260040160a060405180830381865afa158015610215573d5f5f3e3d5ffd5b505050506040513d601f19601f8201168201806040525081019061023991906103c2565b50505091505080670de0b6b3a76400006102539190610410565b9250505090565b60025461026634610186565b10156102a95760405162461bcd60e51b815260206004820152600e60248201526d0dcde40cadcdeeaced0e8408aa8960931b604482015260640160405180910390fd5b5f8054600181810183557f290decd9548b62a8d60345a988386fc84ba6bc95484008f6362f93160ef3e56390910180546001600160a01b03191633908117909155825260205260409020546102ff90349061043f565b335f90815260016020526040902055565b5f60208284031215610320575f5ffd5b5035919050565b5f60208284031215610337575f5ffd5b81356001600160a01b038116811461034d575f5ffd5b9392505050565b634e487b7160e01b5f52601160045260245ffd5b808202811582820484141761037f5761037f610354565b92915050565b5f8261039f57634e487b7160e01b5f52601260045260245ffd5b500490565b805169ffffffffffffffffffff811681146103bd575f5ffd5b919050565b5f5f5f5f5f60a086880312156103d6575f5ffd5b6103df866103a4565b60208701516040880151606089015192975090955093509150610404608087016103a4565b90509295509295909350565b8082025f8212600160ff1b8414161561042b5761042b610354565b818105831482151761037f5761037f610354565b8082018082111561037f5761037f61035456fea2646970667358221220f4bfa6e27a2e6da522b18c37cfe2814a46413bba5972d22e862755a31c8d670b64736f6c634300081e0033",
			"opcodes": "PUSH1 0x80 PUSH1 0x40 MSTORE PUSH1 0x5 PUSH1 0x2 SSTORE CALLVALUE DUP1 ISZERO PUSH1 0x13 JUMPI PUSH0 PUSH0 REVERT JUMPDEST POP PUSH2 0x488 DUP1 PUSH2 0x21 PUSH0 CODECOPY PUSH0 RETURN INVALID PUSH1 0x80 PUSH1 0x40 MSTORE PUSH1 0x4 CALLDATASIZE LT PUSH2 0x79 JUMPI PUSH0 CALLDATALOAD PUSH1 0xE0 SHR DUP1 PUSH4 0x3E47D6F3 GT PUSH2 0x4C JUMPI DUP1 PUSH4 0x3E47D6F3 EQ PUSH2 0xF9 JUMPI DUP1 PUSH4 0x6E5B6B28 EQ PUSH2 0x124 JUMPI DUP1 PUSH4 0x98D5FDCA EQ PUSH2 0x143 JUMPI DUP1 PUSH4 0xB60D4288 EQ PUSH2 0x157 JUMPI PUSH0 PUSH0 REVERT JUMPDEST DUP1 PUSH4 0xD8E6E2C EQ PUSH2 0x7D JUMPI DUP1 PUSH4 0x1F2C9238 EQ PUSH2 0x9E JUMPI DUP1 PUSH4 0x3430A88C EQ PUSH2 0xD5 JUMPI DUP1 PUSH4 0x3CCFD60B EQ PUSH2 0xEA JUMPI JUMPDEST PUSH0 PUSH0 REVERT JUMPDEST CALLVALUE DUP1 ISZERO PUSH2 0x88 JUMPI PUSH0 PUSH0 REVERT JUMPDEST POP PUSH0 JUMPDEST PUSH1 0x40 MLOAD SWAP1 DUP2 MSTORE PUSH1 0x20 ADD JUMPDEST PUSH1 0x40 MLOAD DUP1 SWAP2 SUB SWAP1 RETURN JUMPDEST CALLVALUE DUP1 ISZERO PUSH2 0xA9 JUMPI PUSH0 PUSH0 REVERT JUMPDEST POP PUSH2 0xBD PUSH2 0xB8 CALLDATASIZE PUSH1 0x4 PUSH2 0x310 JUMP JUMPDEST PUSH2 0x15F JUMP JUMPDEST PUSH1 0x40 MLOAD PUSH1 0x1 PUSH1 0x1 PUSH1 0xA0 SHL SUB SWAP1 SWAP2 AND DUP2 MSTORE PUSH1 0x20 ADD PUSH2 0x95 JUMP JUMPDEST CALLVALUE DUP1 ISZERO PUSH2 0xE0 JUMPI PUSH0 PUSH0 REVERT JUMPDEST POP PUSH2 0x8B PUSH1 0x2 SLOAD DUP2 JUMP JUMPDEST CALLVALUE DUP1 ISZERO PUSH2 0xF5 JUMPI PUSH0 PUSH0 REVERT JUMPDEST POP JUMPDEST STOP JUMPDEST CALLVALUE DUP1 ISZERO PUSH2 0x104 JUMPI PUSH0 PUSH0 REVERT JUMPDEST POP PUSH2 0x8B PUSH2 0x113 CALLDATASIZE PUSH1 0x4 PUSH2 0x327 JUMP JUMPDEST PUSH1 0x1 PUSH1 0x20 MSTORE PUSH0 SWAP1 DUP2 MSTORE PUSH1 0x40 SWAP1 KECCAK256 SLOAD DUP2 JUMP JUMPDEST CALLVALUE DUP1 ISZERO PUSH2 0x12F JUMPI PUSH0 PUSH0 REVERT JUMPDEST POP PUSH2 0x8B PUSH2 0x13E CALLDATASIZE PUSH1 0x4 PUSH2 0x310 JUMP JUMPDEST PUSH2 0x186 JUMP JUMPDEST CALLVALUE DUP1 ISZERO PUSH2 0x14E JUMPI PUSH0 PUSH0 REVERT JUMPDEST POP PUSH2 0x8B PUSH2 0x1BF JUMP JUMPDEST PUSH2 0xF7 PUSH2 0x25A JUMP JUMPDEST PUSH0 DUP2 DUP2 SLOAD DUP2 LT PUSH2 0x16D JUMPI PUSH0 DUP1 REVERT JUMPDEST PUSH0 SWAP2 DUP3 MSTORE PUSH1 0x20 SWAP1 SWAP2 KECCAK256 ADD SLOAD PUSH1 0x1 PUSH1 0x1 PUSH1 0xA0 SHL SUB AND SWAP1 POP DUP2 JUMP JUMPDEST PUSH0 PUSH0 PUSH2 0x190 PUSH2 0x1BF JUMP JUMPDEST SWAP1 POP PUSH0 PUSH15 0xC097CE7BC90715B34B9F1000000000 PUSH2 0x1AD DUP6 DUP5 PUSH2 0x368 JUMP JUMPDEST PUSH2 0x1B7 SWAP2 SWAP1 PUSH2 0x385 JUMP JUMPDEST SWAP5 SWAP4 POP POP POP POP JUMP JUMPDEST PUSH0 PUSH0 PUSH20 0x694AA1769357215DE4FAC081BF1F309ADC325306 SWAP1 POP PUSH0 DUP2 PUSH1 0x1 PUSH1 0x1 PUSH1 0xA0 SHL SUB AND PUSH4 0xFEAF968C PUSH1 0x40 MLOAD DUP2 PUSH4 0xFFFFFFFF AND PUSH1 0xE0 SHL DUP2 MSTORE PUSH1 0x4 ADD PUSH1 0xA0 PUSH1 0x40 MLOAD DUP1 DUP4 SUB DUP2 DUP7 GAS STATICCALL ISZERO DUP1 ISZERO PUSH2 0x215 JUMPI RETURNDATASIZE PUSH0 PUSH0 RETURNDATACOPY RETURNDATASIZE PUSH0 REVERT JUMPDEST POP POP POP POP PUSH1 0x40 MLOAD RETURNDATASIZE PUSH1 0x1F NOT PUSH1 0x1F DUP3 ADD AND DUP3 ADD DUP1 PUSH1 0x40 MSTORE POP DUP2 ADD SWAP1 PUSH2 0x239 SWAP2 SWAP1 PUSH2 0x3C2 JUMP JUMPDEST POP POP POP SWAP2 POP POP DUP1 PUSH8 0xDE0B6B3A7640000 PUSH2 0x253 SWAP2 SWAP1 PUSH2 0x410 JUMP JUMPDEST SWAP3 POP POP POP SWAP1 JUMP JUMPDEST PUSH1 0x2 SLOAD PUSH2 0x266 CALLVALUE PUSH2 0x186 JUMP JUMPDEST LT ISZERO PUSH2 0x2A9 JUMPI PUSH1 0x40 MLOAD PUSH3 0x461BCD PUSH1 0xE5 SHL DUP2 MSTORE PUSH1 0x20 PUSH1 0x4 DUP3 ADD MSTORE PUSH1 0xE PUSH1 0x24 DUP3 ADD MSTORE PUSH14 0xDCDE40CADCDEEACED0E8408AA89 PUSH1 0x93 SHL PUSH1 0x44 DUP3 ADD MSTORE PUSH1 0x64 ADD PUSH1 0x40 MLOAD DUP1 SWAP2 SUB SWAP1 REVERT JUMPDEST PUSH0 DUP1 SLOAD PUSH1 0x1 DUP2 DUP2 ADD DUP4 SSTORE PUSH32 0x290DECD9548B62A8D60345A988386FC84BA6BC95484008F6362F93160EF3E563 SWAP1 SWAP2 ADD DUP1 SLOAD PUSH1 0x1 PUSH1 0x1 PUSH1 0xA0 SHL SUB NOT AND CALLER SWAP1 DUP2 OR SWAP1 SWAP2 SSTORE DUP3 MSTORE PUSH1 0x20 MSTORE PUSH1 0x40 SWAP1 KECCAK256 SLOAD PUSH2 0x2FF SWAP1 CALLVALUE SWAP1 PUSH2 0x43F JUMP JUMPDEST CALLER PUSH0 SWAP1 DUP2 MSTORE PUSH1 0x1 PUSH1 0x20 MSTORE PUSH1 0x40 SWAP1 KECCAK256 SSTORE JUMP JUMPDEST PUSH0 PUSH1 0x20 DUP3 DUP5 SUB SLT ISZERO PUSH2 0x320 JUMPI PUSH0 PUSH0 REVERT JUMPDEST POP CALLDATALOAD SWAP2 SWAP1 POP JUMP JUMPDEST PUSH0 PUSH1 0x20 DUP3 DUP5 SUB SLT ISZERO PUSH2 0x337 JUMPI PUSH0 PUSH0 REVERT JUMPDEST DUP2 CALLDATALOAD PUSH1 0x1 PUSH1 0x1 PUSH1 0xA0 SHL SUB DUP2 AND DUP2 EQ PUSH2 0x34D JUMPI PUSH0 PUSH0 REVERT JUMPDEST SWAP4 SWAP3 POP POP POP JUMP JUMPDEST PUSH4 0x4E487B71 PUSH1 0xE0 SHL PUSH0 MSTORE PUSH1 0x11 PUSH1 0x4 MSTORE PUSH1 0x24 PUSH0 REVERT JUMPDEST DUP1 DUP3 MUL DUP2 ISZERO DUP3 DUP3 DIV DUP5 EQ OR PUSH2 0x37F JUMPI PUSH2 0x37F PUSH2 0x354 JUMP JUMPDEST SWAP3 SWAP2 POP POP JUMP JUMPDEST PUSH0 DUP3 PUSH2 0x39F JUMPI PUSH4 0x4E487B71 PUSH1 0xE0 SHL PUSH0 MSTORE PUSH1 0x12 PUSH1 0x4 MSTORE PUSH1 0x24 PUSH0 REVERT JUMPDEST POP DIV SWAP1 JUMP JUMPDEST DUP1 MLOAD PUSH10 0xFFFFFFFFFFFFFFFFFFFF DUP2 AND DUP2 EQ PUSH2 0x3BD JUMPI PUSH0 PUSH0 REVERT JUMPDEST SWAP2 SWAP1 POP JUMP JUMPDEST PUSH0 PUSH0 PUSH0 PUSH0 PUSH0 PUSH1 0xA0 DUP7 DUP9 SUB SLT ISZERO PUSH2 0x3D6 JUMPI PUSH0 PUSH0 REVERT JUMPDEST PUSH2 0x3DF DUP7 PUSH2 0x3A4 JUMP JUMPDEST PUSH1 0x20 DUP8 ADD MLOAD PUSH1 0x40 DUP9 ADD MLOAD PUSH1 0x60 DUP10 ADD MLOAD SWAP3 SWAP8 POP SWAP1 SWAP6 POP SWAP4 POP SWAP2 POP PUSH2 0x404 PUSH1 0x80 DUP8 ADD PUSH2 0x3A4 JUMP JUMPDEST SWAP1 POP SWAP3 SWAP6 POP SWAP3 SWAP6 SWAP1 SWAP4 POP JUMP JUMPDEST DUP1 DUP3 MUL PUSH0 DUP3 SLT PUSH1 0x1 PUSH1 0xFF SHL DUP5 EQ AND ISZERO PUSH2 0x42B JUMPI PUSH2 0x42B PUSH2 0x354 JUMP JUMPDEST DUP2 DUP2 SDIV DUP4 EQ DUP3 ISZERO OR PUSH2 0x37F JUMPI PUSH2 0x37F PUSH2 0x354 JUMP JUMPDEST DUP1 DUP3 ADD DUP1 DUP3 GT ISZERO PUSH2 0x37F JUMPI PUSH2 0x37F PUSH2 0x354 JUMP INVALID LOG2 PUSH5 0x6970667358 0x22 SLT KECCAK256 DELEGATECALL 0xBF 0xA6 0xE2 PUSH27 0x2E6DA522B18C37CFE2814A46413BBA5972D22E862755A31C8D670B PUSH5 0x736F6C6343 STOP ADDMOD 0x1E STOP CALLER "
		},
		"gasEstimates": {
			"creation": {
				"codeDepositCost": "232000",
				"executionCost": "22379",
				"totalCost": "254379"
			},
			"external": {
				"addressToAmountFunded(address)": "2470",
				"fund()": "infinite",
				"funder(uint256)": "4633",
				"getConversionRate(uint256)": "infinite",
				"getPrice()": "infinite",
				"getVersion()": "169",
				"minimumUSD()": "2328",
				"withdraw()": "187"
			}
		},
		"methodIdentifiers": {
			"addressToAmountFunded(address)": "3e47d6f3",
			"fund()": "b60d4288",
			"funder(uint256)": "1f2c9238",
			"getConversionRate(uint256)": "6e5b6b28",
			"getPrice()": "98d5fdca",
			"getVersion()": "0d8e6e2c",
			"minimumUSD()": "3430a88c",
			"withdraw()": "3ccfd60b"
		}
	},
	"abi": [
		{
			"inputs": [
				{
					"internalType": "address",
					"name": "",
					"type": "address"
				}
			],
			"name": "addressToAmountFunded",
			"outputs": [
				{
					"internalType": "uint256",
					"name": "",
					"type": "uint256"
				}
			],
			"stateMutability": "view",
			"type": "function"
		},
		{
			"inputs": [],
			"name": "fund",
			"outputs": [],
			"stateMutability": "payable",
			"type": "function"
		},
		{
			"inputs": [
				{
					"internalType": "uint256",
					"name": "",
					"type": "uint256"
				}
			],
			"name": "funder",
			"outputs": [
				{
					"internalType": "address",
					"name": "",
					"type": "address"
				}
			],
			"stateMutability": "view",
			"type": "function"
		},
		{
			"inputs": [
				{
					"internalType": "uint256",
					"name": "ethAmount",
					"type": "uint256"
				}
			],
			"name": "getConversionRate",
			"outputs": [
				{
					"internalType": "uint256",
					"name": "",
					"type": "uint256"
				}
			],
			"stateMutability": "view",
			"type": "function"
		},
		{
			"inputs": [],
			"name": "getPrice",
			"outputs": [
				{
					"internalType": "uint256",
					"name": "",
					"type": "uint256"
				}
			],
			"stateMutability": "view",
			"type": "function"
		},
		{
			"inputs": [],
			"name": "getVersion",
			"outputs": [
				{
					"internalType": "uint256",
					"name": "",
					"type": "uint256"
				}
			],
			"stateMutability": "view",
			"type": "function"
		},
		{
			"inputs": [],
			"name": "minimumUSD",
			"outputs": [
				{
					"internalType": "uint256",
					"name": "",
					"type": "uint256"
				}
			],
			"stateMutability": "view",
			"type": "function"
		},
		{
			"inputs": [],
			"name": "withdraw",
			"outputs": [],
			"stateMutability": "nonpayable",
			"type": "function"
		}
	]
}