{
	"data": {
		"bytecode": {
			"linkReferences": {},
			"object": "60806040525f805460ff191660ff179055348015601a575f5ffd5b5060a68060265f395ff3fe6080604052348015600e575f5ffd5b50600436106030575f3560e01c80634f2be91f14603457806362edd2fc14604f575b5f5ffd5b604d5f805460ff8082166001011660ff19909116179055565b005b5f54605a9060ff1681565b60405160ff909116815260200160405180910390f3fea2646970667358221220c2abfb6d3ef483a284ac30a1a3ed7e5a58ac1c80802220500f7b49b7d3ce7fc564736f6c63430008210033",
			"opcodes": "PUSH1 0x80 PUSH1 0x40 MSTORE PUSH0 DUP1 SLOAD PUSH1 0xFF NOT AND PUSH1 0xFF OR SWAP1 SSTORE CALLVALUE DUP1 ISZERO PUSH1 0x1A JUMPI PUSH0 PUSH0 REVERT JUMPDEST POP PUSH1 0xA6 DUP1 PUSH1 0x26 PUSH0 CODECOPY PUSH0 RETURN INVALID PUSH1 0x80 PUSH1 0x40 MSTORE CALLVALUE DUP1 ISZERO PUSH1 0xE JUMPI PUSH0 PUSH0 REVERT JUMPDEST POP PUSH1 0x4 CALLDATASIZE LT PUSH1 0x30 JUMPI PUSH0 CALLDATALOAD PUSH1 0xE0 SHR DUP1 PUSH4 0x4F2BE91F EQ PUSH1 0x34 JUMPI DUP1 PUSH4 0x62EDD2FC EQ PUSH1 0x4F JUMPI JUMPDEST PUSH0 PUSH0 REVERT JUMPDEST PUSH1 0x4D PUSH0 DUP1 SLOAD PUSH1 0xFF DUP1 DUP3 AND PUSH1 0x1 ADD AND PUSH1 0xFF NOT SWAP1 SWAP2 AND OR SWAP1 SSTORE JUMP JUMPDEST STOP JUMPDEST PUSH0 SLOAD PUSH1 0x5A SWAP1 PUSH1 0xFF AND DUP2 JUMP JUMPDEST PUSH1 0x40 MLOAD PUSH1 0xFF SWAP1 SWAP2 AND DUP2 MSTORE PUSH1 0x20 ADD PUSH1 0x40 MLOAD DUP1 SWAP2 SUB SWAP1 RETURN INVALID LOG2 PUSH5 0x6970667358 0x22 SLT KECCAK256 0xC2 0xAB EXTSTATICCALL PUSH14 0x3EF483A284AC30A1A3ED7E5A58AC SHR DUP1 DUP1 0x22 KECCAK256 POP 0xF PUSH28 0x49B7D3CE7FC564736F6C634300082100330000000000000000000000 "
		},
		"gasEstimates": {
			"creation": {
				"codeDepositCost": "33200",
				"executionCost": "24308",
				"totalCost": "57508"
			},
			"external": {
				"Largeno()": "2299",
				"add()": "24356"
			}
		},
		"methodIdentifiers": {
			"Largeno()": "62edd2fc",
			"add()": "4f2be91f"
		}
	},
	"abi": [
		{
			"inputs": [],
			"name": "Largeno",
			"outputs": [
				{
					"internalType": "uint8",
					"name": "",
					"type": "uint8"
				}
			],
			"stateMutability": "view",
			"type": "function"
		},
		{
			"inputs": [],
			"name": "add",
			"outputs": [],
			"stateMutability": "nonpayable",
			"type": "function"
		}
	]
}